:100000000A128A1112280534FE00030E831203130C
:10001000D7000408D8000A08D9007F08DA000A16B9
:100020008A15FF290A168A15112983120317C90197
:100030009B28490A83160317EB000130EC000030BF
:10004000ED0025280310EC0DED0DEB0B22286C08BC
:1000500083120317C500831603176D088312031755
:10006000C6004508831603136A0583160317EB00C1
:10007000831203174608831603136B0583160317B1
:10008000EC006C086B040319462847285528831296
:100090000317450883120313AA06831203174608A1
:1000A00083120313AB065528552883120313320815
:1000B000013A031D5C285D28922883120317450826
:1000C000831203132A05E1008312031746088312E3
:1000D00003132B05E2008312031749080A128A1141
:1000E00072270A128A11013A031D7728782892286C
:1000F00083120317460883160317EC0083120317B5
:10010000450883160317EB00EB09EC096B08831213
:100110000313AA05831603176C0883120313AB0598
:1001200092289228013083160317EB006B08831284
:100130000317C9079B288312031348088312031768
:100140004902031CA428A5281928C901CE2A490858
:1001500083160317EB006B07EC006C088312031780
:10016000C8004808013E83160317EB006B08831292
:100170000317C700EA28D228D228D228C028C028CE
:1001800083124808B63E8400831300081F392038C4
:1001900080004708B63E840000081F3920388000E0
:1001A000CA29CA2983124708B63E84008313000E69
:1001B00083160317EB006B0C0739023A0319C028AA
:1001C000013A0319C028073A0319C028CA29CA29C5
:1001D000CA29CA2983124808B63E84008313000E38
:1001E00083160317EB006B0C0739023A0319D22868
:1001F000013A0319D228073A0319D228CA29CA2971
:10020000831203174808C23E840080180829092970
:100210002E294708C23E8400801C0F291029152969
:100220004708C23E84008010152983120313DB01A6
:100230008312031749080A168A1587230A128A119E
:100240002129831203174808C23E840083138014B7
:100250004808B63E84001F308005AC2A8312031381
:10026000DB01DB0A8312031749080A168A15872364
:100270000A128A113B29831203174808C23E8400E0
:10028000831380104808B63E84001F308005AC2AD6
:10029000AC2A83120313DB01DB0A8312031749081C
:1002A0000A168A1587230A128A1156298312031700
:1002B0004808C23E8400831380144708C23E84006D
:1002C0008010AC2A83120313DB01DB0A83120317AD
:1002D00049080A168A1587230A128A116F29831280
:1002E00003174808C23E8400831380104808B63EB6
:1002F00084001F308005AC2A83124708C23E840068
:10030000801C8329842989294708C23E84008010E3
:10031000892983120313DB018312031749080A1684
:100320008A1587230A128A11952983120317480810
:10033000C23E8400831380144808B63E84001F30F8
:100340008005AC2A83124808C23E8400801CA9297B
:10035000AA29AC2A023083160317EB006B0883121C
:100360000313DB008312031749080A168A15872333
:100370000A128A11013A031DBE29BF29AC2A831231
:1003800003174808C23E840083138010AC2AAC2AAD
:10039000AC2AAC2A83124808B63E8400000E8316AD
:1003A0000317EB006B0C0739013A03196229033A72
:1003B00003190029013A03194929073A03197C292D
:1003C000A229AC2A831203174708C23E8400801872
:1003D000EA29EB29102A4808C23E8400801CF12932
:1003E000F229F7294808C23E84008010F7298312B9
:1003F0000313DB018312031749080A168A158723A2
:100400000A128A11032A831203174708C23E840086
:10041000831380144708B63E84001F308005C52A28
:1004200083120313DB01DB0A8312031749080A1640
:100430008A1587230A128A111D2A83120317470877
:10044000C23E8400831380104708B63E84001F30EC
:100450008005C52AC52A83120313DB01DB0A831238
:10046000031749080A168A1587230A128A11382A9F
:10047000831203174708C23E840083138014480880
:10048000C23E84008010C52A83120313DB01DB0AFD
:100490008312031749080A168A1587230A128A113C
:1004A000512A831203174708C23E84008313801029
:1004B0004708B63E84001F308005C52A83124808CD
:1004C000C23E8400801C652A662A6B2A4808C23E08
:1004D000840080106B2A83120313DB01831203173D
:1004E00049080A168A1587230A128A11772A831265
:1004F00003174708C23E8400831380144708B63EA2
:1005000084001F308005C52A83124708C23E84003C
:10051000801C8B2A8C2AC52A023083160317EB0015
:100520006B0883120313DB008312031749080A16B2
:100530008A1587230A128A11013A031DA02AA12ACB
:10054000C52A831203174708C23E84008313801014
:10055000C52AC52AC52AC52A831203174708B63EED
:1005600084008313000E83160317EB006B0C07390E
:10057000013A0319442A033A0319E229013A0319FB
:100580002B2A073A03195E2A842A0130831603179F
:10059000EB006B0883120317C907CE2A83120313DB
:1005A0004908831203174902031CD72AD82AA7280F
:1005B000C9016A2F782D972D033083160317EB009E
:1005C0006B0883120313DB008312031749080A1612
:1005D0008A1539200A128A11CE3E840083138001C5
:1005E000031483120317490D203E84008012031464
:1005F000490D203E8400E3308005972D8312490881
:1006000083160317EB006B07203E840000080739B0
:10061000023A03190C2B0D2B1E2B831203174908CA
:1006200083160317EB006B07203E84000008073990
:100630000038031D1C2B1D2B362B1E2B6430EB00AA
:100640000330EC006C0883120313DB0083120317E2
:1006500049080A168A1539200A128A11013ECE3E2F
:100660008400831603176B08831380000330EB00AC
:100670006B0883120313DB008312031749080A1661
:100680008A1539200A128A11013ECE3E8400831356
:100690000008803A7F3E03184E2B4F2B692B6430A5
:1006A00083160317EB000330EC006C08831203136E
:1006B000DB008312031749080A168A1539200A122B
:1006C0008A11013ECE3E8400831603176B08831304
:1006D0008000033083160317EB006B0883120313AB
:1006E000DB008312031749080A168A1539200A12FB
:1006F0008A11013ECE3E840083130008831603173F
:10070000EC000330ED006D0883120313DB0083124D
:10071000031749080A168A1539200A128A11CE3E93
:100720008400831603176C0883138000031483125C
:100730000317490D203E840080120314490D203E0A
:100740008400E3308005972D831249088316031730
:10075000EB006B07203E840000080739023A0319BA
:10076000B22BB32BC42B831203174908831603172C
:10077000EB006B07203E8400000807390038031D9A
:10078000C22BC32BDC2BC42B6430EB000330EC00FA
:100790006C0883120313DB008312031749080A163F
:1007A0008A1539200A128A11013ECE3E8400831632
:1007B00003176B08831380000330EB006B08831270
:1007C0000313DB008312031749080A168A15392020
:1007D0000A128A11CE3E840083130008803A7F3EBD
:1007E000031CF32BF42B102C033083160317EB00A0
:1007F0006B0883120313DB008312031749080A16E0
:100800008A1539200A128A11CE3E84008313800192
:10081000031483120317490D203E840080127A2CA2
:10082000033083160317EB006B0883120313DB00FE
:100830008312031749080A168A1539200A128A11E9
:10084000013ECE3E840083130008803A7F3E0318A9
:100850002A2C2B2C452C643083160317EB00033015
:10086000EC006C0883120313DB00831203174908A2
:100870000A168A1539200A128A11013ECE3E8400DA
:10088000831603176B088313800003308316031746
:10089000EB006B0883120313DB0083120317490874
:1008A0000A168A1539200A128A11013ECE3E8400AA
:1008B0008313000883160317EC000330ED006D0866
:1008C00083120313DB008312031749080A168A15E3
:1008D00039200A128A11CE3E8400831603176C0851
:1008E00083138000031483120317490D203E8400F4
:1008F00080127A2C0314490D203E8400E3308005D9
:10090000972D643083160317EB000330EC006C085E
:1009100083120313DB008312031749080A168A1592
:1009200039200A128A11CE3E8400831603176B0801
:1009300083138000031483120317490D203E8400A3
:1009400080160314490D203E8400E3308005972D66
:1009500003148312490D203E8400801AB02CB12C60
:10096000002D033083160317EB006B08831203136B
:10097000DB008312031749080A168A1539200A1268
:100980008A11CE3E840083130008803A1D3E03186E
:10099000CA2CCB2CE52C013083160317EB00033057
:1009A000EC006C0883120313DB0083120317490861
:1009B0000A168A1539200A128A11CE3E840083163F
:1009C00003176B0883138007492D643083160317C0
:1009D000EB000330EC006C0883120313DB0083127E
:1009E000031749080A168A1539200A128A11CE3EC1
:1009F0008400831603176B0883138000492D492D4B
:100A0000033083160317EB006B0883120313DB001C
:100A10008312031749080A168A1539200A128A1107
:100A2000CE3E840083130008803A7E3E031C192DBD
:100A30001A2D342DFF3083160317EB000330EC0022
:100A40006C0883120313DB008312031749080A168C
:100A50008A1539200A128A11CE3E840083160317A4
:100A60006B0883138007492D033083160317EB00AF
:100A70006B0883120313DB008312031749080A165D
:100A80008A1539200A128A11CE3E84008313800110
:100A9000492D033083160317EB006B0883120313F1
:100AA000DB008312031749080A168A1539200A1237
:100AB0008A11CE3E84008313000883160317EC00CE
:100AC0000330ED006D0883120313DB00831203175C
:100AD00049080A168A1539200A128A11013ECE3EAB
:100AE0008400831603176C0883138000972D972DBD
:100AF00003148312490D203E84008313000C8316D7
:100B00000317EB006B0C0739003A0319972D013AD4
:100B10000319DC2A033A0319FE2A013A0319A42B0C
:100B2000073A0319812C013A0319A82C972D033099
:100B300083160317EB006B0883120313DB00831289
:100B4000031749080A168A1539200A128A11CE3E5F
:100B500084008313801FAD2DAE2DC22D033083166C
:100B60000317EB006B0883120313DB0083120317D8
:100B700049080A168A1539200A128A11CE3E8400C5
:100B800083138001033083160317EB006B08831275
:100B90000313DB008312031749080A168A1539204C
:100BA0000A128A11CE3E840083130008803A1B3E4D
:100BB000031CDB2DDC2DF62D643083160317EB00B0
:100BC0000330EC006C0883120313DB00831203175D
:100BD00049080A168A1539200A128A11CE3E840065
:100BE000831603176B0883138000F62D83120313FB
:100BF0003B19FB2DFC2DE72E033083160317EB006A
:100C00006B0883120313DB008312031749080A16CB
:100C10008A1539200A128A11023ECE3E84008313BF
:100C2000000883160317EC000330ED006D088312F3
:100C30000313DB008312031749080A168A153920AB
:100C40000A128A11CE3E840083130008831603170C
:100C50006C0603192C2E2D2E612F0330EB006B0830
:100C600083120313DB008312031749080A168A153F
:100C700039200A128A11CE3E84008313000883169D
:100C80000317EC000330ED006D0883120313DB0043
:100C90008312031749080A168A1539200A128A1185
:100CA000023ECE3E8400831603176C088313800037
:100CB000D02E0330EB006B0883120313DB0083128A
:100CC000031749080A168A1539200A128A11CE3EDE
:100CD000840083130008803A6C3E0318702E712E36
:100CE000892E6B300A168A15BC200A128A118312CB
:100CF0000317490883160317EB006B07DA3E8400DD
:100D0000831203135B0883138000840A5C0880004D
:100D1000612F6A300A168A15BC200A128A118312C2
:100D20000317490883160317EB006B07DA3E8400AC
:100D3000831203135B0883138000840A5C0880001D
:100D4000612F612FA32E033083160317EB006B086E
:100D500083120313DB008312031749080A168A154E
:100D600039200A128A11CE3E8400831300086E3E99
:100D70000A168A15BC200A128A1183120317490821
:100D800083160317EC006C07DA3E8400831203130A
:100D90005B0883138000840A5C088000612F612F48
:100DA00083120317490883160317EB006B07203ED5
:100DB000840000080739003A0319A32E013A0319E9
:100DC000A32E033A0319592E612F612F612F03308F
:100DD00083160317EB006B0883120313DB008312E7
:100DE000031749080A168A1539200A128A11023E89
:100DF000CE3E840083130008FF3A0319002F012F11
:100E0000612F033083160317EB006B088312031363
:100E1000DB008312031749080A168A1539200A12C3
:100E20008A11023ECE3E84008313800180034A2F44
:100E30006A300A168A15BC200A128A118312031717
:100E4000490883160317EB006B07DA3E8400831210
:100E500003135B0883138000840A5C088000612F01
:100E6000312FD2300A168A15BC200A128A11831239
:100E70000317490883160317EB006B07DA3E84005B
:100E8000831203135B0883138000840A5C088000CC
:100E9000612F612F83120317490883160317EB0094
:100EA0006B07203E840000080739003A0319312FF0
:100EB000013A0319312F033A0319182F612F612FBB
:100EC000612F013083160317EB006B0883120317A1
:100ED000C9076A2F7B084902031C6F2F702F782DDA
:100EE000712F080083160317EA00E9018312031328
:100EF0004808831603176A0203187F2F802F872F55
:100F00000D306A02031C852F862F8A2F872F6908D0
:100F1000FA2FFA2F8312031362086104031D912F25
:100F2000922FA02F831603176A08E6006607A03EDB
:100F30008400003083178000840A00308000F62F80
:100F4000831603176A08E6006607A03E840083172D
:100F50000008840A00040319AE2FAF2FCC2F6A08B3
:100F6000E6006607A03E840001308002840F003056
:100F7000031C8003800284036A08E6006607A03E23
:100F800084000008840A0004031DC72FC82FF62F11
:100F9000E901E90AF62FF62F6A08D33E840000081B
:100FA000E600E701660883120313DB0083160317CC
:100FB000670883120313DC003C30DD000030DE00E4
:100FC0000A168A1103200A128A11831603176A0867
:100FD000E8006807A03E8400831203135B088317B0
:100FE0008000840A5C088000F62FF62F8316031712
:100FF0006908FA2F0800831203131308FF2F080053
:10100E000A168A15F3250A128A150A168A118324DE
:10101E000A128A150A168A112F200A128A1508003A
:10102E00103083160317E8000030E9008312031313
:10103E002A08E200620883160317E6006608831288
:10104E000313E2006208DF008316031768080A160E
:10105E008A1541210A128A15013083160317E807F3
:10106E000318E90A0030E907831203132B08E20084
:10107E00620883160317E600660883120313E20064
:10108E006208DF008316031768080A168A154121C5
:10109E000A128A15013083160317E8070318E90AA6
:1010AE000030E907E701B928033083120313E20089
:1010BE006208DB008316031767080A168A153920A3
:1010CE000A128A15CE3E840083130008831203137E
:1010DE00E3006308DF008316031768080A168A15F3
:1010EE0041210A128A15013083160317E8070318E7
:1010FE00E90A0030E907033083120313E2006208A5
:10110E00DB008316031767080A168A1539200A12A0
:10111E008A15013ECE3E840083130008831203130A
:10112E00E3006308DF008316031768080A168A15A2
:10113E0041210A128A15013083160317E807031896
:10114E00E90A0030E9070130E8070318E90A003020
:10115E00E907013083120313E200620883160317B6
:10116E00E707B9287B086702031CBE28BF285B2847
:10117E00C0284230E8000030E90068080A168A15D7
:10118E0097200A128A15013E83120313E2006208A9
:10119E00CA004A08FF3A031DD528D628D928CA0105
:1011AE00CA0AD9284A08E2006208DF00831603172C
:1011BE0068080A168A1541210A128A150800831238
:1011CE000313DE00CB2A88295C08031DEF28F128C3
:1011DE003514DC2AFE30DD005D08B505DC2ADC2A7C
:1011EE005C08031DFB28FD28B514DC2AFD30DD004C
:1011FE005D08B505DC2ADC2A5C08031D07290929D0
:10120E003515DC2AFB30DD005D08B505DC2ADC2A4D
:10121E005C08031D13291529B916DC2ADF30DD0001
:10122E005D08B905DC2ADC2A5C08031D1F2921296B
:10123E003917DC2ABF30DD005D08B905DC2ADC2A4F
:10124E005C08031D2B292D293615DC2AFB30DD0009
:10125E005D08B605DC2ADC2A5C08031D372939290E
:10126E003615DC2AFB30DD005D08B605DC2ADC2AEB
:10127E005C08031D432945293615DC2AFB30DD00A9
:10128E005D08B605DC2ADC2A5C08031D4F295129AE
:10129E003615DC2AFB30DD005D08B605DC2ADC2ABB
:1012AE005C08031D5B295D293615DC2AFB30DD0049
:1012BE005D08B605DC2ADC2A5C08031D672969294E
:1012CE003615DC2AFB30DD005D08B605DC2ADC2A8B
:1012DE005C08031D732975293615DC2AFB30DD00E9
:1012EE005D08B605DC2ADC2A5C08031D7F298129EE
:1012FE003615DC2AFB30DD005D08B605DC2ADC2A5B
:10130E00DC2A5B08003A0319EB28013A0319F72887
:10131E00033A03190329013A03190F29073A03194E
:10132E001B29013A03192729033A03193329013AD4
:10133E0003193F290F3A03194B29013A031957296B
:10134E00033A03196329013A03196F29073A03195E
:10135E007B29DC2ADC2ABB29FD30DD005D08B805BF
:10136E00DC2AB814DC2ADC2A5B08003A0319B329FC
:10137E00013A0319B829DC2ADC2A562A5C08031D17
:10138E00C929CB29B515DC2AF730DD005D08B50576
:10139E00DC2ADC2A5C08031DD529D7293516DC2A60
:1013AE00EF30DD005D08B505DC2ADC2A5C08031D84
:1013BE00E129E329B516DC2ADF30DD005D08B5052D
:1013CE00DC2ADC2A5C08031DED29EF293914DC2AFE
:1013DE00FE30DD005D08B905DC2ADC2A5C08031D41
:1013EE00F929FB29B914DC2AFD30DD005D08B905A9
:1013FE00DC2ADC2A5C08031D052A072A3915DC2A9B
:10140E00FB30DD005D08B905DC2ADC2A5C08031D13
:10141E00112A132A3916DC2AEF30DD005D08B905D2
:10142E00DC2ADC2A5C08031D1D2A1F2AB917DC2AB8
:10143E007F30DD005D08B905DC2ADC2A5C08031D5F
:10144E00292A2B2A3A16DC2AEF30DD005D08BA0570
:10145E00DC2ADC2A5C08031D352A372ABA16DC2A58
:10146E00DF30DD005D08BA05DC2ADC2A5C08031DCE
:10147E00412A432A3A17DC2ABF30DD005D08BA053F
:10148E00DC2ADC2A5C08031D4D2A4F2AB714DC2AFD
:10149E00FD30DD005D08B705DC2ADC2ADC2A5B089E
:1014AE00003A0319C529013A0319D129033A031940
:1014BE00DD29013A0319E929073A0319F529013AF9
:1014CE000319012A033A03190D2A013A0319192A9D
:1014DE000F3A0319252A013A0319312A033A03193F
:1014EE003D2A013A0319492ADC2ADC2AAF2A5C0874
:1014FE00031D822A842A3616DC2AEF30DD005D08B1
:10150E00B605DC2ADC2A5C08031D8E2A902ABA173F
:10151E00DC2A7F30DD005D08BA05DC2ADC2A5C0897
:10152E00031D9A2A9C2A3714DC2AFE30DD005D0842
:10153E00B705DC2ADC2A5C08031DA62AA82A361564
:10154E00DC2AFB30DD005D08B605DC2ADC2ADC2A4D
:10155E005B08003A03197E2A013A03198A2A033AD4
:10156E000319962A013A0319A22ADC2ADC2A5C08FE
:10157E00031DC22AC42AB815DC2AF730DD005D0827
:10158E00B805DC2ADC2ADC2A5E08003A0319882911
:10159E00013A0319BB29033A0319562A013A0319D2
:1015AE00AF2A073A0319BE2ADC2A35088500360809
:1015BE0086003708870038088800390889003A08FD
:1015CE008316031788000800831603173A08031DB5
:1015DE00F12ABB2CA92CA92C3C0883120313AA04B4
:1015EE00831603173E0883120313AB0483160317E7
:1015FE003D08EB003B08EA00EA09EB096A08831292
:10160E000313AA05831603176B0883120313AB0586
:10161E0083160317EF01EE01EE0A04306F02031C6E
:10162E00192B1A2B1C2B4C2B4C2B40086E05031917
:10163E00212B222B2C2B03146F0D203E84008313A1
:10164E000008E339083880002C2B3F086E0503197B
:10165E00312B322B3C2B03146F0D203E8400831351
:10166E000008E339043880003C2B0130EA006A0898
:10167E00EF076E08EA006A07EB006B08EE00043015
:10168E006F02031C4B2B4C2B1C2BEF01EE01EE0AB1
:10169E0006306F02031C542B552B572B912B912B7D
:1016AE006F08EA006A07EB006B08ED006D08013E5B
:1016BE00EA006A08EC0041086E050319672B682BD7
:1016CE00712B6D08B63E8400831300081F398038D5
:1016DE008000812B42086E050319762B772B812B08
:1016EE006C08B63E8400831300081F3980388000D2
:1016FE00812B812B0130EA006A08EF076E08EA00A1
:10170E006A07EB006B08EE0006306F02031C902B8D
:10171E00912B572BBA01BB2CEF0104306F02031C27
:10172E00992B9A2B9C2BF12BF12B6F08EA006A0751
:10173E00203E8400831300080739EB006F08013E3A
:10174E00BA3E84008317000807396B060319B02BC5
:10175E00B12BE52B6F08013EBA3E84000730000521
:10176E00EA006F08EB006B07203E8400831300082D
:10177E006A06F8396A0680006F08013EBA3E840098
:10178E0083170008EA006A0883120313DF00033090
:10179E0083160317EB006B0883120313DB0083160B
:1017AE0003176F080A168A1539200A128A15143E75
:1017BE000A168A1541210A128A15E52B0130831665
:1017CE000317EA006A08EF0704306F02031CF02BC0
:1017DE00F12B9C2BBA01BB2CEF010D306F02031CB9
:1017EE00F92BFA2BFC2B362C362C6F08013EBA3E09
:1017FE00840083170008EA006F08D33E84000008B7
:10180E006A0603190B2C0C2C2A2C6F08013EBA3ECB
:10181E0084000008EA006F08D33E84006A08800046
:10182E006F08D33E84000008EA006A08831203138F
:10183E00DF00831603176F08323E0A168A15412100
:10184E000A128A152A2C013083160317EA006A0839
:10185E00EF070D306F02031C352C362CFC2BBA0112
:10186E00BB2CEF0106306F02031C3E2C3F2C412C8B
:10187E007E2C7E2C6F08013EBA3E84008317000832
:10188E00EA006F08E23E8400831300086A0603191B
:10189E00512C522C722C6F08013EBA3E84008317D5
:1018AE000008EA006F08E23E84006A088313800095
:1018BE006F08E23E84000008EA006A0883120313F0
:1018CE00DF00831603176F082A3E0A168A15412178
:1018DE000A128A15722C013083160317EA006A0861
:1018EE00EF0706306F02031C7D2C7E2C412CBA01B3
:1018FE00BB2C831203133B18852C862C992C831634
:10190E0003173B08EA006A0883120313BB003B1C53
:10191E00912C922CA22C0A128A1517200A128A15C3
:10192E00A22CA22C831603173B08EA006A08831226
:10193E000313BB00A22C83160317BA01BB2CBA01EA
:10194E00BB2CBB2C3A08013A0319F32A033A0319AC
:10195E00932B013A0319F32B073A0319382C013A4A
:10196E000319802CA62CBB2C831203133208013AC8
:10197E00031DC22CC32CCE2C4508031DC72CCB2C0B
:10198E004D120130C502CE2C4D16CE2CCE2CCD08CC
:10199E00031DD22CD32CEE2C143040020318D82C5D
:1019AE00D92CEA2CF73083160317EA006A08831243
:1019BE000313B805013083160317EA006A08831271
:1019CE000313C007372DB815C001372D372D4D1E07
:1019DE00F12CF22C142D143040020318F72CF82C95
:1019EE00012DF73083160317EA006A0883120313DA
:1019FE00B805032DB815032D013083160317EA0021
:101A0E006A0883120313C00728304002031C102DEE
:101A1E00112D372DC001372D372D0A3040020318F6
:101A2E00192D1A2D232DF73083160317EA006A0895
:101A3E0083120313B805252DB815252D01308316F5
:101A4E000317EA006A0883120313C007143040021A
:101A5E00031C322D332D372DC001372D372D372D49
:101A6E0008000E3083160317EC000030ED00E9017C
:101A7E00EA016C080A168A1597200A128A1583162F
:101A8E000317E600E7016608E9006708EA0001307F
:101A9E00EC070318ED0A0030ED076C080A168A15DC
:101AAE0097200A128A1583160317E600E7016608C7
:101ABE00E700E6016608E9046708EA040130EC076E
:101ACE000318ED0A0030ED07AA306A06031D712DCA
:101ADE0055306906031D742D752D902E6C080A164F
:101AEE008A1597200A128A1583160317E600E70156
:101AFE00660883120313AA0083160317670883125E
:101B0E000313AB00013083160317EC070318ED0A1D
:101B1E000030ED076C080A168A1597200A128A15EE
:101B2E0083160317E600E7016608E700E60166087C
:101B3E0083120313AA048316031767088312031371
:101B4E00AB04013083160317EC070318ED0A0030BF
:101B5E00ED07EB011D2E6C080A168A1597200A1246
:101B6E008A1583160317E6000330E7006708831211
:101B7E000313DB00831603176B080A168A15392028
:101B8E000A128A15CE3E8400831603176608831345
:101B9E0080000130EC070318ED0A0030ED076C08E9
:101BAE000A168A1597200A128A1583160317E6005D
:101BBE000330E700670883120313DB008316031755
:101BCE006B080A168A1539200A128A15013ECE3E76
:101BDE008400831603176608831380000130EC0718
:101BEE000318ED0A0030ED076C080A168A159720C7
:101BFE000A128A1583160317E60007306605E700FA
:101C0E006B08E8006807203E84008313000867060F
:101C1E00F839670680000130EC070318ED0A003032
:101C2E00ED070130E6006608EB071D2E7B086B0200
:101C3E00031C222E232EB22D242E2A30EC0000302F
:101C4E00ED00EB0106306B02031C2E2E2F2E312ED3
:101C5E00512E512E6C080A168A1597200A128A15D3
:101C6E0083160317E6006B08E23E840066088313B2
:101C7E0080000130EC070318ED0A0030ED0701304B
:101C8E00E6006608EB0706306B02031C4F2E502E43
:101C9E00312E512E3230EC000030ED00EB010D30C4
:101CAE006B02031C5B2E5C2E5E2E7E2E7E2E6C082F
:101CBE000A168A1597200A128A1583160317E6004C
:101CCE006B08D33E84006608831780000130EC0752
:101CDE000318ED0A0030ED070130E6006608EB0749
:101CEE000D306B02031C7C2E7D2E5E2E7E2E42301E
:101CFE00EC000030ED006C080A168A1597200A12C7
:101D0E008A1583160317E600660883120313CB00A9
:101D1E00FF2F83120313DF01831603176C080A16B5
:101D2E008A1541210A128A15013083160317EC0712
:101D3E000318ED0A0030ED0783120313DF0183163B
:101D4E0003176C080A168A1541210A128A150130EA
:101D5E0083160317EC070318ED0A0030ED07831204
:101D6E000313AA01AB0183160317EB012E2F831267
:101D7E000313DF01831603176C080A168A15412117
:101D8E000A128A15013083160317EC070318ED0AA1
:101D9E000030ED0783120313DF01831603176C085F
:101DAE000A168A1541210A128A1501308316031765
:101DBE00EC070318ED0A0030ED070330E600660865
:101DCE0083120313DB00831603176B080A168A159A
:101DDE0039200A128A15CE3E840083138001033007
:101DEE0083160317E600660883120313DB008316BF
:101DFE0003176B080A168A1539200A128A15013E36
:101E0E00CE3E84008313800183120313DF01DF0AA9
:101E1E00831603176C080A168A1541210A128A15B1
:101E2E00013083160317EC070318ED0A0030ED0797
:101E3E006B08E6006607203E840083130008F8391D
:101E4E00013880000130E6006608EB072E2F7B0874
:101E5E006B02031C332F342FBE2E352F2A30EC008D
:101E6E000030ED00EB0106306B02031C3F2F402FBC
:101E7E00422F6B2F6B2F7830E60066088312031308
:101E8E00DF00831603176C080A168A1541210A1201
:101E9E008A15013083160317EC070318ED0A00307C
:101EAE00ED077830E6006B08E23E84006608831387
:101EBE0080000130E6006608EB0706306B02031C5B
:101ECE00692F6A2F422F6B2F3230EC000030ED005D
:101EDE00EB010D306B02031C752F762F782F9B2F85
:101EEE009B2F83120313DF01831603176C080A1648
:101EFE008A1541210A128A15013083160317EC0741
:101F0E000318ED0A0030ED076B08D33E84008317EB
:101F1E0080010130E6006608EB070D306B02031CF2
:101F2E00992F9A2F782F9B2F4230EC000030ED0026
:101F3E0083120313CB014B0883160317E6006608C2
:101F4E0083120313DF00831603176C080A168A1513
:101F5E0041210A128A15013083160317EC07031864
:101F6E00ED0A0030ED070D30EC000030ED0083126D
:101F7E000313DF01DF0A831603176C080A168A158E
:101F8E0041210A128A15013083160317EC07031834
:101F9E00ED0A0030ED075530E60066088312031394
:101FAE00DF00831603176C080A168A1541210A12E0
:101FBE008A15013083160317EC070318ED0A00305B
:101FCE00ED07AA30E600660883120313DF008316BE
:101FDE0003176C080A168A1541210A128A15013058
:101FEE0083160317EC070318ED0A0030ED07FF2FD9
:021FFE000800D9
:1020060083120313DF01E00108285B1C0B280C2850
:1020160012285D08DF070318E00A5E08E0070130B2
:102026000310DD0DDE0DFF3E031D132801300310E6
:10203600DC0CDB0CFF3E031D1A285C085B04031D49
:1020460025282628082827286008DC01DC075F08E1
:10205600DB01DB072E28080083120313E201E328C5
:1020660062080A168A1511250A168A1183120313A5
:10207600DE005E08E1006108A03E84008313000EC6
:10208600DE00DE0C5E0C0139DF006108A03E840034
:10209600000EE000600C01395F060319532854282E
:1020A60069286108A03E8400801A5A285B286028A7
:1020B6006108A03E8400001364286108A03E8400E5
:1020C60000176208B63E8400F03080056108A03E25
:1020D6008400801A6F287028B4286208B63E8400EF
:1020E60000080F39DE0006305E0203187B287C28C4
:1020F60089286208B63E840000080F39DE00DE0A31
:1021060000085E06F0395E0680008D286208B63E3D
:10211600840000126208B63E8400001E93289428AC
:102126009F286208B63E840000081F3940388000A8
:102136006208B63E840000126208B63E8400000EB5
:10214600DE005E0C0739033A031DAA28AB28DE28F9
:102156006208B63E840000081F3920388000DE2859
:10216600DE286208B63E840000080F39DE0006301D
:102176005E020318BF28C028D1286208B63E840034
:1021860000080F39DE00DE0A00085E06F0395E063A
:1021960080006208B63E84000016DE286208B63E5D
:1021A600840000081F39603880006208B63E84004B
:1021B6000012DE28DE280130DE005E08E207E32892
:1021C60043086202031CE828E9283328EA280800A5
:1021D60005308312031364020318F228F328F82843
:1021E6000130E1006108E407F828E201DD29053045
:1021F6006402031CFF280029D629BB1C03290429D5
:1022060009296208C23E8400831380106208C23E18
:1022160084008313000C0139E1006208C23E840089
:10222600000801396106031919291A29D6296218E5
:102236001D291E2969296208C23E8400801C2429A2
:10224600252969296208013EC23E8400001C2C290A
:102256002D294D296208013EC23E84008010620885
:10226600013EC23E840080183D2940296208013E95
:10227600C23E840083130014422983130010831284
:102286000313E4016208013E0A168A158C220A1617
:102296008A11E429831203136208C23E8400831361
:1022A600801859295C296208C23E840083130014F1
:1022B6005E298313001083120313E40162080A16D1
:1022C6008A158C220A168A11E429E429621C6C29D3
:1022D6006D29B8296208C23E8400801C73297429BE
:1022E600B8296208FF3EC23E8400001C7B297C2977
:1022F6009C296208FF3EC23E840080106208FF3EB1
:10230600C23E840080188C298F296208FF3EC23E97
:10231600840083130014912983130010831203137E
:10232600E4016208FF3E0A168A158C220A168A11F3
:10233600E429831203136208C23E840083138018C3
:10234600A829AB296208C23E840083130014AD2974
:102356008313001083120313E40162080A168A1518
:102366008C220A168A11E429E429831203136208CF
:10237600C23E840083138018C429C7296208C23E5E
:10238600840083130014C9298313001083120313D6
:10239600E40162080A168A158C220A168A11E429B3
:1023A600E429E429D629013083120313E1006108E8
:1023B600E207DD2947086202031CE229E329FA281D
:1023C600E429080083120313DB00DC01C32A061C80
:1023D600ED29EE29072BDC01DC0A072B072B8316D8
:1023E6000317881DF729F829072B83120313DC012D
:1023F600DC0A072B072B83160317081D032A042A5A
:10240600072B83120313DC01DC0A072B072B831629
:102416000317881C0F2A102A072B83120313DC01CB
:10242600DC0A072B072B83160317081C1B2A1C2AFA
:10243600072B83120313DC01DC0A072B072B8316F9
:102446000317891E272A282A072B83120313DC0168
:10245600DC0A072B072B83160317091E332A342A97
:10246600072B83120313DC01DC0A072B072B8316C9
:102476000317891D3F2A402A072B83120313DC0109
:10248600DC0A072B072B83160317091D4B2A4C2A38
:10249600072B83120313DC01DC0A072B072B831699
:1024A6000317891C572A582A072B83120313DC01AA
:1024B600DC0A072B072B83160317091C632A642AD9
:1024C600072B83120313DC01DC0A072B072B881F5B
:1024D6006D2A6E2A072BDC01DC0A072B072B081F47
:1024E600752A762A072BDC01DC0A072B072B881EA8
:1024F6007D2A7E2A072BDC01DC0A072B072B081E08
:10250600852A862A072BDC01DC0A072B072B871E68
:102516008D2A8E2A072BDC01DC0A072B072B071EC8
:10252600952A962A072BDC01DC0A072B072B081CA9
:102536009D2A9E2A072BDC01DC0A072B072B871D09
:10254600A52AA62A072BDC01DC0A072B072B071D69
:10255600AD2AAE2A072BDC01DC0A072B072B861CCB
:10256600B52AB62A072BDC01DC0A072B072B861CAB
:10257600BD2ABE2A072BDC01DC0A072B072B072BFB
:102586005B08003A0319EA29013A0319F229033ACA
:102596000319FE29013A03190A2A073A0319162ACA
:1025A600013A0319222A033A03192E2A013A03197A
:1025B6003A2A0F3A0319462A013A0319522A033ACC
:1025C60003195E2A013A03196A2A073A0319722A7D
:1025D600013A03197A2A033A0319822A013A03199E
:1025E6008A2A1F3A0319922A013A03199A2A033AA8
:1025F6000319A22A013A0319AA2A073A0319B22A89
:10260600013A0319BA2A072B83120313DC08031DA8
:102616000D2B0E2B112BDC01DC0A132BDC01132BEB
:102626005C08152B080083160313910103308312EF
:1026360003178700831603138F010C3083120313CD
:102646009D005C309B003030DB005B089D04F93058
:10265600831603139200831203138C10831603133D
:102666008C100430831203139200833083160313F5
:10267600810082308312031381000B118B161630F2
:10268600831203178900C03083120313DB005B0833
:1026960083160313870422309300940183120313D5
:1026A6009401363094008C11831603138C1506148E
:1026B6008316031785150515851405148716071641
:1026C6008715071587140714831603138817081729
:1026D6008816081687160716081487150715861410
:1026E6008614F73083120313DB005B08831603138B
:1026F6008805FE3083120313DB005B088316031381
:102706008505FD3083120313DB005B088316031374
:102716008505FB3083120313DB005B088316031366
:102726008505DF3083120313DB005B088316031372
:102736008905BF3083120313DB005B08831603137E
:102746008905FB3083120313DB005B088316031332
:102756008605FB3083120313DB005B088316031325
:102766008605FB3083120313DB005B088316031315
:102776008605FB3083120313DB005B088316031305
:102786008605FB3083120313DB005B0883160313F5
:102796008605FB3083120313DB005B0883160313E5
:1027A6008605FB3083120313DB005B0883160313D5
:1027B6008605FB3083120313DB005B0883160313C5
:1027C60086050815FD3083120313DB005B088316AC
:1027D60003138805F73083120313DB005B088316A7
:1027E60003138505EF3083120313DB005B088316A2
:1027F60003138505DF3083120313DB005B088316A2
:1028060003138505FE3083120313DB005B08831672
:1028160003138905FD3083120313DB005B0883165F
:1028260003138905FB3083120313DB005B08831651
:1028360003138905EF3083120313DB005B0883164D
:10284600031389057F3083120313DB005B088316AD
:1028560003138905EF3083120313DB005B0883162D
:1028660003178505DF3083120313DB005B0883162D
:1028760003178505BF3083120313DB005B0883163D
:1028860003178505FD3083120313DB005B088316EF
:1028960003138705EF3083120313DB005B088316EF
:1028A600031386057F3083120313DB005B08831650
:1028B60003178505FE3083120313DB005B088316BE
:1028C60003138705FB3083120313DB005B088316B3
:1028D60003138605831203133616BA1737143615F3
:1028E60035088500360886003708870038088800CE
:1028F600390889003A08831603178800640008001F
:1029060083120313E2010B2E62080A168A1553205E
:102916000A168A1183120313DE005E08E100F42D05
:10292600942C6108A03E84008313000EDE00DE0CAA
:102936005E0C0139DF006108A03E8400000EE00055
:10294600600C01395F060319A92CAA2C062E610812
:10295600A03E8400801AB02CB12CB62C6108A03E93
:1029660084000013062E6108A03E8400001703149D
:10297600620D203E84000008E3390C388000062EE4
:10298600062E062E6108A03E8400000EDE00DE0C38
:102996005E0C0139DF006108A03E8400000EE000F5
:1029A600600C01395F060319D92CDA2CF12C610869
:1029B600A03E8400801AE02CE12CE62C6108A03EA3
:1029C60084000013EA2C6108A03E84000017620808
:1029D600DE005E07203E8400873080056108A03E49
:1029E6008400801AF72CF82C9E2D6208DE005E0704
:1029F600203E8400000CDF00DF0C5F0C0F39E00086
:102A0600063060020318082D092D2D2D6208DE0000
:102A16005E07203E8400000CDF00DF0C5F0C0F39E0
:102A2600DF00DF0ADF0DDF0DDF0D00085F068739E7
:102A36005F0680006208DE005E07203E8400801F7D
:102A4600252D262D3D2D0314620D203E84000014F5
:102A56003D2D3D2D6208DE005E07203E840080137A
:102A66000314620D203E840000100314620D203E04
:102A7600840080106208DE005E07203E8400801F0E
:102A8600452D462D542D0314620D203E840000086A
:102A9600E3390C3880006208DE005E07203E8400C1
:102AA60080130314620D203E8400801C5B2D5C2D78
:102AB600742D0314620D203E84000008E33910389B
:102AC60080006208DE005E07203E84008013031447
:102AD600620D203E840000100314620D203E840027
:102AE60080100314620D203E8400000CDE005E0C94
:102AF6000739053A031D802D812D062E0314620D1C
:102B0600203E8400E33080050314620D203E8400DD
:102B1600000EDE005E0C0139013ADF000314620D7F
:102B2600203E8400DF0EDF0D00085F06DF395F06FA
:102B36008000062E062E6208DE005E07203E840018
:102B4600000CDF00DF0C5F0C0F39E000063060027E
:102B56000318AE2DAF2DD82D6208DE005E07203E8D
:102B66008400000CDF00DF0C5F0C0F39DF00DF0A8A
:102B7600DF0DDF0DDF0D00085F0687395F06800079
:102B86006208DE005E07203E840080170314620D93
:102B9600203E8400001CD02DD12D062E0314620D7C
:102BA600203E84008014062E062E0314620D203E5D
:102BB60084000008E339143880006208DE005E07EE
:102BC600203E840080130314620D203E8400001012
:102BD6000314620D203E84008010062E062E062E5B
:102BE600062E6208DE005E07203E8400831300087E
:102BF6000739003A0319942C013A0319C52C033AF4
:102C06000319942C062E0130DE005E08E2070B2E17
:102C160042086202031C102E112E872C122E080069
:102C260083160313140883120313D0005008AE0052
:102C36003C30D0005008C500AE1A222E232E542E4A
:102C46002E19262E272E542E2E1C2A2E2B2E542E8F
:102C5600AE1D2E2E2F2E542E6400831603136C16D3
:102C6600193083120313D0005008B0000A128A11DB
:102C7600FB270A168A1183120313D0005008831209
:102C86000317AC0083120313AF01AF0ACC01CD01C9
:102C9600141F4E2E4F2EFF2FCD15CD141413FF2FBC
:102CA600FF2FAE1E572E582E582F2E195B2E5C2E38
:102CB600582F2E1C5F2E602E582F2F08193A031DF1
:102CC600652E662E6D2E4D15CD141830D000500889
:102CD600AF006D2E141F702E712E752ECD15CD14CE
:102CE6001413752E0A128A11FB270A168A118312EB
:102CF6000313D0002F082C3E840050088317800051
:102D06002F08013A031D882E892ECE2EA82EA82E16
:102D16000B30D0005008B000BC2E0B30D00050084D
:102D2600B000BC2E1330D0005008B000BC2E0B30C3
:102D3600D0005008B000BC2E0430D0005008B000BF
:102D4600BC2E4D15CD14BC2EBC2E2F082C3E840057
:102D56000008013A03198B2E033A0319902E013A03
:102D66000319952E073A03199A2E013A03199F2E35
:102D7600A42E2F082C3E84000008D0005008CC005A
:102D8600CD131A303002031CC92ECA2E532F4D15EF
:102D9600CD14532F532F2F0830020318D32ED42EC1
:102DA600D72E4D15CD14532F2F083006031DDC2EBC
:102DB600DD2E532F2D30F5000130F6002F08FE3E94
:102DC600D0005008F7000A168A1543220A168A11FF
:102DD600760883120313A901A9077508A801A80795
:102DE6002F082C3E840083170008D000D10150081C
:102DF600D100D0012F08FF3E2C3E8400000850076A
:102E0600D2000030031801305107D30053082906B9
:102E1600031D0F2F520828060319122F132F182FE0
:102E2600A801A9014D14CD14532F4D108316031775
:102E3600BA08031D1F2F202F4A2F83120313D40114
:102E4600D40AD501422F5508193A031D2B2F2C2FD2
:102E56002F2F0130D5022F2F54082C3E8400000856
:102E6600D0005508BA3E8400500880000130D000DA
:102E76005008D4070130D0005008D507422F540817
:102E86002F020318472F482F262FCD10532F8312BA
:102E96000313CD14532F532F532F532F532F532F29
:102EA6000130D0005008AF07FF2FAE1A5B2F5C2F02
:102EB600702F2E1D5F2F602F702F2E18632F642FFB
:102EC600702FAE1D672F682F702FB1014C080A16A0
:102ED6008A152D200A168A11FF2FAE1E732F742F06
:102EE600E92F2E1D772F782FE92F2E187B2F7C2F79
:102EF600E92FD82FD82F2808D0005008CD004D082C
:102F06000A168A152D200A168A1101308312031318
:102F1600D0005008B107FF2F2908D0005008CE0076
:102F26004E080A168A152D200A168A1101308312B8
:102F36000313D0005008B107FF2F4C30F5000030C6
:102F4600F6000330D0005008F7000A168A1543220F
:102F56000A168A11760883120313A901A9077508B0
:102F6600A801A80728080A168A152D200A168A110C
:102F7600013083120313D0005008B107FF2F290830
:102F86000A168A152D200A168A1101308312031398
:102F9600D0005008B107FF2FCD1755300A168A15F5
:102FA6002D200A168A11FF2FFF2F831203133108D3
:102FB600003A03197E2F013A03198F2F033A03199A
:102FC600A02F013A0319C22FCF2FFF2FAE1EEC2FD1
:102FD600ED2FFF2F2E19F02FF12FFF2F2E18F42F84
:102FE600F52FFF2F831603136C126400FF2FFF2F9C
:0A2FF600FF2FFF2FFF2FFF2F080011
:1030220064008001840A040603190034040612288D
:1030320083120313AF01B101AD0183160317BA0165
:1030420008000A168A15A9240A168A150A168A1170
:10305200EB200A168A150800F0008312031394135A
:1030620070089300941B362837282E28141608005F
:1030720083120313DE00DD015E1C4028412846282E
:103082005B08DC005C08DD0746280310DB0D03103B
:10309200DE0CDE08031D4E284F283D2850285D080F
:1030A2005228080083120313DC00DD016628DD01CB
:1030B200DD0A71280A30DB005B08DD0071280F3061
:1030C200DB005B08DD00712871285C08003A0319F7
:1030D2005828013A03195B28033A0319602871281A
:1030E2005D087328080083120313E0018A28600830
:1030F200DF005F08DB00DC0102300A128A15E620DD
:103102000A168A15013083120313DF005F08E007F5
:103112008A2847086002031C8F2890287828912863
:103122009B01CF30DF005F089D0508008312031367
:10313200DC006400831603178C18A028A1289A28A3
:10314200A228831203135C08831203178D003F30F9
:1031520083120313DB005B08831603178C050C1420
:1031620003100C18031400300318013083120317E4
:103172000C08BB28080083120313DF005F08DD0080
:10318200DE010130FF000310DD0DDE0DFF0BC42850
:103192005D08143EE0005E080318013E003EE100B7
:1031A200FE30E0050130E1050030E0040630E104C4
:1031B2006108DC01DC076008DB01DB07E0280800AE
:1031C20083120313DC00DD01FD28DD010E2902302C
:1031D200DB005B08DD000E290330DB005B08DD004D
:1031E2000E291230DB005B08DD000E291330DB00F4
:1031F2005B08DD000E290E295C08003A0319E62857
:10320200013A0319E828033A0319ED28013A031990
:10321200F228073A0319F7280E295D081029080039
:10322200FB01FC0183132030840050300A168A15FA
:1032320011200A168A158317A0308400E6300A1678
:103242008A1511200A168A158313A0308400ED30E6
:103252000A168A1511200A168A158317203084004F
:1032620045300A168A1511200A168A150A128A1181
:1032720003200A168A15E40083010A168A159C2E79
:1032820083120313E1004529831603178C184A2978
:103292004B2945294C298312031361088312031712
:1032A2008D00831203135F08831203178C003F30D3
:1032B20083120313E0006008831603178C05831240
:1032C200031303108B1F66296729682903148B13C4
:1032D200831603170C1555308D00AA308D008C14FF
:1032E2000C1183120313031C772978297B298B176E
:1032F2007B297B2908000D3083160317E700003075
:10330200E80067080A168A1597200A168A1583129A
:103312000313E200620883160317E6000130E70791
:103322000318E80A0030E8076608013A03199A29E7
:103332009B29BA2983120313DF0183160317670837
:103342000A168A1541210A168A15013083160317B7
:10335200E7070318E80A0030E80783120313DF01C6
:103362008316031767080A168A1541210A168A1559
:10337200BA29080070087206F0007108F100831281
:103382000313B40108303402031CC829C929CB290C
:10339200FE29FE29701CCE29CF29E5297108F400E7
:1033A2007008F30001300310F40CF30CFF3E031D10
:1033B200D4297308F0007408F10001307006F0009F
:1033C200A0307106F100F4297108F4007008F300CE
:1033D20001300310F40CF30CFF3E031DEA297308BD
:1033E200F0007408F1000130F3007308B4070830EC
:1033F2003402031CFD29FE29CB2908000B1D022AD9
:10340200032A242A8B1E062A072A242AC401C40A54
:103412000130D6005608BC0732302C020318122A9B
:10342200132A182A0130D6005608AC071E2A0A169B
:103432008A1530230A168A151E2A82308312031334
:1034420081020B11242A8C1D272A282A362A8C1144
:10345200831603138C1D2E2A2F2A362A0A168A1146
:1034620013260A168A15362A362A831203135A0895
:10347200FF0059088A0058088400570E8300FE0E88
:103482007E0E0900FF3083160313E800FF30E900C7
:1034920083120313B3017B2A831603136908F10114
:1034A200F1076808F001F007831203133308750768
:1034B200F80076080318013EF900780884008317A3
:1034C200791C83130008FA007A08F2000A168A159A
:1034D200BB210A168A15710883160313E901E9074D
:1034E2007008E801E8070130F80078088312031336
:1034F200B3077B2A77083302031C802A812A4D2ACC
:10350200822A831603136908F601F6076808F50193
:10351200F5078B2A080083120313E0006008C23EFD
:10352200840083130018962A972AB82ADB01DC014B
:1035320001300A128A15E6200A168A155C308312B7
:1035420003139B003030DF005F089D041430DF005E
:103552005F08BE006008DF005F08DB00DC01DC0AF8
:1035620002300A128A15E6200A168A15DB2A83120D
:103572000313DB01DB0ADC0101300A128A15E620A3
:103582000A168A15831203139B01CF30DF005F08EE
:103592009D051430DF005F08BE006008DF005F0891
:1035A200DB00DC01DC0A02300A128A15E6200A1668
:1035B2008A15DB2A080083120313E3010430630235
:1035C200031CE42AE52A122B2F2B2F2B122B6B30F4
:1035D2000A168A15BC200A168A1583120313630879
:1035E200E2006207DA3E84005B0883138000840AEB
:1035F2005C088000242BFD2A6E300A168A15BC2036
:103602000A168A15831203136308E2006207DA3E80
:1036120084005B0883138000840A5C088000242BEA
:10362200242B6308E2006207203E84008313000813
:103632000739003A0319FD2A013A0319FD2A033A10
:103642000319E82A242B0130E2006208E307043060
:103652006302031C2D2B2E2B122B2F2B08007B0811
:103662007C02031C352B362B382BFC01382B7C08B3
:10367200F3007307DA3E840083130008840A00040F
:103682000319442B452B812B7C08F3007307DA3E88
:1036920084000008F400840A0008F500741C522B10
:1036A200532B5C2BF001F00A7C080A168A1547247A
:1036B2000A168A15642BF0017C080A168A1547241B
:1036C2000A168A15642B7C08F3007307DA3E84001D
:1036D20083130008F400840A0008F5000130031087
:1036E200F50CF40CFF3E031D702B7C08F6007607E8
:1036F200DA3E840074088000840A75088000862BF4
:103702000130F3007308FC07862B080083120313B1
:10371200DE00DD0149085E020318902B912B982BE5
:1037220006305E02031C962B972BD92B982B013067
:10373200E62BE62BD92B5E08E23E84008313800839
:10374200031DA42BA52BAC2B7830DC005E08E23ED7
:1037520084005C0880005E08E23E84000008DC0011
:103762005E08E03E84005C0883178000E42B5E085C
:10377200E03E840083178001E42B5E08E03E840073
:10378200831780080319C62BC72BD42B3208013AA2
:10379200031DCC2BCD2BE42B5E08E03E84000130D0
:1037A2008002E42BE42BDD01DD0AE42BE42BE42B85
:1037B2005B08003A03199C2B013A0319B82B033A10
:1037C2000319BE2BE42B5D08E62B080083120313BA
:1037D200DF013F2C5F080A168A11E5210A168A15B5
:1037E20083120313DD005D08DE005F08A03E840043
:1037F2008313000801395E060319002C012C0E2CDC
:103802005F08A03E84005E080010031D00145F08DC
:10381200A03E8400E1308005382C5F08A03E840081
:10382200000C0F39DD0004305D020318192C1A2C2C
:10383200282C5F08A03E8400000C0F39DD00DD0A51
:10384200DD0D00085D06E1395D068000382C5F0859
:10385200A03E84000018312C342C5F08A03E840066
:1038620083138016362C83138012382C382C0130A7
:1038720083120313DD005D08DF073F2C46085F0259
:10388200031C442C452CEB2B462C0800F2008A2CFE
:103892007008031D4D2C512C831203133616982CDD
:1038A200EF30F100710883120313B605982C982C9F
:1038B2007008031D5D2C612C83120313BA17982C18
:1038C2007F30F100710883120313BA05982C982CEB
:1038D2007008031D6D2C712C831203133714982C5E
:1038E200FE30F100710883120313B705982C982C4F
:1038F2007008031D7D2C812C831203133615982C1E
:10390200FB30F100710883120313B605982C982C32
:10391200982C7208003A0319492C013A0319592CC0
:10392200033A0319692C013A0319792C982C831252
:1039320003133508850036088600370887003808E3
:103942008800390889003A0883160317880008009E
:1039520083160317E801052D680A83120313DF009B
:103962000130E0000030E100B92C0310E00DE10D60
:10397200DF0BB62C600883160317E60083120313CD
:10398200610883160317E7006608831203132A05EA
:10399200DF00831603176708831203132B05E00069
:1039A20060085F04031DD62CD72CEB2C3B19DA2CB4
:1039B200DB2CEB2C83160317680883120313DF003A
:1039C2005F08DB00DC0100300A128A15E6200A16C5
:1039D2008A15FC2C83160317680883120313DF0071
:1039E2005F08DB00DC01DC0A00300A128A15E620DF
:1039F2000A168A15FC2C013083120313DF005F08BC
:103A020083160317E807052D83120313480883164C
:103A120003176802031C0E2D0F2DAD2C102D08006C
:103A220083120313DC00DD01532D0430DB005B083D
:103A3200DD00792D0530DB005B08DD00792D0630D5
:103A4200DB005B08DD00792D0730DB005B08DD0061
:103A5200792D0830DB005B08DD00792D0930DB00B1
:103A62005B08DD00792D0B30DB005B08DD00792D72
:103A72000C30DB005B08DD00792D0D30DB005B08CC
:103A8200DD00792D0E30DB005B08DD00792D103072
:103A9200DB005B08DD00792D1130DB005B08DD0007
:103AA200792D792D5C08003A0319162D013A031974
:103AB2001B2D033A0319202D013A0319252D073A2C
:103AC20003192A2D013A03192F2D033A0319342D14
:103AD200013A0319392D0F3A03193E2D013A031900
:103AE200432D033A0319482D013A03194D2D792D1F
:103AF2005D087B2D0800143083120313DB005B0882
:103B0200C6000530DB005B08C1000530DB005B0846
:103B1200C8000330DB005B08C2000330DB005B0837
:103B2200FB000C30DB005B08C3000C30DB005B08E1
:103B3200C7004708DB0003105B0CDC005C08C9000F
:103B420017304602031CA62DA72DAB2D1630DB0025
:103B52005B08C6000E304102031CB02DB12DB52DFD
:103B62000D30DB005B08C1000E304802031CBA2D89
:103B7200BB2DBF2D0D30DB005B08C80005304202B3
:103B8200031CC42DC52DC92D0430DB005B08C20007
:103B920005307B02031CCE2DCF2DD32D0430DB004C
:103BA2005B08FB000D304302031CD82DD92DDD2DFF
:103BB2000C30DB005B08C3000D304702031CE22D12
:103BC200E32DE72D0C30DB005B08C700073049020C
:103BD200031CEC2DED2DF22D0630DB005B08C90035
:103BE200F22D080083160317E801902E680A83124B
:103BF2000313DE000130DF000030E000032E03106B
:103C0200DF0DE00DDE0B002E5F0883160317E600C2
:103C120083120313600883160317E70068080A1665
:103C22008A15E1200A168A1583120313DE005E0844
:103C320083160317E9006908A03E84008313000E6F
:103C420083120313DE00DE0C5E0C0139DF008316E3
:103C520003176908A03E8400000E83120313E000DC
:103C6200600C01395F060319372E382E6E2E83162B
:103C720003176908A03E8400801A402E412E5C2E54
:103C82006908A03E84000013670883120313DF0053
:103C920083160317660883120313DE00DE09DF09A9
:103CA2005E0883160313EA05831203135F08831663
:103CB2000313EB05872E831603176908A03E8400C1
:103CC2000017660883160313EA04831603176708AE
:103CD20083160313EB04872E872E831603176708B8
:103CE20083120313DF00831603176608831203137C
:103CF200DE00DE09DF095E0883160313EA0583127C
:103D020003135F0883160313EB05872E013083121A
:103D12000313DE005E0883160317E807902E831252
:103D220003134108831603176802031C992E9A2E67
:103D3200F72D9B2E08000A168A1545270A168A15A2
:103D42000A168A1116230A168A150A168A151920C6
:103D52000A168A150A168A157C250A168A150A1663
:103D62008A157C210A168A150A128A1538250A161E
:103D72008A150A168A15DC220A168A158B170B1762
:103D8200CC2EFB3083160313ED006D0888058312D9
:103D920003138C10CC2E831203138C18D12ED22E27
:103DA200C22ED42ED42E0A168A157C250A168A15FE
:103DB2000C30831203133C02031CE02EE12E0D2F64
:103DC2000C30BC0265303C02031CE82EE92EEB2EBF
:103DD200BC01EB2E013083160313ED006D08831234
:103DE2000313BF070A168A15E7230A168A158312D8
:103DF20003133E08031DFE2E0D2F0130BE02BE0826
:103E0200031D042F052F0D2F0A168A1574200A167A
:103E12008A150D2F0D2F0D2F0830831203133F0229
:103E2200031C142F152FD42EBF0101308316031348
:103E3200ED006D0883120313BD0719303D02031C08
:103E4200232F242F282FBD01B201B20A282F0A12D4
:103E52008A1507200A168A150A128A1115200A16CF
:103E62008A150A128A15EB220A168A150A168A156B
:103E720022200A168A1583120313B201D42ED42EDD
:103E8200D42E0A128A11122883120313E00104307D
:103E92006002031C4D2F4E2F502F812F812F60085F
:103EA200DF005F07203E840083130008F8390138E1
:103EB20080006008DF005F07203E840087308005B5
:103EC2006008DF005F07203E840080130314600D4A
:103ED200203E840000100314600D203E84008010F8
:103EE2000314600D203E8400E33080050130DF00C2
:103EF2005F08E00704306002031C802F812F502FDF
:103F0200E0010C306002031C872F882F8A2FA32F19
:103F1200A32F6008B63E8400F0308313800560084A
:103F2200B63E840000126008B63E84001F30800551
:103F32000130DF005F08E0070C306002031CA22F93
:103F4200A32F8A2FE0010C306002031CA92FAA2F95
:103F5200AC2FC42FC42F6008C23E84008313001408
:103F62006008C23E840080106008203E84008317EF
:103F720080010130DF005F08E0070C306002031CA3
:103F8200C32FC42FAC2FE00104306002031CCA2FE0
:103F9200CB2FCD2FF82FF82F0330DF005F08DB0087
:103FA20060080A168A1539200A168A15CE3E840040
:103FB20083138001033083120313DF005F08DB00E9
:103FC20060080A168A1539200A168A15023ECE3E64
:103FD200840083138001013083120313DF005F0822
:103FE200E00704306002031CF72FF82FCD2FBB012E
:0E3FF200B501B601B701B801B901BA01080066
:02400E00F2FFBF
:00000001FF
