:100000000A128A1112280534FE00030EF8000408B3
:10001000F9000A08FA00831203137F08FB000A1292
:100020008A1500280A168A155A2B83120313ED012C
:100030006E286D0AE6000130E7000030E800232852
:100040000310E70DE80DE60B20286708E9006808B3
:10005000EA00690883160313560583120313E600AA
:100060006A0883160313570583120313E700670812
:10007000660403193C283D2843286908B4066A0829
:10008000B506432843283B08013A031D4828492860
:10009000672834086905E6006608E0006D080A165E
:1000A0008A1592260A128A11013A031D58285928E6
:1000B0006728831203136A08E7006908E600E60967
:1000C000E7096608B4056708B505672867280130A1
:1000D00083120313E6006608ED076E2852086D02CE
:1000E000031C732874281928ED013B2A6D08E600CB
:1000F0006607E7006708EC006C08013EE60066084A
:10010000EB00AD28982898289828872887286C081D
:10011000B63E8400831300081F39203880006B0826
:10012000B63E840000081F39203880006429642905
:100130006B08B63E84008313000EE600660C073998
:10014000023A03198728013A03198728073A031945
:10015000872864296429642964296C08B63E8400D0
:100160008313000EE600660C0739023A031998283B
:10017000013A03199828073A031998286429642931
:100180006C08203E84008018C628C728E8286B0821
:10019000203E8400801CCD28CE28D3286B08203E2A
:1001A00084008010D328DA016D080A168A156825A4
:1001B0000A128A11DB28831203136C08203E840084
:1001C000831380146C08B63E84001F3080051D2AFE
:1001D000DA01DA0A6D080A168A1568250A128A11E8
:1001E000F128831203136C08203E840083138010CF
:1001F0006C08B63E84001F3080051D2A1D2ADA01D6
:10020000DA0A6D080A168A1568250A128A11082961
:10021000831203136C08203E8400831380146B0840
:10022000203E840080101D2ADA01DA0A6D080A16C1
:100230008A1568250A128A111D29831203136C0876
:10024000203E8400831380106C08B63E84001F306B
:1002500080051D2A6B08203E8400801C302931292E
:1002600036296B08203E840080103629DA016D089B
:100270000A168A1568250A128A113E298312031369
:100280006C08203E8400831380146C08B63E840002
:100290001F3080051D2A0230E6006608DA006D086E
:1002A0000A168A1568250A128A11013A031D59296E
:1002B0005A291D2A831203136C08203E84008313DD
:1002C00080101D2A1D2A1D2A6C08B63E8400000ECF
:1002D000E600660C0739013A03191429033A031999
:1002E000C028013A0319FF28073A03192A294B2984
:1002F0001D2A6B08203E840080187F298029A129AF
:100300006C08203E8400801C862987298C296C0873
:10031000203E840080108C29DA016D080A168A15A7
:1003200068250A128A119429831203136B08203E50
:100330008400831380146B08B63E84001F30800550
:10034000342ADA01DA0A6D080A168A1568250A12B3
:100350008A11AA29831203136B08203E8400831399
:1003600080106B08B63E84001F308005342A342A82
:10037000DA01DA0A6D080A168A1568250A128A1146
:10038000C129831203136B08203E84008313801459
:100390006C08203E84008010342ADA01DA0A6D08E5
:1003A0000A168A1568250A128A11D62983120313A0
:1003B0006B08203E8400831380106B08B63E8400D7
:1003C0001F308005342A6C08203E8400801CE929F7
:1003D000EA29EF296C08203E84008010EF29DA0119
:1003E0006D080A168A1568250A128A11F7298312E0
:1003F00003136B08203E8400831380146B08B63E01
:1004000084001F308005342A0230E6006608DA00D6
:100410006D080A168A1568250A128A11013A031D09
:10042000122A132A342A831203136B08203E8400F5
:1004300083138010342A342A342A831203136B085E
:10044000B63E84008313000EE600660C0739013ABD
:100450000319CD29033A03197929013A0319B82957
:10046000073A0319E329042A013083120313E60033
:100470006608ED073B2A54086D02031C402A412AF6
:100480007628ED01C12C832C9F2C6D08E6000130ED
:100490000310E60DFF3E031D482A0310660DD83EEB
:1004A00084008313800103146D0D2C3E84008012A0
:1004B00003146D0D2C3E8400E33080059F2C6D08E5
:1004C000E60066072C3E840000080739023A03194B
:1004D0006A2A6B2A782A6D08E60066072C3E84009B
:1004E000000807390038031D762A772A892A782AD6
:1004F0006430E6006D08E70001300310E70DFF3EB1
:10050000031D7D2A0310670D013ED83E8400660856
:1005100080006D08E60001300310E60DFF3E031D6C
:100520008C2A0310660D013ED83E84000008803AF4
:100530007F3E03189C2A9D2AAE2A6430E6006D088F
:10054000E70001300310E70DFF3E031DA22A031050
:10055000670D013ED83E8400660880006D08E60005
:1005600001300310E60DFF3E031DB12A0310660D96
:10057000013ED83E84000008E7006D08E800013025
:100580000310E80DFF3E031DC02A0310680DD83E7E
:1005900084006708800003146D0D2C3E84008012D7
:1005A00003146D0D2C3E8400E33080059F2C6D08F4
:1005B000E60066072C3E840000080739023A03195A
:1005C000E22AE32AF02A6D08E60066072C3E840042
:1005D000000807390038031DEE2AEF2A012BF02A04
:1005E0006430E6006D08E70001300310E70DFF3EC0
:1005F000031DF52A0310670D013ED83E84006608EE
:1006000080006D08E60001300310E60DFF3E031D7B
:10061000042B0310660DD83E84000008803A7F3E0C
:10062000031C132B142B272B6D08E600013003103D
:10063000E60DFF3E031D172B0310660DD83E840008
:10064000800103146D0D2C3E840080126E2B6D080A
:10065000E60001300310E60DFF3E031D2A2B0310B8
:10066000660D013ED83E84000008803A7F3E0318A4
:100670003A2B3B2B4C2B6430E6006D08E700013031
:100680000310E70DFF3E031D402B0310670D013ED5
:10069000D83E8400660880006D08E6000130031033
:1006A000E60DFF3E031D4F2B0310660D013ED83EA5
:1006B00084000008E7006D08E80001300310E80D31
:1006C000FF3E031D5E2B0310680DD83E84006708B3
:1006D000800003146D0D2C3E8400801203146D0DF8
:1006E0002C3E8400E33080059F2C6430E6006D08CA
:1006F000E70001300310E70DFF3E031D7A2B0310C6
:10070000670DD83E84006608800003146D0D2C3EF2
:100710008400801603146D0D2C3E8400E3308005A8
:100720009F2C0130E6006608C40704304402031C15
:100730009A2B9B2B9F2CC40103146D0D2C3E84001F
:10074000801AA32BA42BFD2B6D08E60001300310AB
:10075000E60DFF3E031DA72B0310660DD83E840057
:100760000008803A1E3E0318B62BB72BC82B023068
:10077000E6006D08E70001300310E70DFF3E031DA2
:10078000BC2B0310670DD83E840066088007D82B69
:100790006430E6006D08E70001300310E70DFF3E0E
:1007A000031DCD2B0310670DD83E84006608800022
:1007B0006D08E60001300310E60DFF3E031DDB2B44
:1007C0000310660DD83E84000008803A763E031878
:1007D000EA2BEB2B4F2C0A30E6006D08E7000130C6
:1007E0000310E70DFF3E031DF02B0310670DD83EED
:1007F0008400660880004F2C4F2C6D08E600013005
:100800000310E60DFF3E031D002C0310660DD83EBD
:1008100084000008803A7D3E031C0F2C102C212CF4
:10082000FE30E6006D08E70001300310E70DFF3EE3
:10083000031D152C0310670DD83E84006608800741
:100840002E2C6D08E60001300310E60DFF3E031D5F
:10085000242C0310660DD83E840080016D08E6004C
:1008600001300310E60DFF3E031D312C0310660D11
:10087000D83E84000008803A763E0318402C412C74
:100880004F2C6D08E60001300310E60DFF3E031DFE
:10089000442C0310660DD83E840080014F2C6D0857
:1008A000E60001300310E60DFF3E031D522C03103D
:1008B000660DD83E84000008803A753E031C612C0A
:1008C000622C9F2C6D08E60001300310E60DFF3E00
:1008D000031D652C0310660DD83E84000008E70058
:1008E0006D08E80001300310E80DFF3E031D732C76
:1008F0000310680D013ED83E8400670880009F2CDD
:100900009F2C9F2C9F2C03146D0D2C3E8400831371
:10091000000CE600660C0739003A03199F2C013AD7
:100920000319452A033A03195F2A013A0319D72A02
:10093000073A0319752B013A0319912B9F2C6D0867
:10094000E60066072C3E8400831300080739E700A1
:100950006708DA006D08E80001300310E80DFF3E7B
:10096000031DAD2C0310680DD83E0A168A15F72317
:100970000A128A11013083120313E6006608ED079C
:10098000C12C53086D02031CC62CC72C832CC82C09
:1009900008000E3083120313E7000030E800E40182
:1009A000E50167080A168A15D9220A128A118312EC
:1009B0000313E100E2016108E4006208E500013090
:1009C000E7070318E80A0030E80767080A168A15DF
:1009D000D9220A128A1183120313E100E20161088D
:1009E000E200E1016108E4046208E5040130E70780
:1009F0000318E80A0030E807AA306506031D022D37
:100A000055306406031D052D062D032E67080A16B2
:100A10008A15D9220A128A1183120313E100E20116
:100A20006108B4006208B5000130E7070318E80A5E
:100A30000030E80767080A168A15D9220A128A11B7
:100A400083120313E100E2016108E200E1016108A1
:100A5000B4046208B5040130E7070318E80A00305F
:100A6000E807E601922D67080A168A15D9220A12AC
:100A70008A1183120313E1006608E20001300310BB
:100A8000E20DFF3E031D3F2D0310620DD83E840092
:100A90006108831380000130E7070318E80A00307B
:100AA000E80767080A168A15D9220A128A118312E2
:100AB0000313E1006608E20001300310E20DFF3E7F
:100AC000031D5D2D0310620D013ED83E84006108B8
:100AD000831380000130E7070318E80A0030E807B5
:100AE00067080A168A15D9220A128A11831203137B
:100AF000E10007306105E2006608E30063072C3E71
:100B00008400831300086206F83962068000013011
:100B1000E7070318E80A0030E8070130E100610840
:100B2000E607922D53086602031C972D982D332D4E
:100B3000992D2A30E7000030E800E6010630660211
:100B4000031CA32DA42DA62DC62DC62D67080A169D
:100B50008A15D9220A128A1183120313E10066084A
:100B6000CA3E84006108831380000130E707031840
:100B7000E80A0030E8070130E1006108E6070630C6
:100B80006602031CC42DC52DA62DC62D3230E700EC
:100B90000030E800E6010D306602031CD02DD12D97
:100BA000D32DF32DF32D67080A168A15D9220A12C0
:100BB0008A1183120313E1006608CE3E84006108A7
:100BC000831780000130E7070318E80A0030E807C0
:100BD0000130E1006108E6070D306602031CF12DCB
:100BE000F22DD32DF32D4230E7000030E8006708E6
:100BF0000A168A15D9220A128A1183120313E100F8
:100C00006108D600332FDE0167080A168A153224E0
:100C10000A128A11013083120313E7070318E80A46
:100C20000030E807DE0167080A168A1532240A1226
:100C30008A11013083120313E7070318E80A003012
:100C4000E807B401B501E6017E2EDE0167080A1649
:100C50008A1532240A128A11013083120313E7071E
:100C60000318E80A0030E807DE0167080A168A154B
:100C700032240A128A11013083120313E707031882
:100C8000E80A0030E8076608E10001300310E10DD2
:100C9000FF3E031D462E0310610DD83E84008313D2
:100CA00080016608E10001300310E10DFF3E031DE5
:100CB000542E0310610D013ED83E84008001DE01F8
:100CC000DE0A67080A168A1532240A128A110130D0
:100CD00083120313E7070318E80A0030E8076608E1
:100CE000E10061072C3E840083130008F8390138C5
:100CF00080000130E1006108E6077E2E530866029D
:100D0000031C832E842E252E852E2A30E7000030EA
:100D1000E800E60106306602031C8F2E902E922E0C
:100D2000B72EB72E7830E1006108DE0067080A169A
:100D30008A1532240A128A11013083120313E7073D
:100D40000318E80A0030E8077830E1006608CA3E78
:100D500084006108831380000130E1006108E60728
:100D600006306602031CB52EB62E922EB72E3230F8
:100D7000E7000030E800E6010D306602031CC12EDA
:100D8000C22EC42EE32EE32EDE0167080A168A1552
:100D900032240A128A11013083120313E707031861
:100DA000E80A0030E8076608CE3E84008317800119
:100DB0000130E1006108E6070D306602031CE12EF8
:100DC000E22EC42EE32E4230E7000030E800D601C8
:100DD0005608E1006108DE0067080A168A15322409
:100DE0000A128A11013083120313E7070318E80A75
:100DF0000030E8070D30E7000030E800DE01DE0AD1
:100E000067080A168A1532240A128A1101308312E1
:100E10000313E7070318E80A0030E8075530E1003C
:100E20006108DE0067080A168A1532240A128A1140
:100E3000013083120313E7070318E80A0030E807BC
:100E4000AA30E1006108DE0067080A168A1532241C
:100E50000A128A11013083120313E7070318E80A04
:100E60000030E807332F080083120313E101E82F55
:100E700061080A168A1527260A128A11831203139B
:100E8000DD005D08E0006008A03E84008313000ED2
:100E9000DD00DD0C5D0C0139DE006008A03E840041
:100EA000000EDF005F0C01395E060319582F592F21
:100EB0006E2F6008A03E8400801A5F2F602F652F80
:100EC0006008A03E84000013692F6008A03E8400E3
:100ED00000176108B63E8400F03080056008A03E2F
:100EE0008400801A742F752FB92F6108B63E8400D4
:100EF00000080F39DD0006305D020318802F812FB6
:100F00008E2F6108B63E840000080F39DD00DD0A2F
:100F100000085D06F0395D068000922F6108B63E3C
:100F2000840000126108B63E8400001E982F992F9D
:100F3000A42F6108B63E840000081F3940388000A5
:100F40006108B63E840000126108B63E8400000EBF
:100F5000DD005D0C0739033A031DAF2FB02FE32FDF
:100F60006108B63E840000081F3920388000E32F56
:100F7000E32F6108B63E840000080F39DD0006301B
:100F80005D020318C42FC52FD62F6108B63E84001A
:100F900000080F39DD00DD0A00085D06F0395D0646
:100FA00080006108B63E84000016E32F6108B63E5B
:100FB000840000081F39603880006108B63E840054
:100FC0000012E32FE32F0130DD005D08E107E82F79
:100FD0004D086102031CED2FEE2F382FEF2F080074
:100FE0000A168A157D270A128A110A128A153C20D0
:100FF0000A128A110A128A1134270A128A11080069
:101000000B1D032804281D288B1E072808281D28CF
:10101000CE01CE0A0130F7007708C5070130F7008E
:101020007708CA070A168A150B250A128A15823014
:101030008312031381020B111D288C1D20282128E7
:101040002F288C11831603138C1D272828282F285E
:101050000A168A1175260A128A152F282F287B084E
:1010600083120313FF007A088A0079088400780E3F
:101070008300FE0E7E0E090083120313E101C129D5
:1010800061080A168A1570220A128A158312031340
:10109000DD005D08E000AA294D286008A03E84001C
:1010A0008313000EDD00DD0C5D0C0139DE006008ED
:1010B000A03E8400000EDF005F0C01395E060319BC
:1010C00062286328BC296008A03E8400801A692831
:1010D0006A286F286008A03E84000013BC296008BD
:1010E000A03E840000170314610D2C3E840000080C
:1010F000E3390C388000BC29BC29BC296008A03E1B
:101100008400000EDD00DD0C5D0C0139DE0060089E
:10111000A03E8400000EDF005F0C01395E0603195B
:1011200092289328AA286008A03E8400801A992853
:101130009A289F286008A03E84000013A328600816
:10114000A03E840000176108DD005D072C3E84008E
:10115000873080056008A03E8400801AB028B1283E
:1011600054296108DD005D072C3E8400000CDE0080
:10117000DE0C5E0C0F39DF0006305F020318C12859
:10118000C228E6286108DD005D072C3E8400000CC3
:10119000DE00DE0C5E0C0F39DE00DE0ADE0DDE0D39
:1011A000DE0D00085E0687395E0680006108DD00FE
:1011B0005D072C3E8400801FDE28DF28F6280314FC
:1011C000610D2C3E84000014F628F6286108DD002D
:1011D0005D072C3E840080130314610D2C3E8400B7
:1011E00000100314610D2C3E840080106108DD00A6
:1011F0005D072C3E8400801FFE28FF280D29031464
:10120000610D2C3E84000008E3390C388000610831
:10121000DD005D072C3E840080130314610D2C3E1D
:101220008400801C142915292D290314610D2C3EDE
:1012300084000008E339103880006108DD005D0794
:101240002C3E840080130314610D2C3E840000109A
:101250000314610D2C3E840080100314610D2C3E9C
:101260008400000CDD005D0C0739053A031D3929A7
:101270003A29BC290314610D2C3E8400E33080051B
:101280000314610D2C3E8400000EDD005D0C01395D
:10129000DD000130DD06DD0EDD0D00085D06DF3905
:1012A0005D068000BC29BC296108DD005D072C3E7D
:1012B0008400000CDE00DE0C5E0C0F39DF0006300F
:1012C0005F020318642965298E296108DD005D0726
:1012D0002C3E8400000CDE00DE0C5E0C0F39DE00BC
:1012E000DE0ADE0DDE0DDE0D00085E0687395E06C5
:1012F00080006108DD005D072C3E84008017031428
:10130000610D2C3E8400001C86298729BC2903140A
:10131000610D2C3E84008014BC29BC290314610D8E
:101320002C3E84000008E339143880006108DD0099
:101330005D072C3E840080130314610D2C3E840055
:1013400000100314610D2C3E84008010BC29BC29C0
:10135000BC29BC296108DD005D072C3E8400831395
:1013600000080739003A03194D28013A03197E286D
:10137000033A03194D28BC290130DD005D08E1075F
:10138000C1294C086102031CC629C7294028C82965
:10139000080083120313E401B22B6408E10001305A
:1013A0000310E10DFF3E031DD0290310610D033E24
:1013B000D83E8400831380080319DF29E029AD2B70
:1013C0006408E10001300310E10DFF3E031DE32935
:1013D0000310610D033ED83E84000008E20064085B
:1013E000E30001300310E30DFF3E031DF22903105B
:1013F000630D023ED83E8400620880076408E10065
:1014000001300310E10DFF3E031D012A0310610DA1
:10141000033ED83E84000008803A7F3E031C112A18
:10142000122A622A6408E10001300310E10DFF3E38
:10143000031D152A0310610D023ED83E84000008EA
:10144000803AE2006408E30001300310E30DFF3E40
:10145000031D252A0310630DD83E84000008803A3E
:10146000E202031C342A352AB12A6408E100013063
:101470000310E10DFF3E031D382A0310610DD83E15
:1014800084000008E2006408E30001300310E30D6B
:10149000FF3E031D462A0310630D023ED83E840022
:1014A000620880006408E10001300310E10DFF3E96
:1014B000031D552A0310610D033ED83E84008001B0
:1014C000B12AB12A6408E10001300310E10DFF3EAA
:1014D000031D652A0310610DD83E84000008803A80
:1014E000E2006408E30001300310E30DFF3E031D3A
:1014F000742A0310630D023ED83E84000008803A2F
:10150000E202031C842A852AB12A6408E100013022
:101510000310E10DFF3E031D882A0310610DD83E24
:1015200084000008E2006408E30001300310E30DCA
:10153000FF3E031D962A0310630D023ED83E840031
:10154000620880006408E10001300310E10DFF3EF5
:10155000031DA52A0310610D033ED83E84008001BF
:10156000B12A6408E10001300310E10DFF3E031DC4
:10157000B42A0310610D023ED83E84000008803A70
:101580001B3E031CC42AC52AD62A6430E100640825
:10159000E20001300310E20DFF3E031DCA2A0310D2
:1015A000620D023ED83E8400610880006408E100BC
:1015B00001300310E10DFF3E031DD92A0310610D18
:1015C000023ED83E8400801FE62AE72AF62A6408F5
:1015D000E10001300310E10DFF3E031DEA2A031074
:1015E000610D023ED83E84008001F62A4219F92A94
:1015F000FA2A9A2B5D2B5D2B6408E1000130031061
:10160000E10DFF3E031DFF2A0310610D023ED83E8F
:1016100084000008803A6C3E03180F2B102B242BFB
:101620006A300A168A15B4220A128A158312031325
:101630006408E1006107C23E84005A0883138000F9
:10164000840A5B088000AD2B6B300A168A15B42221
:101650000A128A15831203136408E1006107C23E6F
:1016600084005A0883138000840A5B088000AD2B35
:10167000AD2B3A2B6408E10001300310E10DFF3E71
:10168000031D3D2B0310610D023ED83E840000086F
:101690006E3E0A168A15B4220A128A1583120313A3
:1016A0006408E2006207C23E84005A088313800087
:1016B000840A5B088000AD2BAD2B6408E100610754
:1016C0002C3E840000080739003A03193A2B013AEE
:1016D00003193A2B033A0319FC2AAD2BAD2B9A2B95
:1016E0006B300A168A15B4220A128A158312031364
:1016F0006408E1006107C23E84005A088313800039
:10170000840A5B088000AD2B852BD2300A168A151F
:10171000B4220A128A15831203136408E1006107D8
:10172000C23E84005A0883138000840A5B0880004C
:10173000AD2BAD2B6408E10061072C3E840000084E
:101740000739003A0319852B013A0319852B033A0F
:101750000319702BAD2BAD2BAD2B0130E1006108CF
:10176000E407B22B53086402031CB72BB82BCD2916
:10177000B92B080083120313DD009F2D5C2C5B083E
:10178000031DC32BC52B3C14B02DFE30DC005C08C0
:10179000BC05B02DB02D5B08031DCF2BD12BBC1485
:1017A000B02DFD30DC005C08BC05B02DB02D5B0811
:1017B000031DDB2BDD2B3C15B02DFB30DC005C0862
:1017C000BC05B02DB02D5B08031DE72BE92BC0161F
:1017D000B02DDF30DC005C08C005B02DB02D5B08FB
:1017E000031DF32BF52B4017B02DBF30DC005C0838
:1017F000C005B02DB02D5B08031DFF2B012C3D153E
:10180000B02DFB30DC005C08BD05B02DB02D5B08B1
:10181000031D0B2C0D2C3D15B02DFB30DC005C089E
:10182000BD05B02DB02D5B08031D172C192C3D15DF
:10183000B02DFB30DC005C08BD05B02DB02D5B0881
:10184000031D232C252C3D15B02DFB30DC005C083E
:10185000BD05B02DB02D5B08031D2F2C312C3D157F
:10186000B02DFB30DC005C08BD05B02DB02D5B0851
:10187000031D3B2C3D2C3D15B02DFB30DC005C08DE
:10188000BD05B02DB02D5B08031D472C492C3D151F
:10189000B02DFB30DC005C08BD05B02DB02D5B0821
:1018A000031D532C552C3D15B02DFB30DC005C087E
:1018B000BD05B02DB02DB02D5A08003A0319BF2B2D
:1018C000013A0319CB2B033A0319D72B013A031919
:1018D000E32B073A0319EF2B013A0319FB2B033AC9
:1018E0000319072C013A0319132C0F3A03191F2C63
:1018F000013A03192B2C033A0319372C013A031927
:10190000432C073A03194F2CB02DB02D8F2CFD30EE
:10191000DC005C08BF05B02DBF14B02DB02D5A08F7
:10192000003A0319872C013A03198C2CB02DB02DE5
:101930002A2D5B08031D9D2C9F2CBC15B02DF73064
:10194000DC005C08BC05B02DB02D5B08031DA92C84
:10195000AB2C3C16B02DEF30DC005C08BC05B02D84
:10196000B02D5B08031DB52CB72CBC16B02DDF3095
:10197000DC005C08BC05B02DB02D5B08031DC12C3C
:10198000C32C4014B02DFE30DC005C08C005B02D27
:10199000B02D5B08031DCD2CCF2CC014B02DFD3015
:1019A000DC005C08C005B02DB02D5B08031DD92CF0
:1019B000DB2C4015B02DFB30DC005C08C005B02DE1
:1019C000B02D5B08031DE52CE72C4016B02DEF3041
:1019D000DC005C08C005B02DB02D5B08031DF12CA8
:1019E000F32CC017B02D7F30DC005C08C005B02D93
:1019F000B02D5B08031DFD2CFF2C4116B02DEF30E0
:101A0000DC005C08C105B02DB02D5B08031D092D5D
:101A10000B2DC116B02DDF30DC005C08C105B02DE8
:101A2000B02D5B08031D152D172D4117B02DBF30AC
:101A3000DC005C08C105B02DB02D5B08031D212D15
:101A4000232DBE14B02DFD30DC005C08BE05B02D8A
:101A5000B02DB02D5A08003A0319992C013A0319F8
:101A6000A52C033A0319B12C013A0319BD2C073AEE
:101A70000319C92C013A0319D52C033A0319E12C97
:101A8000013A0319ED2C0F3A0319F92C013A031905
:101A9000052D033A0319112D013A03191D2DB02DFF
:101AA000B02D832D5B08031D562D582D3D16B02DEE
:101AB000EF30DC005C08BD05B02DB02D5B08031DC8
:101AC000622D642DC117B02D7F30DC005C08C1058C
:101AD000B02DB02D5B08031D6E2D702D3E14B02D62
:101AE000FE30DC005C08BE05B02DB02D5B08031D88
:101AF0007A2D7C2D3D15B02DFB30DC005C08BD053A
:101B0000B02DB02DB02D5A08003A0319522D013ACC
:101B100003195E2D033A03196A2D013A0319762D34
:101B2000B02DB02D5B08031D962D982DBF15B02D3F
:101B3000F730DC005C08BF05B02DB02DB02D5D087E
:101B4000003A03195C2C013A03198F2C033A03194C
:101B50002A2D013A0319832D073A0319922DB02D2E
:101B60003C0885003D0886003E0887003F08880045
:101B7000400889004108831603178800080083166F
:101B800003173A08031DC52D9B2F892F892F3C0869
:101B900083120313B404831603173E08831203133E
:101BA000B504831603173D0883120313E800831658
:101BB00003173B0883120313E700E709E8096708E6
:101BC000B4056808B505EC01EB01EB0A04306C02C2
:101BD000031CEB2DEC2DEE2D262E262E831603173F
:101BE0004008831203136B050319F72DF82D022EFD
:101BF00003146C0D2C3E840083130008E33908386D
:101C00008000022E831603173F08831203136B050F
:101C100003190B2E0C2E162E03146C0D2C3E840073
:101C200083130008E33904388000162E0130E700E2
:101C30006708EC076B08E7006707E8006808EB0037
:101C400004306C02031C252E262EEE2DEC01EB0138
:101C5000EB0A06306C02031C2E2E2F2E312E732E13
:101C6000732E6C08E7006707E8006808EA006A0856
:101C7000013EE7006708E900831603174108831255
:101C800003136B050319452E462E4F2E6A08B63EE8
:101C90008400831300081F3980388000632E831668
:101CA00003174208831203136B050319582E592E8C
:101CB000632E6908B63E8400831300081F398038FC
:101CC0008000632E632E0130E7006708EC076B0885
:101CD000E7006707E8006808EB0006306C02031CA9
:101CE000722E732E312E83160317BA019B2F831287
:101CF0000313EC0104306C02031C7F2E802E822E15
:101D0000CF2ECF2E6C08E70067072C3E840083138C
:101D100000080739E8006C08013EBA3E84008317CA
:101D20000008073968060319962E972EC32E6C08F3
:101D3000013EBA3E840007300005E7006C08E80069
:101D400068072C3E8400831300086706F83967068D
:101D500080006C08013EBA3E840083170008E7004B
:101D60006708DE000330E8006808DA006C080A162D
:101D70008A1556220A128A15143E0A168A1532242A
:101D80000A128A15C32E013083120313E700670875
:101D9000EC0704306C02031CCE2ECF2E822E83164D
:101DA0000317BA019B2F83120313EC010D306C0251
:101DB000031CDB2EDC2EDE2E142F142F6C08013EAC
:101DC000BA3E840083170008E7006C08CE3E84000A
:101DD000000867060319ED2EEE2E082F6C08013E51
:101DE000BA3E84000008E7006C08CE3E8400670815
:101DF00080006C08CE3E84000008E7006708DE0023
:101E00006C08323E0A168A1532240A128A15082FE7
:101E1000013083120313E7006708EC070D306C02F2
:101E2000031C132F142FDE2E83160317BA019B2FCA
:101E300083120313EC0106306C02031C202F212FA8
:101E4000232F5C2F5C2F6C08013EBA3E8400831761
:101E50000008E7006C08CA3E840083130008670688
:101E60000319332F342F502F6C08013EBA3E8400E3
:101E700083170008E7006C08CA3E840067088313D4
:101E800080006C08CA3E84000008E7006708DE0096
:101E90006C082A3E0A168A1532240A128A15502F17
:101EA000013083120313E7006708EC0706306C0269
:101EB000031C5B2F5C2F232F83160317BA019B2F64
:101EC000831203134218652F662F792F8316031789
:101ED0003B0883120313E7006708C200421C712FFE
:101EE000722F822F0A168A1165200A128A15822FF4
:101EF000822F831603173B0883120313E70067083A
:101F0000C200822F83160317BA019B2FBA019B2FA1
:101F10009B2F3A08013A0319C72D033A0319772E6C
:101F2000013A0319D32E073A0319182F013A03195E
:101F3000602F862F9B2F831203133B08013A031D4A
:101F4000A22FA32FAE2F4F08031DA72FAB2F59127F
:101F50000130CF02AE2F5916AE2FAE2FD908031D78
:101F6000B22FB32FC62F143049020318B82FB92F40
:101F7000C22FF730E7006708BF050130E7006708A8
:101F8000C907FF2FBF15C901FF2FFF2F591EC92FEA
:101F9000CA2FE42F143049020318CF2FD02FD52F8A
:101FA000F730E7006708BF05D72FBF15D72F0130DF
:101FB000E7006708C90728304902031CE02FE12F1A
:101FC000FF2FC901FF2FFF2F0A3049020318E92F05
:101FD000EA2FEF2FF730E7006708BF05F12FBF1595
:101FE000F12F0130E7006708C90714304902031CCC
:101FF000FA2FFB2FFF2FC901FF2FFF2FFF2F080004
:10200600F20046287008031D09280D2883120313C1
:102016003D165428EF30F100710883120313BD05F5
:10202600542854287008031D19281D2883120313E9
:10203600C11754287F30F100710883120313C105BC
:10204600542854287008031D29282D2883120313A9
:102056003E145428FE30F100710883120313BE05A6
:10206600542854287008031D39283D288312031369
:102076003D155428FB30F100710883120313BD058A
:102086005428542854287208003A03190528013A9E
:1020960003191528033A03192528013A0319352887
:1020A6005428831203133C0885003D0886003E0829
:1020B60087003F08880040088900410883160317F7
:1020C60088000800103083120313E5000030E60094
:1020D6003408E1006108E3006308E1006108DE00FE
:1020E60065080A168A1532240A168A1101308312E7
:1020F6000313E5070318E60A0030E6073508E10092
:102106006108E3006308E1006108DE0065080A165D
:102116008A1532240A168A11013083120313E50741
:102126000318E60A0030E607E401E3286408E10044
:1021360001300310E10DFF3E031D9C280310610DC5
:10214600D83E840083130008E2006208DE006508BA
:102156000A168A1532240A168A11013083120313CD
:10216600E5070318E60A0030E6076408E1000130D7
:102176000310E10DFF3E031DBB280310610D013E58
:10218600D83E840083130008E2006208DE0065087A
:102196000A168A1532240A168A110130831203138D
:1021A600E5070318E60A0030E6070130E5070318DD
:1021B600E60A0030E6070130E1006108E407E3289B
:1021C60053086402031CE828E9289928EA284230C3
:1021D600E5000030E60065080A168A15D9220A16B7
:1021E6008A11013E83120313E1006108D5005508E8
:1021F600FF3A031DFF2800290329D501D50A032923
:102206005508E1006108DE0065080A168A153224C1
:102216000A168A1108000A168A11C0220A168A119D
:102226000A168A11FC240A168A110A168A153422FD
:102236000A168A110A168A1506270A168A110A1616
:102246008A158A230A168A110A128A11C9240A16BD
:102256008A110A168A15BF230A168A118B170B17BD
:102266004029FB3083120313EE006E088316031316
:102276008805831203138C104029831203138C18CC
:10228600452946293429482948290A168A15062740
:102296000A168A110C30831203134502031C5429B3
:1022A60055297D290C30C50265304502031C5C2981
:1022B6005D295F29C5015F290130EE006E08C80758
:1022C6000A168A15C7250A168A11831203134708A8
:1022D600031D6E297D290130C702C708031D742915
:1022E60075297D290A168A1591220A168A117D29D1
:1022F6007D297D293C30831203134A02031C84295D
:10230600852995293C30CA0265304A02031C8C296E
:102316008D298F29CA018F290A128A15C9210A1601
:102326008A1195290830831203134802031C9C293D
:102336009D294829C8010130EE006E08C6071930EC
:102346004602031CA729A829AC29C601BB01BB0A62
:10235600AC290A128A11F0270A168A110A128A1162
:1023660015200A168A110A128A15BF250A168A111D
:102376000A168A153F220A168A1183120313BB0115
:102386004829482948290A128A1112288312031358
:10239600C21CCE29CF29D129BF2ABF2A05306F02F8
:1023A6000318D629D729DC290130E0006008EF0799
:1023B600DC29E101B82A05306F02031CE329E42970
:1023C600B12A6108203E84008313000C0139E00025
:1023D6006108203E84000008013960060319F429CB
:1023E600F529B12A6118F829F929442A6108203EFD
:1023F6008400801CFF29002A442A6108013E203EF1
:102406008400001C072A082A282A6108013E203E6B
:10241600840080106108013E203E84008018182A3E
:102426001B2A6108013E203E8400831300141D2AE6
:102436008313001083120313EF016108013E0A168D
:102446008A15BB240A168A11BF2A83120313610850
:10245600203E840083138018342A372A6108203EE0
:10246600840083130014392A831300108312031384
:10247600EF0161080A168A15BB240A168A11BF2ABB
:10248600BF2A611C472A482A932A6108203E8400F5
:10249600801C4E2A4F2A932A6108FF3E203E840064
:1024A600001C562A572A772A6108FF3E203E8400E0
:1024B60080106108FF3E203E84008018672A6A2A41
:1024C6006108FF3E203E8400831300146C2A8313A8
:1024D600001083120313EF016108FF3E0A168A15E6
:1024E600BB240A168A11BF2A831203136108203EF1
:1024F600840083138018832A862A6108203E84007C
:1025060083130014882A8313001083120313EF0128
:1025160061080A168A15BB240A168A11BF2ABF2A21
:10252600831203136108203E8400831380189F2AB8
:10253600A22A6108203E840083130014A42A831370
:10254600001083120313EF0161080A168A15BB24D3
:102556000A168A11BF2ABF2ABF2AB12A013083125E
:102566000313E0006008E107B82A51086102031C62
:10257600BD2ABE2ADE29BF2A080083120313CE0114
:10258600C801C501C901B401B50183160313D601FB
:10259600D70183120313DB0116305B02031CD42A16
:1025A600D52AD72AF32AF32A5B08A03E8400831390
:1025B60000105B08A03E8400E13080055B08A03E69
:1025C600840080125B08A03E840000130130DA000C
:1025D6005A08DB0716305B02031CF22AF32AD72AB5
:1025E600DB0104305B02031CF92AFA2AFC2A2D2B94
:1025F6002D2B5B08DA005A072C3E84008313000853
:10260600F839013880005B08DA005A072C3E84004E
:10261600873080055B08DA005A072C3E8400801359
:1026260003145B0D2C3E8400001003145B0D2C3E3E
:102636008400801003145B0D2C3E8400E33080057B
:102646000130DA005A08DB0704305B02031C2C2B2E
:102656002D2BFC2ADB010C305B02031C332B342BA5
:10266600362B4F2B4F2B5B08B63E8400F03083137E
:1026760080055B08B63E840000125B08B63E840007
:102686001F3080050130DA005A08DB070C305B0288
:10269600031C4E2B4F2B362BDB010C305B02031C2D
:1026A600552B562B582B702B702B5B08203E840025
:1026B600831300145B08203E840080105B08DB3E19
:1026C6008400831780010130DA005A08DB070C30DA
:1026D6005B02031C6F2B702B582BDB0104305B0253
:1026E600031C762B772B792BAD2BAD2B5B08DA00F1
:1026F60001300310DA0DFF3E031D7C2B03105A0D2B
:10270600D83E8400831380015B08DA000130031091
:10271600DA0DFF3E031D8A2B03105A0D023ED83EEA
:10272600840080015B08DA0001300310DA0DFF3EF9
:10273600031D982B03105A0D033ED83E84008001DA
:102746000130DA005A08DB0704305B02031CAC2BAD
:10275600AD2B792BC201BC01BD01BE01BF01C00179
:10276600C1010230DA005A08D000CB01CB0AD201EF
:10277600D20ACC01CC0AD301D30A0230DA005A08B5
:10278600CD000230DA005A08D100D401D40A08007C
:1027960083120313DA00DB01A92C061CD32BD42BDE
:1027A600ED2CDB01DB0AED2CED2C83160317881DBF
:1027B600DD2BDE2BED2C83120313DB01DB0AED2C64
:1027C600ED2C83160317081DE92BEA2BED2C83123B
:1027D6000313DB01DB0AED2CED2C83160317881C93
:1027E600F52BF62BED2C83120313DB01DB0AED2C04
:1027F600ED2C83160317081C012C022CED2C8312DA
:102806000313DB01DB0AED2CED2C83160317891E5F
:102816000D2C0E2CED2C83120313DB01DB0AED2CA1
:10282600ED2C83160317091E192C1A2CED2C831276
:102836000313DB01DB0AED2CED2C83160317891D30
:10284600252C262CED2C83120313DB01DB0AED2C41
:10285600ED2C83160317091D312C322CED2C831217
:102866000313DB01DB0AED2CED2C83160317891C01
:102876003D2C3E2CED2C83120313DB01DB0AED2CE1
:10288600ED2C83160317091C492C4A2CED2C8312B8
:102896000313DB01DB0AED2CED2C881F532C542C83
:1028A600ED2CDB01DB0AED2CED2C081F5B2C5C2CE0
:1028B600ED2CDB01DB0AED2CED2C881E632C642C41
:1028C600ED2CDB01DB0AED2CED2C081E6B2C6C2CA1
:1028D600ED2CDB01DB0AED2CED2C871E732C742C02
:1028E600ED2CDB01DB0AED2CED2C071E7B2C7C2C62
:1028F600ED2CDB01DB0AED2CED2C081C832C842C43
:10290600ED2CDB01DB0AED2CED2C871D8B2C8C2CA2
:10291600ED2CDB01DB0AED2CED2C071D932C942C02
:10292600ED2CDB01DB0AED2CED2C861C9B2C9C2C64
:10293600ED2CDB01DB0AED2CED2C861CA32CA42C44
:10294600ED2CDB01DB0AED2CED2CED2C5A08003AC0
:102956000319D02B013A0319D82B033A0319E42B98
:10296600013A0319F02B073A0319FC2B013A031914
:10297600082C033A0319142C013A0319202C0F3A98
:1029860003192C2C013A0319382C033A0319442C49
:10299600013A0319502C073A0319582C013A031926
:1029A600602C033A0319682C013A0319702C1F3A5C
:1029B6000319782C013A0319802C033A0319882C41
:1029C600013A0319902C073A0319982C013A031976
:1029D600A02CED2C83120313DB08031DF32CF42C1F
:1029E600F72CDB01DB0AF92CDB01F92C5B08FB2C4D
:1029F600080083160313910103308312031787001F
:102A0600831603138F010C30831203139D005C3071
:102A16009B003030DA005A089D04F9308316031300
:102A26009200831203138C10831603138C10043048
:102A360083120313920083308316031381008230BE
:102A46008312031381000B118B16163083120317A2
:102A56008900C03083120313DA005A088316031361
:102A660087042230930094018312031394013630B5
:102A760094008C11831603138C1506148316031702
:102A86008515051585140514871607168715071568
:102A96008714071483160313881708178816081651
:102AA6008716071608148715071586148614F73037
:102AB60083120313DA005A08831603138805FE30BF
:102AC60083120313DA005A08831603138505FD30B3
:102AD60083120313DA005A08831603138505FB30A5
:102AE60083120313DA005A08831603138505DF30B1
:102AF60083120313DA005A08831603138905BF30BD
:102B060083120313DA005A08831603138905FB3070
:102B160083120313DA005A08831603138605FB3063
:102B260083120313DA005A08831603138605FB3053
:102B360083120313DA005A08831603138605FB3043
:102B460083120313DA005A08831603138605FB3033
:102B560083120313DA005A08831603138605FB3023
:102B660083120313DA005A08831603138605FB3013
:102B760083120313DA005A08831603138605FB3003
:102B860083120313DA005A08831603138605081501
:102B9600FD3083120313DA005A08831603138805DF
:102BA600F73083120313DA005A08831603138505D8
:102BB600EF3083120313DA005A08831603138505D0
:102BC600DF3083120313DA005A08831603138505D0
:102BD600FE3083120313DA005A088316031389059D
:102BE600FD3083120313DA005A088316031389058E
:102BF600FB3083120313DA005A0883160313890580
:102C0600EF3083120313DA005A088316031389057B
:102C16007F3083120313DA005A08831603138905DB
:102C2600EF3083120313DA005A088316031785055B
:102C3600DF3083120313DA005A088316031785055B
:102C4600BF3083120313DA005A088316031785056B
:102C5600FD3083120313DA005A088316031387051F
:102C6600EF3083120313DA005A088316031386051E
:102C76007F3083120313DA005A088316031785057B
:102C8600FE3083120313DA005A08831603138705EE
:102C9600FB3083120313DA005A08831603138605E2
:102CA600EF3083120313DA005A08BD057F30DA00CD
:102CB6005A08C105FE30DA005A08BE05FB30DA00B4
:102CC6005A08BD053C0885003D0886003E08870079
:102CD6003F088800400889004108831603178800CA
:102CE60064000800831603131408F1007108FC0041
:102CF6003C30F100710883120313CF00FC1A842EB6
:102D0600852EB32E7C19882E892EB32E7C1C8C2EF4
:102D16008D2EB32EFC1D902E912EB32E64008312A1
:102D2600031343161430F1007108B7000A168A150A
:102D360027220A168A11F100710883120317A000D0
:102D460083120313B801FD01FD0AD801D901141F2E
:102D5600AD2EAE2EFF2FD915D9141413FF2FFF2F2A
:102D6600FC1EB62EB72E8A2F7C19BA2EBB2E8A2FA2
:102D76007C1CBE2EBF2E8A2F7D08143A031DC42E3E
:102D8600C52ECC2E5915D9141330F1007108FD004B
:102D9600CC2E141FCF2ED02ED42ED915D914141301
:102DA600D42E0A168A1527220A168A11F1007D08E2
:102DB600203E84007108831780007D08203E840031
:102DC6000008F100710883120313B8077D08013A61
:102DD600031DEE2EEF2E342F0E2F0E2F0A30F1008C
:102DE6007108B700222F0A30F1007108B700222FB0
:102DF6001230F1007108B700222F0A30F100710875
:102E0600B700222F0330F1007108B700222F5915A1
:102E1600D914222F222F7D08203E84000008013A73
:102E26000319F12E033A0319F62E013A0319FB2E64
:102E3600073A0319002F013A0319052F0A2F7D08B7
:102E4600203E84000008F1007108D800D91315301F
:102E56003702031C2F2F302F852F5915D914852F94
:102E6600852F7D0837020318392F3A2F3D2F591524
:102E7600D914852F7D083706031D422F432F852F32
:102E86003808031D472F4A2F5914D914852F591076
:102E960083160317BA08031D512F522F7C2FF201F8
:102EA600F20AF301722F7308143A031D5B2F5C2F8D
:102EB6005F2F0130F3025F2F7208203E8400000866
:102EC600F1007308BA3E8400710880000130F100F9
:102ED6007108F2070130F1007108F307722F7208CA
:102EE6007D020318772F782F562F83120313D910DC
:102EF600852F83120313D914852F852F852F852FB0
:102F0600852F852F0130F1007108FD07FF2FFC1A70
:102F16008D2F8E2FA62F7C1D912F922FA62F7C18DA
:102F2600952F962FA62FFC1D992F9A2FA62FB90104
:102F36005808F1007108BA0058080A168A154A227C
:102F46000A168A11FF2FFC1EA92FAA2FEB2F7C1D14
:102F5600AD2FAE2FEB2F7C18B12FB22FEB2FE02F1A
:102F6600E02F59080A168A154A220A168A11831270
:102F760003135908F1007108BA070130F10071080E
:102F8600B907FF2FBA090130F1007108BA073A08EC
:102F96000A168A154A220A168A110130F1007108AA
:102FA60083120313B907FF2FD91755300A168A154E
:102FB6004A220A168A11FF2FFF2F8312031339089C
:102FC600003A0319B42F013A0319C52FD72FFF2F43
:102FD600FC1EEE2FEF2FFF2F7C19F22FF32FFF2F62
:102FE6007C18F62FF72FFF2F43126400FF2FFF2FB9
:0A2FF600FF2FFF2FFF2FFF2F080011
:10344E008312031313082B2A080064008001840AD8
:10345E0004060319003404062D2AFD0183120313FA
:10346E00B901B601BA01B80183160317BA010800F3
:10347E000A168A156D240A168A150A168A11C9218A
:10348E000A168A150800F0008312031394137008AD
:10349E009300941B532A542A4B2A141608008312A5
:1034AE000313DD00DC015D1C5D2A5E2A632A5A08C7
:1034BE00DB005B08DC07632A0310DA0D0310DD0C5A
:1034CE00DD08031D6B2A6C2A5A2A6D2A5C086F2AA6
:1034DE00080083120313DB00DC01832ADC01DC0A03
:1034EE008E2A0A30DA005A08DC008E2A0F30DA00F3
:1034FE005A08DC008E2A8E2A5B08003A0319752AB8
:10350E00013A0319782A033A03197D2A8E2A5C0898
:10351E00902A080083120313DF01A72A5F08DE003A
:10352E005E08DA00DB0102300A128A15BA230A1687
:10353E008A15013083120313DE005E08DF07A72A07
:10354E0051085F02031CAC2AAD2A952AAE2A9B01B4
:10355E00CF30DE005E089D05080083120313DE00E7
:10356E005E08DC00DD010130FF000310DC0DDD0D17
:10357E00FF0BBC2A5C08143EDF005D080318013EF9
:10358E00003EE000FE30DF050130E0050030DF04D4
:10359E000630E0046008DB01DB075F08DA01DA07BA
:1035AE00D82A080083120313DB0064008316031766
:1035BE008C18E22AE32ADC2AE42A831203135B081E
:1035CE00831203178D003F3083120313DA005A085B
:1035DE00831603178C050C1403100C1803140030FB
:1035EE0003180130831203170C08FD2A08008312FA
:1035FE000313DE01DF01032B5A1C062B072B0D2BA9
:10360E005C08DE070318DF0A5D08DF0701300310D0
:10361E00DC0DDD0DFF3E031D0E2B01300310DB0C08
:10362E00DA0CFF3E031D152B5B085A04031D202BDD
:10363E00212B032B222B5F08DB01DB075E08DA014F
:10364E00DA07292B080083120313DB00DC01462B5B
:10365E00DC01572B0230DA005A08DC00572B0330FE
:10366E00DA005A08DC00572B1230DA005A08DC0058
:10367E00572B1330DA005A08DC00572B572B5B08F8
:10368E00003A03192F2B013A0319312B033A031970
:10369E00362B013A03193B2B073A0319402B572BB4
:1036AE005C08592B0800FC01FD01831320308400B7
:1036BE005A300A168A152C220A168A158317A0303C
:1036CE008400E7300A168A152C220A168A158313EF
:1036DE00A0308400E8300A168A152C220A168A15A4
:1036EE0083172030840034300A168A152C220A16CD
:1036FE008A150A128A1103200A168A15EF00830111
:10370E000A168A110E290D3083120313E3000030BE
:10371E00E40063080A168A15D9220A168A1583123E
:10372E000313E1006108E2000130E3070318E40A25
:10373E000030E4076208013A0319A62BA72BBE2B13
:10374E00DE0163080A168A1532240A168A1501301C
:10375E0083120313E3070318E40A0030E407DE01C3
:10376E0063080A168A1532240A168A15BE2B08001B
:10377E0083120313E30104306302031CC72BC82B0F
:10378E00CA2BF62BF62B6308E10001300310E10D76
:10379E00FF3E031DCD2B0310610D023ED83E84006B
:1037AE00831300080A168A15B4220A168A15831284
:1037BE0003136308E2006207C23E84005A088313B3
:1037CE008000840A5B0880000130E1006108E30795
:1037DE0004306302031CF42BF52BCA2BF62B0800C6
:1037EE0083120313DD005D08840083130008803A02
:1037FE001B3E031C032C042C0A2C6430DB005D08DA
:10380E0084005B0880005D088400801F0F2C102C44
:10381E00132C5D08840080015D08023E84000008C0
:10382E00DB005D08840000085B0603191F2C202CAA
:10383E00312C5D0884000008DB005D08023E840028
:10384E000003FF3A5B07DC005D08033E84005C0862
:10385E008000312C080083120313E000362C8316EF
:10386E0003178C183B2C3C2C362C3D2C8312031347
:10387E006008831203178D00831203135E088312F0
:10388E0003178C003F3083120313DF005F0883168B
:10389E0003178C058312031303108B1F572C582C00
:1038AE00592C03148B13831603170C1555308D00EA
:1038BE00AA308D008C140C1183120313031C682C78
:1038CE00692C6C2C8B176C2C6C2C08008312031338
:1038DE00E301B32C630ADE000130DF000030E000AC
:1038EE007B2C0310DF0DE00DDE0B782C5F08E10062
:1038FE006008E20061083405DE0062083505DF006D
:10390E005F085E04031D8C2C8D2C9D2C4219902C6F
:10391E00912C9D2C6308DE005E08DA00DB0100307E
:10392E000A128A15BA230A168A15AC2C83120313AF
:10393E006308DE005E08DA00DB01DB0A00300A12E3
:10394E008A15BA230A168A15AC2C0130831203137A
:10395E00DE005E08E307B32C52086302031CB82C8A
:10396E00B92C712CBA2C080083120313DF005F08E8
:10397E00203E840083130018C52CC62CE72CDA01D8
:10398E00DB0101300A128A15BA230A168A155C3039
:10399E00831203139B003030DE005E089D0414304A
:1039AE00DE005E08C7005F08DE005E08DA00DB019D
:1039BE00DB0A02300A128A15BA230A168A150A2D54
:1039CE0083120313DA01DA0ADB0101300A128A15B7
:1039DE00BA230A168A15831203139B01CF30DE0019
:1039EE005E089D051430DE005E08C7005F08DE002D
:1039FE005E08DA00DB01DB0A02300A128A15BA23EE
:103A0E000A168A150A2D080083120313530857024B
:103A1E00031C122D132D152DD701152D5708F3004C
:103A2E007307C23E840083130008840A000403193E
:103A3E00212D222D622D5708F3007307C23E8400FC
:103A4E000008F400840A0008F500741C2F2D302D98
:103A5E00392DF001F00A57080A168A1103200A16AA
:103A6E008A15432DF0018312031357080A168A1183
:103A7E0003200A168A15432D831203135708F300E9
:103A8E007307C23E840083130008F400840A000802
:103A9E00F50001300310F50CF40CFF3E031D512D03
:103AAE005708F6007607C23E840074088000840A28
:103ABE0075088000672D0130F3007308D707672D56
:103ACE00080083120313DD00DC0154085D020318A5
:103ADE00712D722D792D06305D02031C772D782DF8
:103AEE00B92D792D0130C62DC62DB92D5D08CA3ED2
:103AFE00840083138008031D852D862D8D2D78302F
:103B0E00DB005D08CA3E84005B0880005D08CA3E8B
:103B1E0084000008DB005D08D03E84005B08800056
:103B2E00C42D5D08D03E840083138001C42D5D0832
:103B3E00D03E8400831380080319A62DA72DB42D23
:103B4E003B08013A031DAC2DAD2DC42D5D08D03EB2
:103B5E00840001308002C42DC42DDC01DC0AC42D8A
:103B6E00C42DC42D5A08003A03197D2D013A0319AC
:103B7E00982D033A03199E2DC42D5C08C62D0800FE
:103B8E0083120313DE011F2E5E080A168A11CB2341
:103B9E000A168A1583120313DC005C08DD005E082A
:103BAE00A03E84008313000801395D060319E02D41
:103BBE00E12DEE2D5E08A03E84005D080010031D71
:103BCE0000145E08A03E8400E1308005182E5E08C9
:103BDE00A03E8400000C0F39DC0004305C02031898
:103BEE00F92DFA2D082E5E08A03E8400000C0F3928
:103BFE00DC00DC0ADC0D00085C06E1395C068000A6
:103C0E00182E5E08A03E84000018112E142E5E0899
:103C1E00A03E840083138016162E83138012182E56
:103C2E00182E013083120313DC005C08DE071F2EF2
:103C3E0050085E02031C242E252ECB2D262E0800A6
:103C4E0083120313DB00DC01692E0430DA005A08FC
:103C5E00DC008F2E0530DA005A08DC008F2E06307D
:103C6E00DA005A08DC008F2E0730DA005A08DC0022
:103C7E008F2E0830DA005A08DC008F2E0930DA0059
:103C8E005A08DC008F2E0B30DA005A08DC008F2E1B
:103C9E000C30DA005A08DC008F2E0D30DA005A088C
:103CAE00DC008F2E0E30DA005A08DC008F2E10301A
:103CBE00DA005A08DC008F2E1130DA005A08DC00C8
:103CCE008F2E8F2E5B08003A03192C2E013A031902
:103CDE00312E033A0319362E013A03193B2E073AB9
:103CEE000319402E013A0319452E033A03194A2EA1
:103CFE00013A03194F2E0F3A0319542E013A0319A4
:103D0E00592E033A03195E2E013A0319632E8F2E94
:103D1E005C08912E080083120313E500E40152089B
:103D2E00650203189B2E9C2EA32E0D306502031CDC
:103D3E00A12EA22EA62EA32E6408052F052FE00875
:103D4E00031DAA2EAB2EB72E6508E1006107A03E1B
:103D5E008400003083178000840A00308000032F17
:103D6E006508E1006107A03E840083170008840AFD
:103D7E0000040319C32EC42EE12E6508E10061076D
:103D8E00A03E840001308002840F0030031C8003AB
:103D9E00800284036508E1006107A03E84000008EC
:103DAE00840A0004031DDC2EDD2E032FE401E40A39
:103DBE00032F032F6508CE3E84000008E100E201C8
:103DCE006108DA006208DB003C30DC000030DD0008
:103DDE000A168A15FE220A168A158312031365081F
:103DEE00E3006307A03E84005A0883178000840A0C
:103DFE005B088000032F032F6408052F0800143082
:103E0E0083120313DA005A08D0000530DA005A087C
:103E1E00CB000530DA005A08D2000330DA005A0817
:103E2E00CC000330DA005A08D3000C30DA005A08FE
:103E3E00CD000C30DA005A08D1005108DA00031018
:103E4E005A0CDB005B08D40017305002031C302FD5
:103E5E00312F352F1630DA005A08D0000E304B02B3
:103E6E00031C3A2F3B2F3F2F0D30DA005A08CB00A0
:103E7E000E305202031C442F452F492F0D30DA000D
:103E8E005A08D20005304C02031C4E2F4F2F532FD1
:103E9E000430DA005A08CC0005305302031C582FA8
:103EAE00592F5D2F0430DA005A08D3000D304D0221
:103EBE00031C622F632F672F0C30DA005A08CD00D7
:103ECE000D305102031C6C2F6D2F712F0C30DA0048
:103EDE005A08D10007305402031C762F772F7C2FFF
:103EEE000630DA005A08D4007C2F08008312031320
:103EFE00E201F82F620ADD000130DE000030DF0043
:103F0E008B2F0310DE0DDF0DDD0B882F5E08E0001A
:103F1E005F08E10062080A168A152A230A168A1516
:103F2E0083120313DD005D08E3006308A03E8400E6
:103F3E008313000EDD00DD0C5D0C0139DE0063081D
:103F4E00A03E8400000EDF005F0C01395E060319EF
:103F5E00B12FB22FDF2F6308A03E8400801AB82F36
:103F6E00B92FCE2F6308A03E840000136108DE0037
:103F7E006008DD00DD09DE095D0883160313D60532
:103F8E00831203135E0883160313D705F12F8312D2
:103F9E006308A03E84000017600883160313D6043E
:103FAE0083120313610883160313D704F12FF12F25
:103FBE0083126108DE006008DD00DD09DE095D08A0
:103FCE0083160313D605831203135E088316031399
:103FDE00D705F12F013083120313DD005D08E207D0
:103FEE00F82F4B086202031CFD2FFE2F812FFF2F8F
:023FFE000800B9
:02400E00F2FFBF
:00000001FF
