:020000040000FA
:100000000A128A1112280534FE00030EF8000408B3
:10001000F9000A08FA00831203137F08FB000A168E
:100020008A11E02A0A128A11D92F83120313E901D7
:100030006628690AE2000130E3000030E40023286A
:100040000310E30DE40DE20B20286308E5006408CB
:10005000E60065082805E20066082905E300630854
:1000600062040319342835283B286508AA06660867
:10007000AB063B283B282C08013A031D40284128A9
:100080005F282A086505E2006208DC0069080A1694
:100090008A11D1260A128A11013A031D50285128CB
:1000A0005F28831203136608E3006508E200E20993
:1000B000E3096208AA056308AB055F285F280130E1
:1000C00083120313E2006208E90766284008690208
:1000D000031C6B286C281928E901EF296908E20044
:1000E0006207E3006308E8006808013EE200620876
:1000F000E700A1288E288E287D286808B63E840057
:10010000831300083F39403880006708B63E8400FA
:1001100000083F3940388000392939296708B63E40
:1001200084008313000EE200E20C620C0339023AF1
:1001300003197D28013A03197D28392939293929DC
:1001400039296808B63E84008313000EE200E20CF1
:10015000620C0339023A03198E28013A03198E28DA
:10016000392939296808C23E84008018B828B9287E
:10017000DB286708C23E8400801CBF28C028C52831
:100180006708C23E84008010D329D60169080A1688
:100190008A11D7240A128A11CD2883120313680802
:1001A000C23E8400831380146808B63E84003F304A
:1001B0008005D329D329D6010314D60D69080A1660
:1001C0008A11D7240A128A11E528831203136808BA
:1001D000C23E8400831380106808B63E84003F301E
:1001E0008005D329D329D6010314D60D69080A1630
:1001F0008A11D7240A128A11FD2883120313680872
:10020000C23E8400831380146708C23E84008010BD
:10021000D329D6010314D60D69080A168A11D724EA
:100220000A128A111329831203136808C23E84003C
:10023000831380106808B63E84003F308005D329C0
:100240000230E2006208D60069080A168A11D72433
:100250000A128A11013A031D2E292F29D32983124C
:1002600003136808C23E840083138010D329D32966
:10027000D3296808B63E8400000EE200E20C620C4E
:100280000339013A03190929033A0319B228013A3B
:100290000319F3282029D3296708C23E8400801857
:1002A0005229532975296808C23E8400801C5929A7
:1002B0005A295F296808C23E84008010E829D601C7
:1002C00069080A168A11D7240A128A11672983122B
:1002D00003136708C23E8400831380146708B63E88
:1002E00084003F308005E829E829D6010314D60DA3
:1002F00069080A168A11D7240A128A117F298312E3
:1003000003136708C23E8400831380106708B63E5B
:1003100084003F308005E829E829D6010314D60D72
:1003200069080A168A11D7240A128A11972983129A
:1003300003136708C23E8400831380146808C23E1A
:1003400084008010E829D6010314D60D69080A1626
:100350008A11D7240A128A11AD2983120313670860
:10036000C23E8400831380106708B63E84003F308D
:100370008005E8290230E2006208D60069080A1602
:100380008A11D7240A128A11013A031DC829C929E2
:10039000E829831203136708C23E84008313801088
:1003A000E829E829E829831203136708B63E840088
:1003B0008313000EE200E20C620C0339013A0319C8
:1003C000A329033A03194C29013A03198D29BA29A3
:1003D000013083120313E2006208E907EF294108A4
:1003E0006902031CF429F5296E28E901CF2B972B0C
:1003F000AE2BAE2B6908E2006207203E8400831317
:100400000018032A042A152A6430E2006908E30070
:1004100001300310E30DFF3E031D092A0310630D95
:10042000013E463E8400620880006908E200013017
:100430000310E20DFF3E031D182A0310620D463E15
:1004400084000008803A7F3E031C272A282A3B2A82
:100450006908E20001300310E20DFF3E031D2B2A64
:100460000310620D463E840080010314690D203E96
:1004700084008011822A6908E20001300310E20D35
:10048000FF3E031D3E2A0310620D013E463E8400DE
:100490000008803A7F3E03184E2A4F2A602A6430B3
:1004A000E2006908E30001300310E30DFF3E031D85
:1004B000542A0310630D013E463E8400620880000A
:1004C0006908E20001300310E20DFF3E031D632ABC
:1004D0000310620D013E463E84000008E3006908F7
:1004E000E40001300310E40DFF3E031D722A0310E7
:1004F000640D463E8400630880000314690D203EAD
:10050000840080110314690D203E8400F8308005BA
:10051000AE2B6430E2006908E30001300310E30D04
:10052000FF3E031D8E2A0310630D463E84006208C1
:1005300080000314690D203E840080150314690DAA
:10054000203E8400F8308005AE2B0130E2006208C6
:10055000B30704303302031CAE2AAF2AAE2BB3011B
:100560000314690D203E84008019B72AB82A112B84
:100570006908E20001300310E20DFF3E031DBB2AB3
:100580000310620D463E84000008803A1D3E0318A9
:10059000CA2ACB2ADC2A0130E2006908E3000130D4
:1005A0000310E30DFF3E031DD02A0310630D463EEA
:1005B000840062088007EC2A6430E2006908E300E6
:1005C00001300310E30DFF3E031DE12A0310630D0C
:1005D000463E8400620880006908E2000130031092
:1005E000E20DFF3E031DEF2A0310620D463E84001C
:1005F0000008803A763E0318FE2AFF2A632B0A3051
:10060000E2006908E30001300310E30DFF3E031D23
:10061000042B0310630D463E840062088000632BA8
:10062000632B6908E20001300310E20DFF3E031D59
:10063000142B0310620D463E84000008803A7E3E73
:10064000031C232B242B352BFF30E2006908E30029
:1006500001300310E30DFF3E031D292B0310630D32
:10066000463E840062088007422B6908E2000130A0
:100670000310E20DFF3E031D382B0310620D463EB2
:10068000840080016908E20001300310E20DFF3EA2
:10069000031D452B0310620D463E84000008803A7E
:1006A000763E0318542B552B632B6908E20001306A
:1006B0000310E20DFF3E031D582B0310620D463E52
:1006C00084008001632B6908E20001300310E20D11
:1006D000FF3E031D662B0310620D463E840000089A
:1006E000803A6B3E031C752B762BAE2B6908E2001B
:1006F00001300310E20DFF3E031D792B0310620D44
:10070000463E84000008E3006908E400013003105D
:10071000E40DFF3E031D872B0310640D013E463E92
:10072000840063088000AE2BAE2BAE2BAE2B0314DF
:10073000690D203E8400831300080739003A03192D
:10074000AE2B013A0319AE2B033A0319FA29013AE9
:100750000319892A073A0319A52AAE2B6908E20072
:100760006207203E84000030831300180130D60059
:100770006908E30001300310E30DFF3E031DBB2BAE
:100780000310630D463E0A168A1165230A128A1168
:10079000013083120313E2006208E907CF2B7C08C3
:1007A0006902031CD42BD52B972BD62B0800831260
:1007B0000313D900BC2D792C5708031DE02BE22B25
:1007C0002D14CD2DFE30D8005808AD05CD2DCD2DE2
:1007D0005708031DEC2BEE2BAD14CD2DFD30D800AA
:1007E0005808AD05CD2DCD2D5708031DF82BFA2B3C
:1007F0002D15CD2DFB30D8005808AD05CD2DCD2DB4
:100800005708031D042C062CB116CD2DDF30D8005F
:100810005808B105CD2DCD2D5708031D102C122CD5
:100820003117CD2DBF30D8005808B105CD2DCD2DB5
:100830005708031D1C2C1E2C2E15CD2DFB30D80067
:100840005808AE05CD2DCD2D5708031D282C2A2C78
:100850002E15CD2DFB30D8005808AE05CD2DCD2D51
:100860005708031D342C362C2E15CD2DFB30D80007
:100870005808AE05CD2DCD2D5708031D402C422C18
:100880002E15CD2DFB30D8005808AE05CD2DCD2D21
:100890005708031D4C2C4E2C2E15CD2DFB30D800A7
:1008A0005808AE05CD2DCD2D5708031D582C5A2CB8
:1008B0002E15CD2DFB30D8005808AE05CD2DCD2DF1
:1008C0005708031D642C662C2E15CD2DFB30D80047
:1008D0005808AE05CD2DCD2D5708031D702C722C58
:1008E0002E15CD2DFB30D8005808AE05CD2DCD2DC1
:1008F000CD2D5608003A0319DC2B013A0319E82BD9
:10090000033A0319F42B013A0319002C073A03198F
:100910000C2C013A0319182C033A0319242C013A20
:100920000319302C0F3A03193C2C013A0319482CB7
:10093000033A0319542C013A0319602C073A03199E
:100940006C2CCD2DCD2DAC2CFD30D8005808B00529
:10095000CD2DB014CD2DCD2D5608003A0319A42C61
:10096000013A0319A92CCD2DCD2D472D5708031D74
:10097000BA2CBC2CAD15CD2DF730D8005808AD05DC
:10098000CD2DCD2D5708031DC62CC82C2D16CD2DD1
:10099000EF30D8005808AD05CD2DCD2D5708031DDB
:1009A000D22CD42CAD16CD2DDF30D8005808AD0593
:1009B000CD2DCD2D5708031DDE2CE02C3114CD2D6F
:1009C000FE30D8005808B105CD2DCD2D5708031D98
:1009D000EA2CEC2CB114CD2DFD30D8005808B1050F
:1009E000CD2DCD2D5708031DF62CF82C3115CD2D0E
:1009F000FB30D8005808B105CD2DCD2D5708031D6B
:100A0000022D042D3116CD2DEF30D8005808B10538
:100A1000CD2DCD2D5708031D0E2D102DB117CD2D29
:100A20007F30D8005808B105CD2DCD2D5708031DB6
:100A30001A2D1C2D3216CD2DEF30D8005808B205D6
:100A4000CD2DCD2D5708031D262D282DB216CD2DC9
:100A5000DF30D8005808B205CD2DCD2D5708031D25
:100A6000322D342D3217CD2DBF30D8005808B205A5
:100A7000CD2DCD2D5708031D3E2D402DAF14CD2D6E
:100A8000FD30D8005808AF05CD2DCD2DCD2D560801
:100A9000003A0319B62C013A0319C22C033A031980
:100AA000CE2C013A0319DA2C073A0319E62C013A45
:100AB0000319F22C033A0319FE2C013A03190A2DEB
:100AC0000F3A0319162D013A0319222D033A03197F
:100AD0002E2D013A03193A2DCD2DCD2DA02D5708DD
:100AE000031D732D752D2E16CD2DEF30D80058080F
:100AF000AE05CD2DCD2D5708031D7F2D812DB217AD
:100B0000CD2D7F30D8005808B205CD2DCD2D5708FA
:100B1000031D8B2D8D2D2F14CD2DFE30D8005808A0
:100B2000AF05CD2DCD2D5708031D972D992D2E15D1
:100B3000CD2DFB30D8005808AE05CD2DCD2DCD2DB7
:100B40005608003A03196F2D013A03197B2D033A19
:100B50000319872D013A0319932DCD2DCD2D57085B
:100B6000031DB32DB52DB015CD2DF730D800580885
:100B7000B005CD2DCD2DCD2D5908003A0319792C76
:100B8000013A0319AC2C033A0319472D013A031912
:100B9000A02D073A0319AF2DCD2D2D0885002E0865
:100BA00086002F0887003008880031088900320845
:100BB000831603178800080083120313E0015A2FDD
:100BC0006008DD0001300310DD0DFF3E031DE32D45
:100BD00003105D0D033E463E840083138008031915
:100BE000F22DF32D552F6008DD0001300310DD0DCF
:100BF000FF3E031DF62D03105D0D033E463E8400AF
:100C00000008DE006008DF0001300310DF0DFF3E4A
:100C1000031D052E03105F0D023E463E84005E0854
:100C200080076008DD0001300310DD0DFF3E031D6D
:100C3000142E03105D0D033E463E84000008803AEA
:100C40007F3E031C242E252E752E6008DD0001300A
:100C50000310DD0DFF3E031D282E03105D0D023E27
:100C6000463E84000008803ADE006008DF00013064
:100C70000310DF0DFF3E031D382E03105F0D463EAF
:100C800084000008803ADE02031C472E482EC42E42
:100C90006008DD0001300310DD0DFF3E031D4B2E0B
:100CA00003105D0D463E84000008DE006008DF0092
:100CB00001300310DF0DFF3E031D592E03105F0DA1
:100CC000023E463E84005E0880006008DD00013080
:100CD0000310DD0DFF3E031D682E03105D0D033E66
:100CE000463E84008001C42EC42E6008DD00013021
:100CF0000310DD0DFF3E031D782E03105D0D463EF3
:100D000084000008803ADE006008DF000130031034
:100D1000DF0DFF3E031D872E03105F0D023E463E92
:100D200084000008803ADE02031C972E982EC42E01
:100D30006008DD0001300310DD0DFF3E031D9B2E1A
:100D400003105D0D463E84000008DE006008DF00F1
:100D500001300310DF0DFF3E031DA92E03105F0DB0
:100D6000023E463E84005E0880006008DD000130DF
:100D70000310DD0DFF3E031DB82E03105D0D033E75
:100D8000463E84008001C42E6008DD00013003105F
:100D9000DD0DFF3E031DC72E03105D0D023E463ED6
:100DA00084000008803A1B3E031CD72ED82EE92E63
:100DB0006430DD006008DE0001300310DE0DFF3E10
:100DC000031DDD2E03105E0D023E463E84005D08CD
:100DD00080006008DD0001300310DD0DFF3E031DC3
:100DE000EC2E03105D0D023E463E8400801FF92E5E
:100DF000FA2E082F6008DD0001300310DD0DFF3EE4
:100E0000031DFD2E03105D0D023E463E8400800151
:100E10006008DD005D07203E8400001C102F112FAC
:100E2000332F6008DD0001300310DD0DFF3E031D90
:100E3000142F03105D0D023E463E840000086E3EF6
:100E40000A168A1170220A128A118312031360088B
:100E5000DE005E07DA3E8400560883138000840AB1
:100E600057088000552F6008DD0001300310DD0DAC
:100E7000FF3E031D362F03105D0D023E463E8400EB
:100E800000080A168A1170220A128A1183120313AB
:100E90006008DE005E07DA3E840056088313800097
:100EA000840A57088000552F552F0130DD005D085A
:100EB000E0075A2F7C086002031C5F2F602FE02D93
:100EC000612F0800143083120313D6005608BE00A9
:100ED0000530D6005608BA000530D6005608C000C6
:100EE0000330D6005608BB000330D6005608FC007D
:100EF0000C30D6005608BC000C30D6005608BF0097
:100F00003F08D6000310560CD7005708C100173011
:100F10003E02031C8C2F8D2F912F1630D6005608C1
:100F2000BE000E303A02031C962F972F9B2F0D30D8
:100F3000D6005608BA000E304002031CA02FA12F85
:100F4000A52F0D30D6005608C00005303B02031C0B
:100F5000AA2FAB2FAF2F0430D6005608BB000530A8
:100F60007C02031CB42FB52FB92F0430D6005608CD
:100F7000FC000D303C02031CBE2FBF2FC32F0C30D2
:100F8000D6005608BC000D303F02031CC82FC92FE5
:100F9000CD2F0C30D6005608BF0007304102031C8D
:100FA000D22FD32FD82F0630D6005608C100D82F05
:100FB0000800FC01FD0183132030840056300A161E
:100FC0008A1103220A128A118317A0308400C730C5
:100FD0000A168A1103220A128A118313A030840090
:100FE000EE300A168A1103220A128A110A128A1195
:100FF00003200A128A11EB0083010A168A11462F78
:10100000FF3FFF3FFF3F0530831203136B020318BE
:101010000A280B2810280130DC005C08EB07102898
:10102000DD01492805306B02031C172818284228C7
:101030005D08C23E84008313000C0139DC005D08AA
:10104000C23E8400000801395C06031928282928BB
:1010500042285D08C23E84008018322835285D0889
:10106000C23E8400831300143728831300108312B8
:101070000313EB015D080A168A1126240A128A1549
:1010800050284228013083120313DC005C08DD077E
:1010900049283F085D02031C4E284F28122850287B
:1010A000080083120313DD0106295D080A168A1160
:1010B000F9250A128A1583120313D9005908DC0096
:1010C0005C08A03E84008313000ED900D90C590C93
:1010D0000139DA005C08A03E8400000EDB005B0CE6
:1010E00001395A060319752876288B285C08A03E1A
:1010F0008400801A7C287D2882285C08A03E840019
:10110000001386285C08A03E840000175D08B63EE8
:101110008400E13080055C08A03E8400801A91289C
:101120009228D8285D08B63E8400000C0F39D900FB
:101130000630590203189D289E28AC285D08B63E4B
:101140008400000C0F39D900D90AD90D00085906BE
:10115000E13959068000B0285D08B63E840080124F
:101160005D08B63E8400801EB628B728C2285D08F8
:10117000B63E840000083F39803880005D08B63EE6
:10118000840080125D08B63E8400000ED900D90CA0
:10119000590C0339033A031DCE28CF2801295D08D5
:1011A000B63E840000083F394038800001290129FB
:1011B0005D08B63E8400000C0F39D9000630590294
:1011C0000318E328E428F6285D08B63E8400000CE6
:1011D0000F39D900D90AD90D00085906E139590645
:1011E00080005D08B63E8400801601295D08B63E89
:1011F0008400C03080045D08B63E8400801201295E
:1012000001290130D9005908DD0706293C085D0293
:10121000031C0B290C2955280D29080010308312B6
:101220000313DE000030DF002A08D9005908DC0073
:101230005C08D9005908D6005E080A168A11A02356
:101240000A128A15013083120313DE070318DF0A1E
:101250000030DF072B08D9005908DC005C08D900F2
:101260005908D6005E080A168A11A0230A128A15A8
:10127000013083120313DE070318DF0A0030DF0793
:10128000DB010314DB0DDC01DD019D295D08D900C4
:101290005907203E84008313001C4F2950295429EC
:1012A0005B08D9005908DC045B08D9005907DA004B
:1012B0005A08DB005D08D90001300310D90DFF3E4C
:1012C000031D5D290310590D463E84000008DA0015
:1012D0005A08D6005E080A168A11A0230A128A1537
:1012E000013083120313DE070318DF0A0030DF0723
:1012F0005D08D90001300310D90DFF3E031D7B2985
:101300000310590D013E463E840083130008DA00A5
:101310005A08D6005E080A168A11A0230A128A15F6
:10132000013083120313DE070318DF0A0030DF07E2
:101330000130D9005908DD079D297C085D02031C96
:10134000A229A3294629A4295C08D9005908D60056
:101350005E080A168A11A0230A128A150130831228
:101360000313DE070318DF0A0030DF074308013EDE
:10137000D9005908C2004208FF3A031DC029C129FB
:10138000C529C2010314C20DC5294208D900590854
:10139000D6005E080A168A11A0230A128A150800D0
:1013A000103083120313DD000030DE005D080A16E2
:1013B0008A1195220A128A1583120313D800D901C3
:1013C0005808AA005908AB000130DD070318DE0AEF
:1013D0000030DE075D080A168A1195220A128A1566
:1013E00083120313D800D9015808D900D80158082E
:1013F000AA045908AB040130DD070318DE0A0030E7
:10140000DE077C08D800D9010130FF000310D80D99
:10141000D90DFF0B062A5808123EDD0059080318A3
:10142000013E003EDE005D080A168A1195220A126E
:101430008A1583120313D8005808DA00DB0103145D
:10144000DB0D1230DD000030DE00DC01852A5A0899
:101450005B0503192C2A2D2A352A5C08D800580769
:10146000203E8400831300143D2A5C08D8005807EE
:10147000203E8400831300103D2A5B08D8005807E3
:10148000D9005908DB005D080A168A1195220A1254
:101490008A1583120313D8005C08D90001300310A9
:1014A000D90DFF3E031D4F2A0310590D463E8400FF
:1014B0005808831380000130DD070318DE0A00306E
:1014C000DE075D080A168A1195220A128A15831210
:1014D0000313D8005C08D90001300310D90DFF3E7A
:1014E000031D6D2A0310590D013E463E8400580825
:1014F000831380000130DD070318DE0A0030DE07A9
:101500000130D8005808DC07852A7C085C02031CDF
:101510008A2A8B2A272A8C2A0130DD070318DE0A43
:101520000030DE075D080A168A1195220A128A1514
:1015300083120313D8005808C30008008312031352
:10154000BD01B701B401B801AA01AB01A801A9010D
:10155000DF0116305F02031CAE2AAF2AB12ACD2A62
:10156000CD2A5F08A03E8400831300105F08A03ED0
:101570008400E13080055F08A03E840080125F088F
:10158000A03E840000130130DD005D08DF07163047
:101590005F02031CCC2ACD2AB12ADF0104305F028E
:1015A000031CD32AD42AD62A062B062B5F08DD007B
:1015B0005D07203E8400831300105F08DD005D0797
:1015C000203E8400E13080055F08DD005D07203E9D
:1015D000840080125F08DD005D07203E8400001358
:1015E0005F08DD005D07203E8400801303145F0D5B
:1015F000203E8400F83080050130DD005D08DF0703
:1016000004305F02031C052B062BD62ADF010C30A9
:101610005F02031C0C2B0D2B0F2B2C2B2C2B5F088C
:10162000B63E8400831300105F08B63E8400E130AC
:1016300080055F08B63E840080125F08B63E8400D5
:101640003F3080050130DD005D08DF070C305F02B0
:10165000031C2B2B2C2B0F2BDF010C305F02031CE8
:10166000322B332B352B4C2B4C2B5F08C23E840086
:10167000831300145F08C23E840080105F08CE3ED2
:10168000840080010130DD005D08DF070C305F025F
:10169000031C4B2B4C2B352BDF0104305F02031C4A
:1016A000522B532B552BA92BA92B5F08DD000130A2
:1016B0000310DD0DFF3E031D582B03105D0D463E4C
:1016C0008400831380015F08DD0001300310DD0D0D
:1016D000FF3E031D662B03105D0D023E463E840057
:1016E00080015F08DD0001300310DD0DFF3E031DAA
:1016F000742B03105D0D033E463E840080015F089D
:10170000DD0001300310DD0DFF3E031D822B0310B1
:101710005D0D023E463E840000080A168A117022C2
:101720000A128A15831203135F08DE005E07DA3E91
:101730008400560883138000840A57088000013013
:10174000DD005D08DF0704305F02031CA82BA92B16
:10175000552B2014221424142614AD01AE01AF0120
:10176000B001B101B2010230DD005D08BE00BA0176
:101770000314BA0DC0010314C00DBB010314BB0D4B
:10178000FC010314FC0D0230DD005D08BC000230DA
:10179000DD005D08BF00C1010314C10D0800831204
:1017A0000313D600D701C32C061CD72BD82B072D2B
:1017B000D7010314D70D072D072D83160317881D96
:1017C000E22BE32B072D83120313D7010314D70D4C
:1017D000072D072D83160317081DEF2BF02B072D60
:1017E00083120313D7010314D70D072D072D83167A
:1017F0000317881CFC2BFD2B072D83120313D70125
:101800000314D70D072D072D83160317081C092C69
:101810000A2C072D83120313D7010314D70D072DAC
:10182000072D83160317891E162C172C072D8312DC
:101830000313D7010314D70D072D072D83160317A4
:10184000091E232C242C072D83120313D701031404
:10185000D70D072D072D83160317891D302C312C2A
:10186000072D83120313D7010314D70D072D072D5E
:1018700083160317091D3D2C3E2C072D83120313DD
:10188000D7010314D70D072D072D83160317891CC5
:101890004A2C4B2C072D83120313D7010314D70DA9
:1018A000072D072D83160317091C572C582C072DBD
:1018B00083120313D7010314D70D072D072D881F9B
:1018C000622C632C072DD7010314D70D072D072D8C
:1018D000081F6B2C6C2C072DD7010314D70D072D77
:1018E000072D881E742C752C072DD7010314D70DD6
:1018F000072D072D081E7D2C7E2C072DD7010314E4
:10190000D70D072D072D871E862C872C072DD70175
:101910000314D70D072D072D071E8F2C902C072D94
:10192000D7010314D70D072D072D081C982C992CCF
:10193000072DD7010314D70D072D072D871DA12CC7
:10194000A22C072DD7010314D70D072D072D071D36
:10195000AA2CAB2C072DD7010314D70D072D072D6B
:10196000861CB32CB42C072DD7010314D70D072DDB
:10197000072D861CBC2CBD2C072DD7010314D70DB9
:10198000072D072D072D5608003A0319D42B013ACD
:101990000319DD2B033A0319EA2B013A0319F72B3C
:1019A000073A0319042C013A0319112C033A0319BD
:1019B0001E2C013A03192B2C0F3A0319382C013A2B
:1019C0000319452C033A0319522C013A03195F2CD1
:1019D000073A0319682C013A0319712C033A0319C9
:1019E0007A2C013A0319832C1F3A03198C2C013AE3
:1019F0000319952C033A03199E2C013A0319A72CBD
:101A0000073A0319B02C013A0319B92C072D831298
:101A10000313D708031D0D2D0E2D122DD70103140E
:101A2000D70D142DD701142D5708162D0800831635
:101A300003139101033083120317870083160313E6
:101A40008F010C30831203139D005C309B003030FB
:101A5000D60056089D04F9308316031392008312B2
:101A600003138C10831603138C100430831203139A
:101A70009200833083160313810082308312031394
:101A800081000B118B161630831203178900831601
:101A900003130614831603178515051585140514FD
:101AA000871607168715071587140714831603135F
:101AB000881708178816081687160716081487153A
:101AC000071586148614F73083120313D6005608C0
:101AD000831603138805FE3083120313D6005608BD
:101AE000831603138505FD3083120313D6005608B1
:101AF000831603138505FB3083120313D6005608A3
:101B0000831603138505DF3083120313D6005608AE
:101B1000831603138905BF3083120313D6005608BA
:101B2000831603138905FB3083120313D60056086E
:101B3000831603138605FB3083120313D600560861
:101B4000831603138605FB3083120313D600560851
:101B5000831603138605FB3083120313D600560841
:101B6000831603138605FB3083120313D600560831
:101B7000831603138605FB3083120313D600560821
:101B8000831603138605FB3083120313D600560811
:101B9000831603138605FB3083120313D600560801
:101BA0008316031386050815FD3083120313D60030
:101BB0005608831603138805F73083120313D600E3
:101BC0005608831603138505EF3083120313D600DE
:101BD0005608831603138505DF3083120313D600DE
:101BE0005608831603138505FE3083120313D600AF
:101BF0005608831603138905FD3083120313D6009C
:101C00005608831603138905FB3083120313D6008D
:101C10005608831603138905EF3083120313D60089
:101C200056088316031389057F3083120313D600E9
:101C30005608831603138905EF3083120313D60069
:101C40005608831603178505DF3083120313D60069
:101C50005608831603178505BF3083120313D60079
:101C60005608831603178505FD3083120313D6002B
:101C70005608831603138705EF3083120313D6002B
:101C800056088316031386057F3083120313D6008C
:101C90005608831603178505FE3083120313D600FA
:101CA0005608831603138705FB3083120313D600EF
:101CB0005608831603138605EF3083120313D600EC
:101CC0005608AE057F30D6005608B205FE30D60065
:101CD0005608AF05FB30D6005608AE052D08850026
:101CE0002E0886002F0887003008880031088900F8
:101CF0003208831603178800080083120313DD01DE
:101D0000F82F5D080A168A112B220A128A158312EF
:101D10000313D9005908DC00E42F5C08A03E8400BE
:101D20008313000ED900D90C590C0139DA005C0874
:101D3000A03E8400000EDB005B0C01395A0603193B
:101D4000A22EA32EF32F5C08A03E8400801AA92E99
:101D5000AA2EAF2E5C08A03E84000013F32F5C086F
:101D6000A03E8400001703145D0D203E840000088F
:101D7000F83902388000F32FF32FF32F5C08A03ED0
:101D80008400000ED900D90C590C0139DA005C0826
:101D9000A03E8400000EDB005B0C01395A060319DB
:101DA000D22ED32EEA2E5C08A03E8400801AD92EB3
:101DB000DA2EDF2E5C08A03E84000013E32E5C08C0
:101DC000A03E840000175D08D9005907203E84001A
:101DD000E13080055C08A03E8400801AF02EF12ED0
:101DE000922F5D08D9005907203E8400000C0F395E
:101DF000DA0006305A020318FE2EFF2E1F2F5D0850
:101E0000D9005907203E8400000C0F39DA00DA0AA5
:101E1000DA0D00085A06E1395A0680005D08D9003B
:101E20005907203E8400801E162F172F312F5D0882
:101E3000D9005907203E84000017312F312F5D084B
:101E4000D9005907203E840080125D08D900590747
:101E5000203E840000135D08D9005907203E84000D
:101E600080135D08D9005907203E8400801E392F59
:101E70003A2F482F03145D0D203E84000008F839E6
:101E8000023880005D08D9005907203E8400801286
:101E90005D08D9005907203E8400801F502F512F24
:101EA0006B2F03145D0D203E84000008F8390338C1
:101EB00080005D08D9005907203E840080125D082B
:101EC000D9005907203E840000135D08D900590746
:101ED000203E8400801303145D0D203E8400000822
:101EE0000739043A031D752F762FF32F03145D0D68
:101EF000203E8400F830800503145D0D203E8400F0
:101F0000000CD900D90C590C0139D9000130D9067F
:101F1000D90DD90DD90D00085906F7395906800099
:101F2000F32FF32F5D08D9005907203E8400000CE1
:101F30000F39DA0006305A0203189F2FA02FC62F40
:101F40005D08D9005907203E8400000C0F39DA00E3
:101F5000DA0ADA0D00085A06E1395A0680005D08EF
:101F6000D9005907203E840080165D08D900590722
:101F7000203E8400001FBD2FBE2FF32F5D08D90027
:101F80005907203E84008017F32FF32F03145D0DB3
:101F9000203E84000008F839043880005D08D9002C
:101FA0005907203E840080125D08D9005907203E61
:101FB000840000135D08D9005907203E8400801377
:101FC000F32FF32FF32FF32F5D08D9005907203E8D
:101FD0008400831300080139003A03198D2E013A59
:101FE0000319BE2EF32F0130D9005908DD07F82F51
:101FF0003B085D02031CFD2FFE2F812EFF2F0800E2
:10200000FF3FFF3FFF3FFF3FFF3FFF3FFF3FFF3FE0
:10201000FF3FFF3FFF3FFF3FFF3FFF3FFF3FFF3FD0
:10202000FF3FFF3FFF3FFF3FFF3FFF3FFF3FFF3FC0
:10203000FF3FFF3FFF3FFF3FFF3FFF3FFF3FFF3FB0
:10240000FF3FFF3FFF3F64008001840A0406031979
:1024100000340406042A0A168A11BA220A168A11FE
:102420000A168A11DB230A168A110A128A1503205A
:102430000A168A1108000A168A1164260A168A11D9
:102440000A128A157D260A168A110A128A15512047
:102450000A168A11080083120313D700D8013F2AF5
:10246000D8010314D80D4A2A0A30D6005608D800DD
:102470004A2A0F30D6005608D8004A2A4A2A570856
:10248000003A0319302A013A0319342A033A03198E
:10249000392A4A2A58084C2A080083120313DB0100
:1024A000632A5B08DA005A08D600D70102300A1204
:1024B0008A11D7230A168A11013083120313DA0016
:1024C0005A08DB07632A3F085B02031C682A692A53
:1024D000512A6A2A9B01CF30DA005A089D0508006C
:1024E00083120313DA005A08D800D9010130FF0023
:1024F0000310D80DD90DFF0B782A5808143EDB00C5
:1025000059080318013E003EDC00FE30DB050130B7
:10251000DC050030DB040630DC045C08D701D7079B
:102520005B08D601D607942A080083120313D7004C
:102530006400831603178C189E2A9F2A982AA02AC3
:10254000831203135708831203178D003F30831241
:102550000313D6005608831603178C050C140310BA
:102560000C180314003003180130831203170C08F1
:10257000B92A080014308312031338020318C12A41
:10258000C22AD12AD601D70104300A128A11D723D0
:102590000A168A11013083120313DA005A08B807A9
:1025A000DF2AD601D7010314D70D04300A128A118D
:1025B000D7230A168A1183120313B801DF2A0800F1
:1025C0000B1DE32AE42AFE2A8B1EE72AE82AFE2AAC
:1025D000BD010314BD0D0130F7007708B4070130C9
:1025E000F7007708B9070A168A1179240A168A11A2
:1025F00082308312031381020B11FE2A7B08FF0035
:102600007A088A0079088400780E8300FE0E7E0E18
:10261000090083120313DA01DB010E2B561C112B68
:10262000122B182B5808DA070318DB0A5908DB07A6
:1026300001300310D80DD90DFF3E031D192B0130B9
:102640000310D70CD60CFF3E031D202B5708560451
:10265000031D2B2B2C2B0E2B2D2B5B08D701D70703
:102660005A08D601D607342B080083120313D7006B
:10267000D801512BD801622B0230D6005608D80061
:10268000622B0330D6005608D800622B1230D600D9
:102690005608D800622B1330D6005608D800622B9B
:1026A000622B5708003A03193A2B013A03193C2BC5
:1026B000033A0319412B013A0319462B073A031930
:1026C0004B2B622B5808642B080083120313D9008C
:1026D0005908840083130008803A1B3E031C712BA9
:1026E000722B782B6430D70059088400570880007B
:1026F00059088400801F7D2B7E2B812B5908840074
:1027000080015908023E84000008D700590884005F
:102710000008570603198D2B8E2B9F2B5908840018
:102720000008D7005908023E84000003FF3A57070B
:10273000D8005908033E8400580880009F2B0800E9
:1027400083120313D800A42B831603178C18A92B0C
:10275000AA2BA42BAB2B8312031358088312031745
:102760008D00831203135608831203178C003F3029
:1027700083120313D7005708831603178C0583129F
:10278000031303108B1FC52BC62BC72B03148B13EE
:10279000831603170C1555308D00AA308D008C144C
:1027A0000C1183120313031CD62BD72BDA2B8B1798
:1027B000DA2BDA2B080083120313DF011E2C5F0AC9
:1027C000DA000130DB000030DC00E92B0310DB0D08
:1027D000DC0DDA0BE62B5B08DD005C08DE005D0833
:1027E0002A05DA005E082B05DB005B085A04031D8E
:1027F000FA2BFB2B072C5F08DA005A08D600D7010A
:1028000000300A128A11D7230A168A11172C831254
:1028100003135F08DA005A08D600D7010314D70D56
:1028200000300A128A11D7230A168A11172C013098
:1028300083120313DA005A08DF071E2C40085F02D8
:10284000031C232C242CDF2B252C080083120313BC
:10285000DB005B08C23E840083130018302C312C4F
:10286000532CD601D70101300A128A11D7230A1638
:102870008A115C30831203139B003030DA005A084F
:102880009D041430DA005A08B6005B08DA005A08D2
:10289000D600D7010314D70D02300A128A11D723AC
:1028A0000A168A11782C83120313D6010314D60D4D
:1028B000D70101300A128A11D7230A168A1183120E
:1028C00003139B01CF30DA005A089D051430DA005B
:1028D0005A08B6005B08DA005A08D600D70103147C
:1028E000D70D02300A128A11D7230A168A11782CC2
:1028F00008007C08831203134502031C802C812CE2
:10290000832CC501832C4508F3007307DA3E84004D
:1029100083130008840A000403198F2C902CD12CF7
:102920004508F3007307DA3E84000008F400840AC7
:102930000008F500741C9D2C9E2CA82CF00103149B
:10294000F00D45080A168A1197250A168A11B22C2D
:10295000F0018312031345080A168A1197250A16F7
:102960008A11B22C831203134508F3007307DA3E71
:10297000840083130008F400840A0008F500013085
:102980000310F50CF40CFF3E031DC02C4508F600A7
:102990007607DA3E840074088000840A7508800097
:1029A000D62C0130F3007308C507D62C080083121B
:1029B0000313D900D801410859020318E02CE12C77
:1029C000E82C06305902031CE62CE72C292DE82CB4
:1029D0000130362D362D292D5908E23E840083130F
:1029E0008008031DF42CF52CFC2C7830D7005908F6
:1029F000E23E8400570880005908E23E8400000847
:102A0000D7005908E83E840057088000342D590843
:102A1000E83E840083138001342D5908E83E840089
:102A2000831380080319152D162D232D2C08013A28
:102A3000031D1B2D1C2D342D5908E83E8400013048
:102A40008002342D342DD8010314D80D342D342DAB
:102A5000342D5608003A0319EC2C013A0319072DBE
:102A6000033A03190D2D342D5808362D0800831212
:102A70000313DA018F2D5A080A128A15CF230A167A
:102A80008A1183120313D8005808D9005A08A03EAF
:102A9000840083130008013959060319502D512D64
:102AA0005E2D5A08A03E840059080010031D001432
:102AB0005A08A03E8400E1308005882D5A08A03EC7
:102AC0008400000C0F39D800043058020318692D17
:102AD0006A2D782D5A08A03E8400000C0F39D800CA
:102AE000D80AD80D00085806E13958068000882D0C
:102AF0005A08A03E84000018812D842D5A08A03E5B
:102B0000840083138016862D83138012882D882DD0
:102B1000013083120313D8005808DA078F2D3E08BE
:102B20005A02031C942D952D3B2D962D0800F20082
:102B3000DA2D7008031D9D2DA12D831203132E166F
:102B4000E82DEF30F100710883120313AE05E82D74
:102B5000E82D7008031DAD2DB12D83120313B2179C
:102B6000E82D7F30F100710883120313B205E82DC0
:102B7000E82D7008031DBD2DC12D831203132F14E2
:102B8000E82DFE30F100710883120313AF05E82D24
:102B9000E82D7008031DCD2DD12D831203132E15A2
:102BA000E82DFB30F100710883120313AE05E82D08
:102BB000E82DE82D7208003A0319992D013A0319FE
:102BC000A92D033A0319B92D013A0319C92DE82D8E
:102BD000831203132D0885002E0886002F08870016
:102BE00030088800310889003208831603178800EE
:102BF000080083120313D700D8013B2E0430D600FF
:102C00005608D800612E0530D6005608D800612E2F
:102C10000630D6005608D800612E0730D600560878
:102C2000D800612E0830D6005608D800612E093031
:102C3000D6005608D800612E0B30D6005608D800B2
:102C4000612E0C30D6005608D800612E0D30D6000B
:102C50005608D800612E0E30D6005608D800612ED6
:102C60001030D6005608D800612E1130D600560814
:102C7000D800612E612E5708003A0319FE2D013A43
:102C80000319032E033A0319082E013A03190D2ED6
:102C9000073A0319122E013A0319172E033A0319A2
:102CA0001C2E013A0319212E0F3A0319262E013A40
:102CB00003192B2E033A0319302E013A0319352E2E
:102CC000612E5808632E080083120313DE01C92EFB
:102CD0005E0AD9000130DA000030DB00722E0310EA
:102CE000DA0DDB0DD90B6F2E5A08DC005B08DD0016
:102CF0005E080A168A1135230A168A1183120313F5
:102D0000D9005908DF005F08A03E84008313000E3D
:102D1000D900D90C590C0139DA005F08A03E8400B3
:102D2000000EDB005B0C01395A060319982E992E10
:102D3000B92E5F08A03E8400801A9F2EA02EAF2ED1
:102D40005F08A03E840000135D08DA005C08D9002B
:102D5000D909DA095908A8055A08A905C42E5F0837
:102D6000A03E840000175C08A8045D08A904C42ED6
:102D7000C42E5D08DA005C08D900D909DA095908BF
:102D8000A8055A08A905C42E0130D9005908DE0744
:102D9000C92E3A085E02031CCE2ECF2E682ED02EEE
:102DA000080083120313E100E001400861020318E8
:102DB000DA2EDB2EE22E0D306102031CE02EE12E16
:102DC000E52EE22E6008452F452FDC08031DE92E75
:102DD000EA2EF62E6108DD005D07A03E840000307B
:102DE00083178000840A00308000432F6108DD00D3
:102DF0005D07A03E840083170008840A00040319BD
:102E0000022F032F212F6108DD005D07A03E840003
:102E100001308002840F0030031C80038002840391
:102E20006108DD005D07A03E84000008840A0004FC
:102E3000031D1B2F1C2F432FE0010314E00D432F14
:102E4000432F6108BA3E84000008DD00DE015D0802
:102E5000D6005E08D7003C30D8000030D9000A16F2
:102E60008A1109230A168A11831203136108DF00ED
:102E70005F07A03E8400560883178000840A570825
:102E80008000432F432F6008452F08000A128A153F
:102E90009E220A168A110A128A1517250A168A1105
:102EA0000A128A1162270A168A110A128A15D0217B
:102EB0000A168A11831203132014221424142614D0
:102EC0008B170B176D2FFB30EA006A08831603136C
:102ED0008805831203138C106D2F8C18702F712F9F
:102EE000632F732F732F0A128A1162270A168A1111
:102EF00083160313AF1E7D2F7E2F882FAF1A812FCD
:102F0000822F882F0A128A150E210A168A11882FFD
:102F10000C30831203133402031C8F2F902FB82F11
:102F20000C30B40265303402031C972F982F9A2F6F
:102F3000B4019A2F0130EA006A08B7070A168A110D
:102F400037250A168A11831203133608031DA92F89
:102F5000B82F0130B602B608031DAF2FB02FB82F1F
:102F60000A168A114D220A168A11B82FB82FB82FC7
:102F70003C30831203133902031CBF2FC02FD02F04
:102F80003C30B90265303902031CC72FC82FCA2F45
:102F9000B901CA2F0A128A11DC250A168A11D02F0C
:102FA0000830831203133702031CD72FD82F732F37
:102FB000B7010130EA006A08B50719303502031C71
:102FC000E22FE32FE82FB501AC010314AC0DE82F7D
:102FD0000A168A111B220A168A110A128A11152052
:102FE0000A168A110A168A110B220A168A118312EE
:102FF0000313AC01732F732F732F0A128A11122837
:10300000FF3FFF3FFF3FFF3FFF3FFF3FFF3FFF3FD0
:10301000FF3FFF3FFF3FFF3FFF3FFF3FFF3FFF3FC0
:10302000FF3FFF3FFF3FFF3FFF3FFF3FFF3FFF3FB0
:10303000FF3FFF3FFF3FFF3FFF3FFF3FFF3FFF3FA0
:02400E0072300E
:00000001FF
