:020000040000FA
:100000000A128A1112280534FE00030EF8000408B3
:10001000F9000A08FA00831203137F08FB000A168E
:100020008A15372C0A168A155F2B83120313ED01EC
:100030006E286D0AE6000130E7000030E800232852
:100040000310E70DE80DE60B20286708E9006808B3
:10005000EA00690883160313560583120313E600AA
:100060006A0883160313570583120313E700670812
:10007000660403193C283D2843286908B4066A0829
:10008000B506432843283B08013A031D4828492860
:10009000672834086905E6006608E0006D080A165E
:1000A0008A1594260A128A11013A031D58285928E4
:1000B0006728831203136A08E7006908E600E60967
:1000C000E7096608B4056708B505672867280130A1
:1000D00083120313E6006608ED076E2852086D02CE
:1000E000031C7328742819287528ED013B2A6D0814
:1000F000E6006607E7006708EC006C0AE6006608A1
:10010000EB00AD28982898289828872887286C081D
:10011000B63E8400831300081F39203880006B0826
:10012000B63E840000081F39203880006429642905
:100130006B08B63E84008313000EE600660C073998
:10014000023A03198728013A03198728073A031945
:10015000872864296429642964296C08B63E8400D0
:100160008313000EE600660C0739023A031998283B
:10017000013A03199828073A031998286429642931
:100180006C08203E84008018C628C728E8286B0821
:10019000203E8400801CCD28CE28D3286B08203E2A
:1001A00084008010D328DA016D080A168A156A25A2
:1001B0000A128A11DB28831203136C08203E840084
:1001C000831380146C08B63E84001F3080051D2AFE
:1001D000DA01DA0A6D080A168A156A250A128A11E6
:1001E000F128831203136C08203E840083138010CF
:1001F0006C08B63E84001F3080051D2A1D2ADA01D6
:10020000DA0A6D080A168A156A250A128A1108295F
:10021000831203136C08203E8400831380146B0840
:10022000203E840080101D2ADA01DA0A6D080A16C1
:100230008A156A250A128A111D29831203136C0874
:10024000203E8400831380106C08B63E84001F306B
:1002500080051D2A6B08203E8400801C302931292E
:1002600036296B08203E840080103629DA016D089B
:100270000A168A156A250A128A113E298312031367
:100280006C08203E8400831380146C08B63E840002
:100290001F3080051D2A0230E6006608DA006D086E
:1002A0000A168A156A250A128A11013A031D59296C
:1002B0005A291D2A831203136C08203E84008313DD
:1002C00080101D2A1D2A1D2A6C08B63E8400000ECF
:1002D000E600660C0739013A03191429033A031999
:1002E000C028013A0319FF28073A03192A294B2984
:1002F0001D2A6B08203E840080187F298029A129AF
:100300006C08203E8400801C862987298C296C0873
:10031000203E840080108C29DA016D080A168A15A7
:100320006A250A128A119429831203136B08203E4E
:100330008400831380146B08B63E84001F30800550
:10034000342ADA01DA0A6D080A168A156A250A12B1
:100350008A11AA29831203136B08203E8400831399
:1003600080106B08B63E84001F308005342A342A82
:10037000DA01DA0A6D080A168A156A250A128A1144
:10038000C129831203136B08203E84008313801459
:100390006C08203E84008010342ADA01DA0A6D08E5
:1003A0000A168A156A250A128A11D629831203139E
:1003B0006B08203E8400831380106B08B63E8400D7
:1003C0001F308005342A6C08203E8400801CE929F7
:1003D000EA29EF296C08203E84008010EF29DA0119
:1003E0006D080A168A156A250A128A11F7298312DE
:1003F00003136B08203E8400831380146B08B63E01
:1004000084001F308005342A0230E6006608DA00D6
:100410006D080A168A156A250A128A11013A031D07
:10042000122A132A342A831203136B08203E8400F5
:1004300083138010342A342A342A831203136B085E
:10044000B63E84008313000EE600660C0739013ABD
:100450000319CD29033A03197929013A0319B82957
:10046000073A0319E329042A013083120313E60033
:100470006608ED073B2A54086D02031C402A412AF6
:100480007728422AED01B02C722C8E2C6D08E600E4
:1004900001300310E60DFF3E031D492A0310660DCF
:1004A000D83E84008313800103146D0D2C3E84001C
:1004B000801203146D0D2C3E8400E33080058E2CD9
:1004C0006D08E60066072C3E840000080739023AF2
:1004D00003196B2A6C2A792A6D08E60066072C3E00
:1004E0008400000807390038031D772A782A882AF3
:1004F000792A6430E6006D08E70002300310E70D4A
:10050000FF3E031D7E2A670AD83E840066088000ED
:100510006D08E60002300310E60DFF3E031D8B2A36
:10052000660AD83E84000008803A7F3E0318992A64
:100530009A2AA92A6430E6006D08E7000230031009
:10054000E70DFF3E031D9F2A670AD83E8400660818
:1005500080006D08E60002300310E60DFF3E031D2B
:10056000AC2A660AD83E84000008E7006D08E8005F
:1005700001300310E80DFF3E031DB92A0310680D7A
:10058000D83E84006708800003146D0D2C3E840063
:10059000801203146D0D2C3E8400E33080058E2CF8
:1005A0006D08E60066072C3E840000080739023A11
:1005B0000319DB2ADC2AE92A6D08E60066072C3ECF
:1005C0008400000807390038031DE72AE82AF82AC2
:1005D000E92A6430E6006D08E70002300310E70DF9
:1005E000FF3E031DEE2A670AD83E8400660880009D
:1005F0006D08E60001300310E60DFF3E031DFB2AE7
:100600000310660DD83E84000008803A7F3E031C2C
:100610000A2B0B2B1E2B6D08E60001300310E60D94
:10062000FF3E031D0E2B0310660DD83E8400800193
:1006300003146D0D2C3E840080125F2B6D08E600C4
:1006400002300310E60DFF3E031D212B660AD83E43
:1006500084000008803A7F3E03182F2B302B3F2B5D
:100660006430E6006D08E70002300310E70DFF3E3E
:10067000031D352B670AD83E8400660880006D088C
:10068000E60002300310E60DFF3E031D422B660A12
:10069000D83E84000008E7006D08E8000130031030
:1006A000E80DFF3E031D4F2B0310680DD83E84005C
:1006B0006708800003146D0D2C3E84008012031423
:1006C0006D0D2C3E8400E33080058E2C6430E600F6
:1006D0006D08E70001300310E70DFF3E031D6B2B93
:1006E0000310670DD83E84006608800003146D0D6A
:1006F0002C3E8400801603146D0D2C3E8400E330E4
:1007000080058E2C0130E6006608C40704304402E0
:10071000031C8B2B8C2B8E2CC40103146D0D2C3ED3
:100720008400801A942B952BEE2B6D08E600013087
:100730000310E60DFF3E031D982B0310660DD83EF7
:1007400084000008803A1D3E0318A72BA82BB92B64
:100750000130E6006D08E70001300310E70DFF3EB1
:10076000031DAD2B0310670DD83E8400660880077B
:10077000C92B6430E6006D08E70001300310E70D77
:10078000FF3E031DBE2B0310670DD83E8400660894
:1007900080006D08E60001300310E60DFF3E031DEA
:1007A000CC2B0310660DD83E84000008803A763EBC
:1007B0000318DB2BDC2B402C0A30E6006D08E70029
:1007C00001300310E70DFF3E031DE12B0310670D01
:1007D000D83E840066088000402C402C6D08E6005E
:1007E00001300310E60DFF3E031DF12B0310660DD3
:1007F000D83E84000008803A7E3E031C002C012C69
:10080000122CFF30E6006D08E70001300310E70D01
:10081000FF3E031D062C0310670DD83E84006608BA
:1008200080071F2C6D08E60001300310E60DFF3E27
:10083000031D152C0310660DD83E840080016D0841
:10084000E60001300310E60DFF3E031D222C0310CD
:10085000660DD83E84000008803A763E0318312C9D
:10086000322C402C6D08E60001300310E60DFF3EEF
:10087000031D352C0310660DD83E84008001402CEA
:100880006D08E60001300310E60DFF3E031D432C0A
:100890000310660DD83E84000008803A753E031CA4
:1008A000522C532C8E2C6D08E60001300310E60DFF
:1008B000FF3E031D562C0310660DD83E8400000831
:1008C000E7006D08E80002300310E80DFF3E031D4D
:1008D000642C680AD83E8400670880008E2C8E2C19
:1008E0008E2C8E2C03146D0D2C3E84008313000C73
:1008F000E600660C0739003A03198E2C013A0319F9
:10090000462A033A0319602A013A0319D02A073A02
:100910000319662B013A0319822B8E2C6D08E60011
:1009200066072C3E8400831300080739E700670838
:10093000DA006D08E80001300310E80DFF3E031DEA
:100940009C2C0310680DD83E0A128A1503200A1247
:100950008A11013083120313E6006608ED07B02CFC
:1009600053086D02031CB52CB62C722CB72C080052
:100970000E3083120313E7000030E800E401E501C4
:1009800067080A128A11DB270A128A1183120313DD
:10099000E100E2016108E4006208E5000130E707D8
:1009A0000318E80A0030E80767080A128A11DB27F3
:1009B0000A128A1183120313E100E2016108E200C6
:1009C000E1016108E4046208E5040130E707031867
:1009D000E80A0030E807AA306506031DF12C5530FF
:1009E0006406031DF42CF52CF02D67080A128A11F9
:1009F000DB270A128A1183120313E100E201610866
:100A0000B4006208B5000130E7070318E80A0030B7
:100A1000E80767080A128A11DB270A128A11831273
:100A20000313E100E2016108E200E1016108B4049E
:100A30006208B5040130E7070318E80A0030E80748
:100A4000E6017F2D67080A128A11DB270A128A1134
:100A500083120313E1006608E20001300310E20D87
:100A6000FF3E031D2E2D0310620DD83E8400610849
:100A7000831380000130E7070318E80A0030E80715
:100A800067080A128A11DB270A128A1183120313DC
:100A9000E1006608E20002300310E20DFF3E031D94
:100AA0004C2D620AD83E8400610883138000013017
:100AB000E7070318E80A0030E80767080A128A11F6
:100AC000DB270A128A1183120313E1000730610544
:100AD000E2006608E30063072C3E840083130008ED
:100AE0006206F839620680000130E7070318E80A59
:100AF0000030E8070130E1006108E6077F2D530868
:100B00006602031C842D852D222D862D2A30E700B8
:100B10000030E800E60106306602031C902D912D9E
:100B2000932DB32DB32D67080A128A11DB270A1201
:100B30008A1183120313E1006608CA3E840061082B
:100B4000831380000130E7070318E80A0030E80744
:100B50000130E1006108E60706306602031CB12D92
:100B6000B22D932DB32D3230E7000030E800E601BE
:100B70000D306602031CBD2DBE2DC02DE02DE02DD5
:100B800067080A128A11DB270A128A1183120313DB
:100B9000E1006608CE3E84006108831780000130C2
:100BA000E7070318E80A0030E8070130E1006108B0
:100BB000E6070D306602031CDE2DDF2DC02DE02D73
:100BC0004230E7000030E80067080A128A11DB278C
:100BD0000A128A1183120313E1006108D6001E2F46
:100BE000DE0167080A168A15FC230A128A110130F1
:100BF00083120313E7070318E80A0030E807DE0151
:100C000067080A168A15FC230A128A11013083121A
:100C10000313E7070318E80A0030E807B401B50139
:100C2000E601692EDE0167080A168A15FC230A12FE
:100C30008A11013083120313E7070318E80A003012
:100C4000E807DE0167080A168A15FC230A128A11D2
:100C5000013083120313E7070318E80A0030E8079E
:100C60006608E10001300310E10DFF3E031D332E45
:100C70000310610DD83E8400831380016608E100F3
:100C800002300310E10DFF3E031D412E610AD83EE4
:100C900084008001DE01DE0A67080A168A15FC233B
:100CA0000A128A11013083120313E7070318E80AB6
:100CB0000030E8076608E10061072C3E84008313DA
:100CC0000008F839013880000130E1006108E607CA
:100CD000692E53086602031C6E2E6F2E122E702E84
:100CE0002A30E7000030E800E60106306602031C07
:100CF0007A2E7B2E7D2EA22EA22E7830E100610866
:100D0000DE0067080A168A15FC230A128A110130D0
:100D100083120313E7070318E80A0030E807783066
:100D2000E1006608CA3E8400610883138000013038
:100D3000E1006108E60706306602031CA02EA12E22
:100D40007D2EA22E3230E7000030E800E6010D30A3
:100D50006602031CAC2EAD2EAF2ECE2ECE2EDE01A3
:100D600067080A168A15FC230A128A1101308312B9
:100D70000313E7070318E80A0030E8076608CE3EC9
:100D80008400831780010130E1006108E6070D301F
:100D90006602031CCC2ECD2EAF2ECE2E4230E700A5
:100DA0000030E800D6015608E1006108DE0067085F
:100DB0000A168A15FC230A128A11013083120313C2
:100DC000E7070318E80A0030E8070D30E7000030B5
:100DD000E800DE01DE0A67080A168A15FC230A12FB
:100DE0008A11013083120313E7070318E80A003061
:100DF000E8075530E1006108DE0067080A168A1529
:100E0000FC230A128A11013083120313E707031827
:100E1000E80A0030E807AA30E1006108DE00670850
:100E20000A168A15FC230A128A1101308312031351
:100E3000E7070318E80A0030E8071E2F08008312AE
:100E40000313E101D32F61080A168A1529260A1215
:100E50008A1183120313DD005D08E0006008A03EE4
:100E600084008313000EDD00DD0C5D0C0139DE0013
:100E70006008A03E8400000EDF005F0C01395E06B2
:100E80000319432F442F592F6008A03E8400801A75
:100E90004A2F4B2F502F6008A03E84000013542F80
:100EA0006008A03E840000176108B63E8400F03060
:100EB00080056008A03E8400801A5F2F602FA42F59
:100EC0006108B63E840000080F39DD0006305D027F
:100ED00003186B2F6C2F792F6108B63E8400000831
:100EE0000F39DD00DD0A00085D06F0395D0680007F
:100EF0007D2F6108B63E840000126108B63E840072
:100F0000001E832F842F8F2F6108B63E84000008B7
:100F10001F39403880006108B63E84000012610825
:100F2000B63E8400000EDD005D0C0739033A031D58
:100F30009A2F9B2FCE2F6108B63E840000081F39E0
:100F400020388000CE2FCE2F6108B63E84000008E6
:100F50000F39DD0006305D020318AF2FB02FC12F0F
:100F60006108B63E840000080F39DD00DD0A000884
:100F70005D06F0395D0680006108B63E840000160B
:100F8000CE2F6108B63E840000081F39603880000B
:100F90006108B63E84000012CE2FCE2F0130DD0056
:100FA0005D08E107D32F4D086102031CD82FD92F0C
:100FB000232FDA2F080083120313DB00640083164B
:100FC00003178C18E42FE52FDE2FE62F831203136F
:100FD0005B08831203178D003F3083120313DA007E
:100FE0005A08831603178C050C1403100C180314ED
:100FF000003003180130831203170C08FF2F08007C
:10100000FF3FFF3FFF3F83120313DD005D088400B5
:1010100083130008803A1B3E031C0F281028162853
:101020006430DB005D0884005B0880005D0884009C
:10103000801F1B281C2820285D0884008001202890
:101040005D08023E84000008DB005D0884000008A3
:101050005B0603192C282D283E285D088400000813
:10106000DB005D08023E84000003FF3A5B07DC0002
:101070005D08033E84005C0880003E28080083125F
:101080000313E101C42961080A168A159E220A1277
:101090008A1583120313DD005D08E000AD29502896
:1010A0006008A03E84008313000EDD00DD0C5D0CA3
:1010B0000139DE006008A03E8400000EDF005F0CF6
:1010C00001395E06031965286628BF296008A03E1D
:1010D0008400801A6C286D2872286008A03E840065
:1010E0000013BF296008A03E840000170314610D9F
:1010F0002C3E84000008E3390C388000BF29BF294A
:10110000BF296008A03E8400000EDD00DD0C5D0CF0
:101110000139DE006008A03E8400000EDF005F0C95
:1011200001395E06031995289628AD286008A03E6F
:101130008400801A9C289D28A2286008A03E840074
:101140000013A6286008A03E840000176108DD0097
:101150005D072C3E8400873080056008A03E840037
:10116000801AB328B42857296108DD005D072C3E9A
:101170008400000CDE00DE0C5E0C0F39DF00063050
:101180005F020318C428C528E9286108DD005D074F
:101190002C3E8400000CDE00DE0C5E0C0F39DE00FD
:1011A000DE0ADE0DDE0DDE0D00085E0687395E0606
:1011B00080006108DD005D072C3E8400801FE1286F
:1011C000E228F9280314610D2C3E84000014F9284C
:1011D000F9286108DD005D072C3E840080130314AC
:1011E000610D2C3E840000100314610D2C3E840020
:1011F00080106108DD005D072C3E8400801F0129FE
:10120000022910290314610D2C3E84000008E339E3
:101210000C3880006108DD005D072C3E84008013DF
:101220000314610D2C3E8400801C172918293029D5
:101230000314610D2C3E84000008E339103880004F
:101240006108DD005D072C3E840080130314610DEE
:101250002C3E840000100314610D2C3E840080108D
:101260000314610D2C3E8400000CDD005D0C073979
:10127000053A031D3C293D29BF290314610D2C3E6D
:101280008400E33080050314610D2C3E8400000EC1
:10129000DD005D0C0139DD000130DD06DD0EDD0D08
:1012A00000085D06DF395D068000BF29BF2961089F
:1012B000DD005D072C3E8400000CDE00DE0C5E0CC1
:1012C0000F39DF0006305F0203186729682991296A
:1012D0006108DD005D072C3E8400000CDE00DE0CA2
:1012E0005E0C0F39DE00DE0ADE0DDE0DDE0D0008BD
:1012F0005E0687395E0680006108DD005D072C3ED2
:10130000840080170314610D2C3E8400001C892981
:101310008A29BF290314610D2C3E84008014BF2943
:10132000BF290314610D2C3E84000008E3391438F2
:1013300080006108DD005D072C3E840080130314EB
:10134000610D2C3E840000100314610D2C3E8400BE
:101350008010BF29BF29BF29BF296108DD005D07B3
:101360002C3E8400831300080739003A03195028E3
:10137000013A03198128033A03195028BF29013083
:10138000DD005D08E107C4294C086102031CC9297E
:10139000CA294328CB29080083120313E401B52B83
:1013A0006408E10001300310E10DFF3E031DD32965
:1013B0000310610D033ED83E840083138008031997
:1013C000E229E329B02B6408E10001300310E10DAC
:1013D000FF3E031DE6290310610D033ED83E840045
:1013E0000008E2006408E30001300310E30DFF3E53
:1013F000031DF5290310630D023ED83E84006208E8
:1014000080076408E10001300310E10DFF3E031D79
:10141000042A0310610D033ED83E84000008803A80
:101420007F3E031C142A152A652A6408E100013056
:101430000310E10DFF3E031D182A0310610D023E4B
:10144000D83E84000008803AE2006408E3000130DE
:101450000310E30DFF3E031D282A0310630DD83E41
:1014600084000008803AE202031C372A382AB42A92
:101470006408E10001300310E10DFF3E031D3B2A2B
:101480000310610DD83E84000008E2006408E30008
:1014900001300310E30DFF3E031D492A0310630DC5
:1014A000023ED83E8400620880006408E1000130FA
:1014B0000310E10DFF3E031D582A0310610D033E8A
:1014C000D83E84008001B42AB42A6408E1000130C7
:1014D0000310E10DFF3E031D682A0310610DD83E85
:1014E00084000008803AE2006408E3000130031041
:1014F000E30DFF3E031D772A0310630D023ED83E25
:1015000084000008803AE202031C872A882AB42A51
:101510006408E10001300310E10DFF3E031D8B2A3A
:101520000310610DD83E84000008E2006408E30067
:1015300001300310E30DFF3E031D992A0310630DD4
:10154000023ED83E8400620880006408E100013059
:101550000310E10DFF3E031DA82A0310610D033E99
:10156000D83E84008001B42A6408E10001300310F1
:10157000E10DFF3E031DB72A0310610D023ED83E68
:1015800084000008803A1B3E031CC72AC82AD92AB7
:101590006430E1006408E20001300310E20DFF3E18
:1015A000031DCD2A0310620D023ED83E840061085F
:1015B00080006408E10001300310E10DFF3E031DCF
:1015C000DC2A0310610D023ED83E8400801FE92A08
:1015D000EA2AF92A6408E10001300310E10DFF3E18
:1015E000031DED2A0310610D023ED83E84008001E8
:1015F000F92A4219FC2AFD2A9D2B602B602B6408D6
:10160000E10001300310E10DFF3E031D022B03102A
:10161000610D023ED83E84000008803A6C3E0318FB
:10162000122B132B272B6A300A168A15BF220A1297
:101630008A15831203136408E1006107C23E840027
:101640005A0883138000840A5B088000B02B6B303B
:101650000A168A15BF220A128A1583120313640818
:10166000E1006107C23E84005A0883138000840AA7
:101670005B088000B02BB02B3D2B6408E1000130EB
:101680000310E10DFF3E031D402B0310610D023ED0
:10169000D83E840000086E3E0A168A15BF220A1240
:1016A0008A15831203136408E2006207C23E8400B5
:1016B0005A0883138000840A5B088000B02BB02B8B
:1016C0006408E10061072C3E840000080739003AF5
:1016D00003193D2B013A03193D2B033A0319FF2A45
:1016E000B02BB02B9D2B6B300A168A15BF220A1225
:1016F0008A15831203136408E1006107C23E840067
:101700005A0883138000840A5B088000B02B882B62
:10171000D2300A168A15BF220A128A1583120313C1
:101720006408E1006107C23E84005A088313800008
:10173000840A5B088000B02BB02B6408E1006107CD
:101740002C3E840000080739003A0319882B013A1F
:101750000319882B033A0319732BB02BB02BB02B32
:101760000130E1006108E407B52B53086402031C53
:10177000BA2BBB2BD029BC2B080083120313DD002E
:10178000A22D5F2C5B08031DC62BC82B3C14B32D68
:10179000FE30DC005C08BC05B32DB32D5B08031DD7
:1017A000D22BD42BBC14B32DFD30DC005C08BC055F
:1017B000B32DB32D5B08031DDE2BE02B3C15B32DA1
:1017C000FB30DC005C08BC05B32DB32D5B08031DAA
:1017D000EA2BEC2BC016B32DDF30DC005C08C00513
:1017E000B32DB32D5B08031DF62BF82B4017B32D3B
:1017F000BF30DC005C08C005B32DB32D5B08031DB2
:10180000022C042C3D15B32DFB30DC005C08BD051B
:10181000B32DB32D5B08031D0E2C102C3D15B32DDD
:10182000FB30DC005C08BD05B32DB32D5B08031D48
:101830001A2C1C2C3D15B32DFB30DC005C08BD05BB
:10184000B32DB32D5B08031D262C282C3D15B32D7D
:10185000FB30DC005C08BD05B32DB32D5B08031D18
:10186000322C342C3D15B32DFB30DC005C08BD055B
:10187000B32DB32D5B08031D3E2C402C3D15B32D1D
:10188000FB30DC005C08BD05B32DB32D5B08031DE8
:101890004A2C4C2C3D15B32DFB30DC005C08BD05FB
:1018A000B32DB32D5B08031D562C582C3D15B32DBD
:1018B000FB30DC005C08BD05B32DB32DB32D5A08F9
:1018C000003A0319C22B013A0319CE2B033A03192C
:1018D000DA2B013A0319E62B073A0319F22B013AE6
:1018E0000319FE2B033A03190A2C013A0319162C8B
:1018F0000F3A0319222C013A03192E2C033A03192B
:101900003A2C013A0319462C073A0319522CB32DED
:10191000B32D922CFD30DC005C08BF05B32DBF1445
:10192000B32DB32D5A08003A03198A2C013A031932
:101930008F2CB32DB32D2D2D5B08031DA02CA22CB5
:10194000BC15B32DF730DC005C08BC05B32DB32DFE
:101950005B08031DAC2CAE2C3C16B32DEF30DC0025
:101960005C08BC05B32DB32D5B08031DB82CBA2C45
:10197000BC16B32DDF30DC005C08BC05B32DB32DE5
:101980005B08031DC42CC62C4014B32DFE30DC00B4
:101990005C08C005B32DB32D5B08031DD02CD22CE1
:1019A000C014B32DFD30DC005C08C005B32DB32D91
:1019B0005B08031DDC2CDE2C4015B32DFB30DC0056
:1019C0005C08C005B32DB32D5B08031DE82CEA2C81
:1019D0004016B32DEF30DC005C08C005B32DB32DED
:1019E0005B08031DF42CF62CC017B32D7F30DC00F0
:1019F0005C08C005B32DB32D5B08031D002D022D1F
:101A00004116B32DEF30DC005C08C105B32DB32DBA
:101A10005B08031D0C2D0E2DC116B32DDF30DC002D
:101A20005C08C105B32DB32D5B08031D182D1A2DBD
:101A30004117B32DBF30DC005C08C105B32DB32DB9
:101A40005B08031D242D262DBE14B32DFD30DC00B4
:101A50005C08BE05B32DB32DB32D5A08003A031907
:101A60009C2C013A0319A82C033A0319B42C013A0F
:101A70000319C02C073A0319CC2C013A0319D82CAE
:101A8000033A0319E42C013A0319F02C0F3A031915
:101A9000FC2C013A0319082D033A0319142D013ABD
:101AA0000319202DB32DB32D862D5B08031D592D51
:101AB0005B2D3D16B32DEF30DC005C08BD05B32D6A
:101AC000B32D5B08031D652D672DC117B32D7F3026
:101AD000DC005C08C105B32DB32D5B08031D712D1F
:101AE000732D3E14B32DFE30DC005C08BE05B32D13
:101AF000B32D5B08031D7D2D7F2D3D15B32DFB30D0
:101B0000DC005C08BD05B32DB32DB32D5A08003A97
:101B10000319552D013A0319612D033A03196D2D4F
:101B2000013A0319792DB32DB32D5B08031D992DAF
:101B30009B2DBF15B32DF730DC005C08BF05B32D1E
:101B4000B32DB32D5D08003A03195F2C013A031938
:101B5000922C033A03192D2D013A0319862D073AC9
:101B60000319952DB32D3C0885003D0886003E08DD
:101B700087003F0888004008890041088316031742
:101B800088000800831603173A08031DC82D9B2FF1
:101B9000892F892F3C0883120313B404831603177B
:101BA0003E0883120313B504831603173D088312FE
:101BB0000313E800831603173B0883120313E7009F
:101BC000E709E8096708B4056808B505EC01EB0109
:101BD000EB0A04306C02031CEE2DEF2DF12D2A2EA2
:101BE0002A2E831603174008831203136B0503196B
:101BF000FA2DFB2D052E03146C0D2C3E840083134F
:101C00000008E33908388000052E831603173F08C3
:101C1000831203136B0503190E2E0F2E192E0314B6
:101C20006C0D2C3E840083130008E33904388000D7
:101C3000192E0130E7006708EC076B08E70067071B
:101C4000E8006808EB0004306C02031C282E292EE3
:101C5000F12D2A2EEC01EB01EB0A06306C02031C7D
:101C6000322E332E352E772E772E6C08E70067073D
:101C7000E8006808EA006A0AE7006708E9008316D6
:101C800003174108831203136B050319482E492ECD
:101C9000522E6A08B63E8400831300081F3980382C
:101CA0008000662E831603174208831203136B0508
:101CB00003195B2E5C2E662E6908B63E84008313E2
:101CC00000081F3980388000662E662E0130E7003C
:101CD0006708EC076B08E7006707E8006808EB0097
:101CE00006306C02031C752E762E352E772E831649
:101CF0000317BA019B2F83120313EC0104306C020B
:101D0000031C832E842E862ED12ED12E6C08E70044
:101D100067072C3E8400831300080739E8006C0A2B
:101D2000BA3E840083170008073968060319992E04
:101D30009A2EC42E6C0ABA3E840007300005E700D4
:101D40006C08E80068072C3E8400831300086706CF
:101D5000F839670680006C0ABA3E840083170008D1
:101D6000E7006708DE000330E8006808DA006C0866
:101D70000A168A1583220A128A15143E0A168A1533
:101D8000FC230A128A15C42E013083120313E700C4
:101D90006708EC0704306C02031CCF2ED02E862E71
:101DA000D12E83160317BA019B2F83120313EC0164
:101DB0000D306C02031CDD2EDE2EE02E152F152FAC
:101DC0006C0ABA3E840083170008E7006C08CE3E18
:101DD0008400000867060319EE2EEF2E082F6C0A08
:101DE000BA3E84000008E7006C08CE3E8400670815
:101DF00080006C08CE3E84000008E7006708DE0023
:101E00006C08323E0A168A15FC230A128A15082F1E
:101E1000013083120313E7006708EC070D306C02F2
:101E2000031C132F142FE02E152F83160317BA014E
:101E30009B2F83120313EC0106306C02031C212F2D
:101E4000222F242F5C2F5C2F6C0ABA3E840083174C
:101E50000008E7006C08CA3E840083130008670688
:101E60000319332F342F4F2F6C0ABA3E8400831787
:101E70000008E7006C08CA3E8400670883138000EE
:101E80006C08CA3E84000008E7006708DE006C08A2
:101E90002A3E0A168A15FC230A128A154F2F013092
:101EA00083120313E7006708EC0706306C02031C7B
:101EB0005A2F5B2F242F5C2F83160317BA019B2FF9
:101EC000831203134218652F662F792F8316031789
:101ED0003B0883120313E7006708C200421C712FFE
:101EE000722F822F0A168A1166200A128A15822FF3
:101EF000822F831603173B0883120313E70067083A
:101F0000C200822F83160317BA019B2FBA019B2FA1
:101F10009B2F3A08013A0319CA2D033A03197B2E65
:101F2000013A0319D52E073A0319192F013A03195B
:101F3000602F862F9B2F831203133B08013A031D4A
:101F4000A22FA32FAE2F4F08031DA72FAB2F59127F
:101F50000130CF02AE2F5916AE2FAE2FD908031D78
:101F6000B22FB32FC62F143049020318B82FB92F40
:101F7000C22FF730E7006708BF050130E7006708A8
:101F8000C907FF2FBF15C901FF2FFF2F591EC92FEA
:101F9000CA2FE42F143049020318CF2FD02FD52F8A
:101FA000F730E7006708BF05D72FBF15D72F0130DF
:101FB000E7006708C90728304902031CE02FE12F1A
:101FC000FF2FC901FF2FFF2F0A3049020318E92F05
:101FD000EA2FEF2FF730E7006708BF05F12FBF1595
:101FE000F12F0130E7006708C90714304902031CCC
:101FF000FA2FFB2FFF2FC901FF2FFF2FFF2F080004
:10200000FF3FFF3FFF3FFF3FF20047287008031DDF
:102010000A280E28831203133D165528EF30F100CD
:10202000710883120313BD05552855287008031D38
:102030001A281E2883120313C11755287F30F10078
:10204000710883120313C105552855287008031D14
:102050002A282E28831203133E145528FE30F1003F
:10206000710883120313BE05552855287008031DF7
:102070003A283E28831203133D155528FB30F10002
:10208000710883120313BD05552855285528720879
:10209000003A03190628013A03191628033A0319CE
:1020A0002628013A031936285528831203133C08C1
:1020B00085003D0886003E0887003F0888004008EC
:1020C0008900410883160317880008001030831226
:1020D0000313E5000030E6003408E1006108E30086
:1020E0006308E1006108DE0065080A168A15FC2312
:1020F0000A168A11013083120313E5070318E60A52
:102100000030E6073508E1006108E3006308E100FC
:102110006108DE0065080A168A15FC230A168A1172
:10212000013083120313E5070318E60A0030E607BF
:10213000E401E2286408E10001300310E10DFF3EF4
:10214000031D9D280310610DD83E840083130008F1
:10215000E2006208DE0065080A168A15FC230A16EA
:102160008A11013083120313E5070318E60A0030D1
:10217000E6076408E10002300310E10DFF3E031D95
:10218000BC28610AD83E840083130008E20062087C
:10219000DE0065080A168A15FC230A168A1101302A
:1021A00083120313E5070318E60A0030E60701303F
:1021B000E5070318E60A0030E6070130E100610890
:1021C000E407E22853086402031CE728E8289A2859
:1021D000E9284230E5000030E60065080A128A115D
:1021E000DB270A168A1183120313E100610AE20059
:1021F0006208D5005508FF3A031DFF28002903296E
:10220000D501D50A03295508E1006108DE006508FB
:102210000A168A15FC230A168A1108000A168A1162
:10222000BB220A168A110A168A11FC240A168A1180
:102230000A168A155C220A168A110A168A150627BA
:102240000A168A110A168A158F230A168A110A128B
:102250008A11B8240A168A110A168A15C4230A1686
:102260008A118B170B174029FB3083120313EE00E2
:102270006E08831603138805831203138C104029FC
:10228000831203138C1845294629342948294829E3
:102290000A168A1506270A168A110C3083120313B0
:1022A0004502031C542955297D290C30C50265308F
:1022B0004502031C5C295D295F29C5015F290130A6
:1022C000EE006E08C8070A168A15C9250A168A1173
:1022D000831203134708031D6E297D290130C702AD
:1022E000C708031D742975297D290A168A15E0225D
:1022F0000A168A117D297D297D293C30831203131A
:102300004A02031C8429852995293C30CA0265307C
:102310004A02031C8C298D298F29CA018F290A1290
:102320008A15CC210A168A119529083083120313C5
:102330004802031C9C299D294829C8010130EE0050
:102340006E08C60719304602031CA729A829AC2924
:10235000C601BB01BB0AAC290A168A1573220A16EC
:102360008A110A128A1115200A168A110A128A1570
:10237000C2250A168A110A168A1551220A168A11CE
:1023800083120313BB014829482948290A128A11DC
:10239000122883120313C21CCE29CF29D129BA2AAD
:1023A000BA2A05306F020318D629D729DC29013053
:1023B000E0006008EF07DC29E101B32A05306F0275
:1023C000031CE329E429AC2A6108203E840083131E
:1023D000000C0139E0006108203E8400000801394A
:1023E00060060319F429F529AC2A6118F829F9299E
:1023F0003F2A6108203E8400801CFF29002A3F2AD2
:10240000610A203E8400001C062A072A232A610A4A
:10241000203E84008010610A203E84008018142A27
:10242000172A610A203E840083130014192A83139B
:10243000001083120313EF01610A0A168A15C124E2
:102440000A168A11BA2A831203136108203E8400F7
:10245000831380182F2A322A6108203E84008313B8
:102460000014342A8313001083120313EF01610850
:102470000A168A15C1240A168A11BA2ABA2A611CB8
:10248000422A432A8E2A6108203E8400801C492A61
:102490004A2A8E2A6108FF3E203E8400001C512AF1
:1024A000522A722A6108FF3E203E84008010610893
:1024B000FF3E203E84008018622A652A6108FF3EA4
:1024C000203E840083130014672A831300108312B4
:1024D0000313EF016108FF3E0A168A15C1240A168C
:1024E0008A11BA2A831203136108203E84008313E1
:1024F00080187E2A812A6108203E840083130014FC
:10250000832A8313001083120313EF0161080A1654
:102510008A15C1240A168A11BA2ABA2A8312031309
:102520006108203E8400831380189A2A9D2A61083E
:10253000203E8400831300149F2A8313001083120B
:102540000313EF0161080A168A15C1240A168A11BD
:10255000BA2ABA2ABA2AAC2A013083120313E0003D
:102560006008E107B32A51086102031CB82AB92A9E
:10257000DE29BA2A080083120313CE01C801C5015F
:10258000C901B401B50183160313D601D701831223
:102590000313DB0116305B02031CCF2AD02AD22A98
:1025A000EF2AEF2A5B08A03E8400831300105B082B
:1025B000A03E8400E13080055B08A03E84008012CC
:1025C0005B08A03E840000130130DA005A08DB07E4
:1025D00016305B02031CED2AEE2AD22AEF2ADB0119
:1025E00004305B02031CF52AF62AF82A2A2B2A2B30
:1025F0005B08DA005A072C3E840083130008F83980
:10260000013880005B08DA005A072C3E84008730CE
:1026100080055B08DA005A072C3E840080130314FF
:102620005B0D2C3E8400001003145B0D2C3E8400D7
:10263000801003145B0D2C3E8400E33080050130D4
:10264000DA005A08DB0704305B02031C282B292B15
:10265000F82A2A2BDB010C305B02031C302B312BB8
:10266000332B4D2B4D2B5B08B63E8400F03083138B
:1026700080055B08B63E840000125B08B63E84000D
:102680001F3080050130DA005A08DB070C305B028E
:10269000031C4B2B4C2B332B4D2BDB010C305B02E3
:1026A000031C532B542B562B6F2B6F2B5B08203E98
:1026B0008400831300145B08203E840080105B08B4
:1026C000DB3E8400831780010130DA005A08DB0703
:1026D0000C305B02031C6D2B6E2B562B6F2BDB011A
:1026E00004305B02031C752B762B782BAD2BAD2BA6
:1026F0005B08DA0001300310DA0DFF3E031D7B2B6F
:1027000003105A0DD83E8400831380015B08DA0061
:1027100001300310DA0DFF3E031D892B03105A0D03
:10272000023ED83E840080015B08DA0001300310CD
:10273000DA0DFF3E031D972B03105A0D033ED83EC2
:10274000840080010130DA005A08DB0704305B02A4
:10275000031CAB2BAC2B782BAD2BC201BC01BD01F4
:10276000BE01BF01C001C1010230DA005A08D00029
:10277000CB01CB0AD201D20ACC01CC0AD301D30AB5
:102780000230DA005A08CD000230DA005A08D100CF
:10279000D401D40A080083120313DA00DB01A92C48
:1027A000061CD32BD42BED2CDB01DB0AED2CED2CFE
:1027B00083160317881DDD2BDE2BED2C83120313EC
:1027C000DB01DB0AED2CED2C83160317081DE92B2A
:1027D000EA2BED2C83120313DB01DB0AED2CED2C2D
:1027E00083160317881CF52BF62BED2C831203138D
:1027F000DB01DB0AED2CED2C83160317081C012CE2
:10280000022CED2C83120313DB01DB0AED2CED2CE3
:1028100083160317891E0D2C0E2CED2C8312031327
:10282000DB01DB0AED2CED2C83160317091E192C96
:102830001A2CED2C83120313DB01DB0AED2CED2C9B
:1028400083160317891D252C262CED2C83120313C8
:10285000DB01DB0AED2CED2C83160317091D312C4F
:10286000322CED2C83120313DB01DB0AED2CED2C53
:1028700083160317891C3D2C3E2CED2C8312031369
:10288000DB01DB0AED2CED2C83160317091C492C08
:102890004A2CED2C83120313DB01DB0AED2CED2C0B
:1028A000881F532C542CED2CDB01DB0AED2CED2C76
:1028B000081F5B2C5C2CED2CDB01DB0AED2CED2CD6
:1028C000881E632C642CED2CDB01DB0AED2CED2C37
:1028D000081E6B2C6C2CED2CDB01DB0AED2CED2C97
:1028E000871E732C742CED2CDB01DB0AED2CED2CF8
:1028F000071E7B2C7C2CED2CDB01DB0AED2CED2C58
:10290000081C832C842CED2CDB01DB0AED2CED2C38
:10291000871D8B2C8C2CED2CDB01DB0AED2CED2C98
:10292000071D932C942CED2CDB01DB0AED2CED2CF8
:10293000861C9B2C9C2CED2CDB01DB0AED2CED2C5A
:10294000861CA32CA42CED2CDB01DB0AED2CED2C3A
:10295000ED2C5A08003A0319D02B013A0319D82B51
:10296000033A0319E42B013A0319F02B073A031930
:10297000FC2B013A0319082C033A0319142C013AD1
:102980000319202C0F3A03192C2C013A0319382C67
:10299000033A0319442C013A0319502C073A03193E
:1029A000582C013A0319602C033A0319682C013A98
:1029B0000319702C1F3A0319782C013A0319802C43
:1029C000033A0319882C013A0319902C073A03198A
:1029D000982C013A0319A02CED2C83120313DB0869
:1029E000031DF32CF42CF72CDB01DB0AF92CDB01A3
:1029F000F92C5B08FB2C08008316031391010330AC
:102A0000831203178700831603138F010C30831280
:102A100003139D005C309B003030DA005A089D049F
:102A2000F930831603139200831203138C1083165C
:102A300003138C1004308312031392008330831627
:102A40000313810082308312031381000B118B1654
:102A50001630831203178900C03083120313DA0083
:102A60005A088316031387042230930094018312BB
:102A700003139401363094008C11831603138C15C4
:102A80000614831603178515051585140514871676
:102A9000071687150715871407148316031388175D
:102AA00008178816081687160716081487150715BD
:102AB00086148614F73083120313DA005A0883163B
:102AC00003138805FE3083120313DA005A088316B5
:102AD00003138505FD3083120313DA005A088316A9
:102AE00003138505FB3083120313DA005A0883169B
:102AF00003138505DF3083120313DA005A088316A7
:102B000003138905BF3083120313DA005A088316B2
:102B100003138905FB3083120313DA005A08831666
:102B200003138605FB3083120313DA005A08831659
:102B300003138605FB3083120313DA005A08831649
:102B400003138605FB3083120313DA005A08831639
:102B500003138605FB3083120313DA005A08831629
:102B600003138605FB3083120313DA005A08831619
:102B700003138605FB3083120313DA005A08831609
:102B800003138605FB3083120313DA005A088316F9
:102B9000031386050815FD3083120313DA005A0863
:102BA000831603138805F73083120313DA005A08DB
:102BB000831603138505EF3083120313DA005A08D6
:102BC000831603138505DF3083120313DA005A08D6
:102BD000831603138505FE3083120313DA005A08A7
:102BE000831603138905FD3083120313DA005A0894
:102BF000831603138905FB3083120313DA005A0886
:102C0000831603138905EF3083120313DA005A0881
:102C10008316031389057F3083120313DA005A08E1
:102C2000831603138905EF3083120313DA005A0861
:102C3000831603178505DF3083120313DA005A0861
:102C4000831603178505BF3083120313DA005A0871
:102C5000831603178505FD3083120313DA005A0823
:102C6000831603138705EF3083120313DA005A0823
:102C70008316031386057F3083120313DA005A0884
:102C8000831603178505FE3083120313DA005A08F2
:102C9000831603138705FB3083120313DA005A08E7
:102CA000831603138605EF3083120313DA005A08E4
:102CB000BD057F30DA005A08C105FE30DA005A0837
:102CC000BE05FB30DA005A08BD053C0885003D080A
:102CD00086003E0887003F088800400889004108B8
:102CE0008316031788006400080083160313140872
:102CF000F1007108FC003C30F100710883120313ED
:102D0000CF00FC1A842E852EB32E7C19882E892E96
:102D1000B32E7C1C8C2E8D2EB32EFC1D902E912E4E
:102D2000B32E64008312031343161430F1007108AC
:102D3000B7000A168A1544220A168A11F100710892
:102D400083120317A00083120313B801FD01FD0ACB
:102D5000D801D901141FAD2EAE2EFF2FD915D914CD
:102D60001413FF2FFF2FFC1EB62EB72E8A2F7C19AF
:102D7000BA2EBB2E8A2F7C1CBE2EBF2E8A2F7D081A
:102D8000143A031DC42EC52ECC2E5915D914133058
:102D9000F1007108FD00CC2E141FCF2ED02ED42EA2
:102DA000D915D9141413D42E0A168A1544220A16DA
:102DB0008A11F1007D08203E84007108831780008D
:102DC0007D08203E84000008F1007108831203137F
:102DD000B8077D08013A031DEE2EEF2E342F0E2F7B
:102DE0000E2F0A30F1007108B700222F0A30F100CF
:102DF0007108B700222F1230F1007108B700222F9E
:102E00000A30F1007108B700222F0330F100710879
:102E1000B700222F5915D914222F222F7D08203ECA
:102E200084000008013A0319F12E033A0319F62E23
:102E3000013A0319FB2E073A0319002F013A03192F
:102E4000052F0A2F7D08203E84000008F10071083C
:102E5000D800D91315303702031C2F2F302F852FA0
:102E60005915D914852F852F7D0837020318392F5E
:102E70003A2F3D2F5915D914852F7D083706031D8C
:102E8000422F432F852F3808031D472F4A2F5914EF
:102E9000D914852F591083160317BA08031D512F13
:102EA000522F7C2FF201F20AF301722F7308143AA9
:102EB000031D5B2F5C2F5F2F0130F3025F2F720821
:102EC000203E84000008F1007308BA3E84007108B7
:102ED00080000130F1007108F2070130F100710843
:102EE000F307722F72087D020318772F782F562F61
:102EF00083120313D910852F83120313D914852F3E
:102F0000852F852F852F852F852F0130F1007108A2
:102F1000FD07FF2FFC1A8D2F8E2FA62F7C1D912FC2
:102F2000922FA62F7C18952F962FA62FFC1D992F38
:102F30009A2FA62FB9015808F1007108BA00580855
:102F40000A168A1567220A168A11FF2FFC1EA92F5E
:102F5000AA2FEB2F7C1DAD2FAE2FEB2F7C18B12F9E
:102F6000B22FEB2FE02FE02F59080A168A1567229F
:102F70000A168A11831203135908F1007108BA075F
:102F80000130F1007108B907FF2FBA090130F100D3
:102F90007108BA073A080A168A1567220A168A11B2
:102FA0000130F100710883120313B907FF2FD917FD
:102FB00055300A168A1567220A168A11FF2FFF2F2D
:102FC000831203133908003A0319B42F013A031985
:102FD000C52FD72FFF2FFC1EEE2FEF2FFF2F7C19B1
:102FE000F22FF32FFF2F7C18F62FF72FFF2F43120E
:102FF0006400FF2FFF2FFF2FFF2FFF2FFF2F080051
:10300000FF3FFF3FFF3FFF3FFF3FFF3FFF3FFF3FD0
:10301000FF3FFF3FFF3FFF3FFF3FFF3FFF3FFF3FC0
:10302000FF3FFF3FFF3FFF3FFF3FFF3FFF3FFF3FB0
:10303000FF3FFF3FFF3FFF3FFF3FFF3FFF3FFF3FA0
:10348000FF3FFF3FFF3FFF3F831203131308482A0C
:10349000080064008001840A04060319003404064D
:1034A0004A2A0A168A1573240A168A150A168A11D8
:1034B000C9210A168A150800FD0183120313B901F8
:1034C000B601BA01B80183160317BA010800F0006B
:1034D00083120313941370089300941B702A712AAB
:1034E000682A141608000A168A157D270A168A15F6
:1034F0000A128A153F200A168A150A128A111F27F6
:103500000A168A15080083120313DD00DC01882ADD
:103510005D1C8B2A8C2A912A5A08DB005B08DC0789
:10352000912A0310DA0D0310DD0CDD08031D992A22
:103530009A2A882A9B2A5C089D2A08008312031372
:10354000DB00DC01B12ADC01DC0ABC2A0A30DA002B
:103550005A08DC00BC2A0F30DA005A08DC00BC2A0A
:10356000BC2A5B08003A0319A32A013A0319A62AC8
:10357000033A0319AB2ABC2A5C08BE2A080083124E
:103580000313DE005E08DC00DD010310DC0DDD0D41
:103590005C08143EDF005D080318013E003EE000B9
:1035A000FE30DF050130E0050030DF040630E004C6
:1035B0006008DB01DB075F08DA01DA07DF2A0800B1
:1035C00083120313DF01F62A5F08DE005E08DA00CB
:1035D000DB0102300A128A15BD230A168A15013052
:1035E00083120313DE005E08DF07F62A51085F022C
:1035F000031CFB2AFC2AE42AFD2A9B01CF30DE00B3
:103600005E089D05080083120313DE01DF01082B0D
:103610005A1C0B2B0C2B122B5C08DE070318DF0A3D
:103620005D08DF0701300310DC0DDD0DFF3E031DDB
:10363000132B01300310DB0CDA0CFF3E031D1A2B99
:103640005B085A04031D252B262B082B272B5F080C
:10365000DB01DB075E08DA01DA072E2B0800831294
:103660000313DB00DC014B2BDC015C2B0230DA00A6
:103670005A08DC005C2B0330DA005A08DC005C2BB3
:103680001230DA005A08DC005C2B1330DA005A08DA
:10369000DC005C2B5C2B5B08003A0319342B013AED
:1036A0000319362B033A03193B2B013A0319402B1C
:1036B000073A0319452B5C2B5C085E2B0800FC01C4
:1036C000FD018313203084005A300A168A154922DE
:1036D0000A168A158317A0308400E7300A168A1567
:1036E00049220A168A158313A0308400E8300A168E
:1036F0008A1549220A168A1583172030840034302F
:103700000A168A1549220A168A150A128A110320F6
:103710000A168A15EF0083010A168A110E290D3048
:1037200083120313E3000030E40063080A128A11D5
:10373000DB270A168A1583120313E1006108E200F1
:103740000130E3070318E40A0030E4076208013A95
:103750000319AB2BAC2BC32BDE0163080A168A15A9
:10376000FC230A168A15013083120313E30703189A
:10377000E40A0030E407DE0163080A168A15FC2318
:103780000A168A15C32B080083120313E3010430C1
:103790006302031CCC2BCD2BCF2BFB2BFB2B630805
:1037A000E10001300310E10DFF3E031DD22B031099
:1037B000610D023ED83E8400831300080A168A1564
:1037C000BF220A168A15831203136308E2006207F8
:1037D000C23E84005A0883138000840A5B0880007C
:1037E0000130E1006108E30704306302031CF92B98
:1037F000FA2BCF2BFB2B080083120313E000002CC5
:10380000831603178C18052C062C002C072C83120A
:1038100003136008831203178D00831203135E08DD
:10382000831203178C003F3083120313DF005F08FD
:10383000831603178C058312031303108B1F212C8F
:10384000222C232C03148B13831603170C155530CD
:103850008D00AA308D008C140C1183120313031CED
:10386000322C332C362C8B17362C362C08000B1DA3
:103870003A2C3B2C542C8B1E3E2C3F2C542CCE012E
:10388000CE0A0130F7007708C5070130F700770846
:10389000CA070A168A1511250A168A15823083125C
:1038A000031381020B11542C8C1D572C582C662CA1
:1038B0008C11831603138C1D5E2C5F2C662C0A164C
:1038C0008A1175260A168A15662C662C7B088312C7
:1038D0000313FF007A088A0079088400780E8300B9
:1038E000FE0E7E0E090083120313E301B92C630A56
:1038F000DE000130DF000030E000812C0310DF0D1E
:10390000E00DDE0B7E2C5F08E1006008E20061083C
:103910003405DE0062083505DF005F085E04031D24
:10392000922C932CA32C4219962C972CA32C630831
:10393000DE005E08DA00DB0100300A128A15BD23C2
:103940000A168A15B22C831203136308DE005E0880
:10395000DA00DB01DB0A00300A128A15BD230A16E1
:103960008A15B22C013083120313DE005E08E307D0
:10397000B92C52086302031CBE2CBF2C772CC02C20
:10398000080083120313DF005F08203E84008313C6
:103990000018CB2CCC2CED2CDA01DB0101300A1203
:1039A0008A15BD230A168A155C30831203139B0007
:1039B0003030DE005E089D041430DE005E08C70073
:1039C0005F08DE005E08DA00DB01DB0A02300A1263
:1039D0008A15BD230A168A15102D83120313DA01E6
:1039E000DA0ADB0101300A128A15BD230A168A158C
:1039F000831203139B01CF30DE005E089D05143057
:103A0000DE005E08C7005F08DE005E08DA00DB014A
:103A1000DB0A02300A128A15BD230A168A15102DF8
:103A200008008312031353085702031C182D192D85
:103A30001B2DD7011B2D5708F3007307C23E8400CE
:103A400083130008840A00040319272D282D642DF0
:103A50005708F3007307C23E84000008F400840A8C
:103A60000008F500741C352D362D3F2DF001F00AAD
:103A700057080A168A1104200A168A15492DF001E2
:103A80008312031357080A168A1104200A168A158E
:103A9000492D831203135708F3007307C23E8400B5
:103AA00083130008F400840A0008F5000310F50CE5
:103AB000F40C5708F6007607C23E840074088000B4
:103AC000840A75088000692D0130F3007308D70758
:103AD000692D080083120313DD00DC0154085D0228
:103AE0000318732D742D7B2D06305D02031C792D78
:103AF0007A2DBB2D7B2D0130C82DC82DBB2D5D0827
:103B0000CA3E840083138008031D872D882D8F2DC6
:103B10007830DB005D08CA3E84005B0880005D08E9
:103B2000CA3E84000008DB005D08D03E84005B08CC
:103B30008000C62D5D08D03E840083138001C62D11
:103B40005D08D03E8400831380080319A82DA92D99
:103B5000B62D3B08013A031DAE2DAF2DC62D5D08D5
:103B6000D03E840001308002C62DC62DDC01DC0A67
:103B7000C62DC62DC62D5A08003A03197F2D013ACD
:103B800003199A2D033A0319A02DC62D5C08C82DE0
:103B9000080083120313DE01212E5E080A168A1123
:103BA000CB230A168A1583120313DC005C08DD00A0
:103BB0005E08A03E84008313000801395D060319E6
:103BC000E22DE32DF02D5E08A03E84005D0800107C
:103BD000031D00145E08A03E8400E13080051A2E0B
:103BE0005E08A03E8400000C0F39DC0004305C024B
:103BF0000318FB2DFC2D0A2E5E08A03E8400000C4D
:103C00000F39DC00DC0ADC0D00085C06E1395C06DB
:103C100080001A2E5E08A03E84000018132E162E77
:103C20005E08A03E840083138016182E8313801232
:103C30001A2E1A2E013083120313DC005C08DE07F3
:103C4000212E50085E02031C262E272ECD2D282E55
:103C5000080083120313DB00DC016B2E0430DA0052
:103C60005A08DC00912E0530DA005A08DC00912E4B
:103C70000630DA005A08DC00912E0730DA005A08C4
:103C8000DC00912E0830DA005A08DC00912E093051
:103C9000DA005A08DC00912E0B30DA005A08DC00FA
:103CA000912E0C30DA005A08DC00912E0D30DA002B
:103CB0005A08DC00912E0E30DA005A08DC00912EF2
:103CC0001030DA005A08DC00912E1130DA005A0860
:103CD000DC00912E912E5B08003A03192E2E013A3A
:103CE0000319332E033A0319382E013A03193D2ED6
:103CF000073A0319422E013A0319472E033A0319D2
:103D00004C2E013A0319512E0F3A0319562E013A3F
:103D100003195B2E033A0319602E013A0319652E2D
:103D2000912E5C08932E080083120313E500E40132
:103D30005208650203189D2E9E2EA52E0D30650299
:103D4000031CA32EA42EA82EA52E6408052F052F34
:103D5000E008031DAC2EAD2EB72E6508E10061070B
:103D6000A03E840083178001840A8001032F650828
:103D7000E1006107A03E840083170008840A000464
:103D80000319C32EC42EE12E6508E1006107A03E91
:103D9000840001308002840F0030031C8003800205
:103DA00084036508E1006107A03E84000008840ADE
:103DB0000004031DDC2EDD2E032FE401E40A032F93
:103DC000032F6508CE3E84000008E100E20161088F
:103DD000DA006208DB003C30DC000030DD000A164F
:103DE0008A1503230A168A15831203136508E30054
:103DF0006307A03E84005A0883178000840A5B088A
:103E00008000032F032F6408052F0800143083124D
:103E10000313DA005A08D0000530DA005A08CB0044
:103E20000530DA005A08D2000330DA005A08CC0014
:103E30000330DA005A08D3000C30DA005A08CD00FB
:103E40000C30DA005A08D1005108DA0003105A0C7D
:103E5000DB005B08D40017305002031C302F312FD9
:103E6000352F1630DA005A08D0000E304B02031CF2
:103E70003A2F3B2F3F2F0D30DA005A08CB000E307F
:103E80005202031C442F452F492F0D30DA005A08E7
:103E9000D20005304C02031C4E2F4F2F532F0430FD
:103EA000DA005A08CC0005305302031C582F592F52
:103EB0005D2F0430DA005A08D3000D304D02031C88
:103EC000622F632F672F0C30DA005A08CD000D30B7
:103ED0005102031C6C2F6D2F712F0C30DA005A0821
:103EE000D10007305402031C762F772F7C2F063029
:103EF000DA005A08D4007C2F080083120313E20171
:103F0000F82F620ADD000130DE000030DF008B2F69
:103F10000310DE0DDF0DDD0B882F5E08E0005F086B
:103F2000E10062080A168A152F230A168A158312E1
:103F30000313DD005D08E3006308A03E84008313E3
:103F4000000EDD00DD0C5D0C0139DE006308A03ED3
:103F50008400000EDF005F0C01395E060319B12FEB
:103F6000B22FDF2F6308A03E8400801AB82FB92F2C
:103F7000CE2F6308A03E840000136108DE006008B5
:103F8000DD00DD09DE095D0883160313D605831203
:103F900003135E0883160313D705F12F83126308FA
:103FA000A03E84000017600883160313D604831212
:103FB0000313610883160313D704F12FF12F831223
:103FC0006108DE006008DD00DD09DE095D0883169A
:103FD0000313D605831203135E0883160313D70554
:103FE000F12F013083120313DD005D08E207F82F83
:103FF0004B086202031CFD2FFE2F812FFF2F0800AC
:02400E00F23F7F
:10420000FF00FF00FF00FF00FF00FF00FF00FF00B6
:10421000FF00FF00FF00FF00FF0001005500AA00A3
:10422000000000000000000002000000000000008C
:10423000000000000000FF00FF000000FF00FF0082
:10424000FF00FF00FF00FF00FF00FF00FF00FF0076
:10425000FF00FF0078007800780078007800780090
:10426000FF00FF0000000000000000000000000050
:104270000000000000000000000000000000FF003F
:10428000FF00FF001D00FF00FF00FF00FF00FF0018
:10429000FF00FF00FF00FF00FF00FF00FF00FF0026
:1042A000FF00FF00FF00FF00FF00FF00FF00FF0016
:1042B000FF00FF00FF00FF00FF00FF00FF00FF0006
:1042C000FF00FF00FF00FF00FF00FF00FF00FF00F6
:1042D000FF00FF00FF00FF00FF00FF00FF00FF00E6
:1042E000FF00FF00FF00FF00FF00FF00FF00FF00D6
:1042F000FF00FF00FF00FF00FF00FF00FF00FF00C6
:10430000FF00FF00FF00FF00FF00FF00FF00FF00B5
:10431000FF00FF00FF00FF00FF00FF00FF00FF00A5
:10432000FF00FF00FF00FF00FF00FF00FF00FF0095
:10433000FF00FF00FF00FF00FF00FF00FF00FF0085
:10434000FF00FF00FF00FF00FF00FF00FF00FF0075
:10435000FF00FF00FF00FF00FF00FF00FF00FF0065
:10436000FF00FF00FF00FF00FF00FF00FF00FF0055
:10437000FF00FF00FF00FF00FF00FF00FF00FF0045
:10438000FF00FF00FF00FF00FF00FF00FF00FF0035
:10439000FF00FF00FF00FF00FF00FF00FF00FF0025
:1043A000FF00FF00FF00FF00FF00FF00FF00FF0015
:1043B000FF00FF00FF00FF00FF00FF00FF00FF0005
:1043C000FF00FF00FF00FF00FF00FF00FF00FF00F5
:1043D000FF00FF00FF00FF00FF00FF00FF00FF00E5
:1043E000FF00FF00FF00FF00FF00FF00FF00FF00D5
:1043F000FF00FF00FF00FF00FF00FF00FF00FF00C5
:08400000FF3FFF3FFF3FFF3FC0
:00000001FF
