:100000000A128A1112280534FE00030EF8000408B3
:10001000F9000A08FA00831203137F08FB000A168E
:100020008A15E62B0A168A15402B83120313ED015D
:100030006E286D0AE6000130E7000030E800232852
:100040000310E70DE80DE60B20286708E9006808B3
:10005000EA00690883160313560583120313E600AA
:100060006A0883160313570583120313E700670812
:10007000660403193C283D2843286908B4066A0829
:10008000B506432843283B08013A031D4828492860
:10009000672834086905E6006608E0006D080A165E
:1000A0008A1592260A128A11013A031D58285928E6
:1000B0006728831203136A08E7006908E600E60967
:1000C000E7096608B4056708B505672867280130A1
:1000D00083120313E6006608ED076E2852086D02CE
:1000E000031C732874281928ED013B2A6D08E600CB
:1000F0006607E7006708EC006C08013EE60066084A
:10010000EB00AD28982898289828872887286C081D
:10011000B63E8400831300081F39203880006B0826
:10012000B63E840000081F39203880006429642905
:100130006B08B63E84008313000EE600660C073998
:10014000023A03198728013A03198728073A031945
:10015000872864296429642964296C08B63E8400D0
:100160008313000EE600660C0739023A031998283B
:10017000013A03199828073A031998286429642931
:100180006C08203E84008018C628C728E8286B0821
:10019000203E8400801CCD28CE28D3286B08203E2A
:1001A00084008010D328DA016D080A168A1571259B
:1001B0000A128A11DB28831203136C08203E840084
:1001C000831380146C08B63E84001F3080051D2AFE
:1001D000DA01DA0A6D080A168A1571250A128A11DF
:1001E000F128831203136C08203E840083138010CF
:1001F0006C08B63E84001F3080051D2A1D2ADA01D6
:10020000DA0A6D080A168A1571250A128A11082958
:10021000831203136C08203E8400831380146B0840
:10022000203E840080101D2ADA01DA0A6D080A16C1
:100230008A1571250A128A111D29831203136C086D
:10024000203E8400831380106C08B63E84001F306B
:1002500080051D2A6B08203E8400801C302931292E
:1002600036296B08203E840080103629DA016D089B
:100270000A168A1571250A128A113E298312031360
:100280006C08203E8400831380146C08B63E840002
:100290001F3080051D2A0230E6006608DA006D086E
:1002A0000A168A1571250A128A11013A031D592965
:1002B0005A291D2A831203136C08203E84008313DD
:1002C00080101D2A1D2A1D2A6C08B63E8400000ECF
:1002D000E600660C0739013A03191429033A031999
:1002E000C028013A0319FF28073A03192A294B2984
:1002F0001D2A6B08203E840080187F298029A129AF
:100300006C08203E8400801C862987298C296C0873
:10031000203E840080108C29DA016D080A168A15A7
:1003200071250A128A119429831203136B08203E47
:100330008400831380146B08B63E84001F30800550
:10034000342ADA01DA0A6D080A168A1571250A12AA
:100350008A11AA29831203136B08203E8400831399
:1003600080106B08B63E84001F308005342A342A82
:10037000DA01DA0A6D080A168A1571250A128A113D
:10038000C129831203136B08203E84008313801459
:100390006C08203E84008010342ADA01DA0A6D08E5
:1003A0000A168A1571250A128A11D6298312031397
:1003B0006B08203E8400831380106B08B63E8400D7
:1003C0001F308005342A6C08203E8400801CE929F7
:1003D000EA29EF296C08203E84008010EF29DA0119
:1003E0006D080A168A1571250A128A11F7298312D7
:1003F00003136B08203E8400831380146B08B63E01
:1004000084001F308005342A0230E6006608DA00D6
:100410006D080A168A1571250A128A11013A031D00
:10042000122A132A342A831203136B08203E8400F5
:1004300083138010342A342A342A831203136B085E
:10044000B63E84008313000EE600660C0739013ABD
:100450000319CD29033A03197929013A0319B82957
:10046000073A0319E329042A013083120313E60033
:100470006608ED073B2A54086D02031C402A412AF6
:100480007628ED01C12C832C9F2C6D08E6000130ED
:100490000310E60DFF3E031D482A0310660DD83EEB
:1004A00084008313800103146D0D2C3E84008012A0
:1004B00003146D0D2C3E8400E33080059F2C6D08E5
:1004C000E60066072C3E840000080739023A03194B
:1004D0006A2A6B2A782A6D08E60066072C3E84009B
:1004E000000807390038031D762A772A892A782AD6
:1004F0006430E6006D08E70001300310E70DFF3EB1
:10050000031D7D2A0310670D013ED83E8400660856
:1005100080006D08E60001300310E60DFF3E031D6C
:100520008C2A0310660D013ED83E84000008803AF4
:100530007F3E03189C2A9D2AAE2A6430E6006D088F
:10054000E70001300310E70DFF3E031DA22A031050
:10055000670D013ED83E8400660880006D08E60005
:1005600001300310E60DFF3E031DB12A0310660D96
:10057000013ED83E84000008E7006D08E800013025
:100580000310E80DFF3E031DC02A0310680DD83E7E
:1005900084006708800003146D0D2C3E84008012D7
:1005A00003146D0D2C3E8400E33080059F2C6D08F4
:1005B000E60066072C3E840000080739023A03195A
:1005C000E22AE32AF02A6D08E60066072C3E840042
:1005D000000807390038031DEE2AEF2A012BF02A04
:1005E0006430E6006D08E70001300310E70DFF3EC0
:1005F000031DF52A0310670D013ED83E84006608EE
:1006000080006D08E60001300310E60DFF3E031D7B
:10061000042B0310660DD83E84000008803A7F3E0C
:10062000031C132B142B272B6D08E600013003103D
:10063000E60DFF3E031D172B0310660DD83E840008
:10064000800103146D0D2C3E840080126E2B6D080A
:10065000E60001300310E60DFF3E031D2A2B0310B8
:10066000660D013ED83E84000008803A7F3E0318A4
:100670003A2B3B2B4C2B6430E6006D08E700013031
:100680000310E70DFF3E031D402B0310670D013ED5
:10069000D83E8400660880006D08E6000130031033
:1006A000E60DFF3E031D4F2B0310660D013ED83EA5
:1006B00084000008E7006D08E80001300310E80D31
:1006C000FF3E031D5E2B0310680DD83E84006708B3
:1006D000800003146D0D2C3E8400801203146D0DF8
:1006E0002C3E8400E33080059F2C6430E6006D08CA
:1006F000E70001300310E70DFF3E031D7A2B0310C6
:10070000670DD83E84006608800003146D0D2C3EF2
:100710008400801603146D0D2C3E8400E3308005A8
:100720009F2C0130E6006608C40704304402031C15
:100730009A2B9B2B9F2CC40103146D0D2C3E84001F
:10074000801AA32BA42BFD2B6D08E60001300310AB
:10075000E60DFF3E031DA72B0310660DD83E840057
:100760000008803A1E3E0318B62BB72BC82B023068
:10077000E6006D08E70001300310E70DFF3E031DA2
:10078000BC2B0310670DD83E840066088007D82B69
:100790006430E6006D08E70001300310E70DFF3E0E
:1007A000031DCD2B0310670DD83E84006608800022
:1007B0006D08E60001300310E60DFF3E031DDB2B44
:1007C0000310660DD83E84000008803A763E031878
:1007D000EA2BEB2B4F2C0A30E6006D08E7000130C6
:1007E0000310E70DFF3E031DF02B0310670DD83EED
:1007F0008400660880004F2C4F2C6D08E600013005
:100800000310E60DFF3E031D002C0310660DD83EBD
:1008100084000008803A7D3E031C0F2C102C212CF4
:10082000FE30E6006D08E70001300310E70DFF3EE3
:10083000031D152C0310670DD83E84006608800741
:100840002E2C6D08E60001300310E60DFF3E031D5F
:10085000242C0310660DD83E840080016D08E6004C
:1008600001300310E60DFF3E031D312C0310660D11
:10087000D83E84000008803A763E0318402C412C74
:100880004F2C6D08E60001300310E60DFF3E031DFE
:10089000442C0310660DD83E840080014F2C6D0857
:1008A000E60001300310E60DFF3E031D522C03103D
:1008B000660DD83E84000008803A753E031C612C0A
:1008C000622C9F2C6D08E60001300310E60DFF3E00
:1008D000031D652C0310660DD83E84000008E70058
:1008E0006D08E80001300310E80DFF3E031D732C76
:1008F0000310680D013ED83E8400670880009F2CDD
:100900009F2C9F2C9F2C03146D0D2C3E8400831371
:10091000000CE600660C0739003A03199F2C013AD7
:100920000319452A033A03195F2A013A0319D72A02
:10093000073A0319752B013A0319912B9F2C6D0867
:10094000E60066072C3E8400831300080739E700A1
:100950006708DA006D08E80001300310E80DFF3E7B
:10096000031DAD2C0310680DD83E0A168A1570239E
:100970000A128A11013083120313E6006608ED079C
:10098000C12C53086D02031CC62CC72C832CC82C09
:1009900008000E3083120313E7000030E800E40182
:1009A000E50167080A168A15BF220A128A11831206
:1009B0000313E100E2016108E4006208E500013090
:1009C000E7070318E80A0030E80767080A168A15DF
:1009D000BF220A128A1183120313E100E2016108A7
:1009E000E200E1016108E4046208E5040130E70780
:1009F0000318E80A0030E807AA306506031D022D37
:100A000055306406031D052D062D032E67080A16B2
:100A10008A15BF220A128A1183120313E100E20130
:100A20006108B4006208B5000130E7070318E80A5E
:100A30000030E80767080A168A15BF220A128A11D1
:100A400083120313E100E2016108E200E1016108A1
:100A5000B4046208B5040130E7070318E80A00305F
:100A6000E807E601922D67080A168A15BF220A12C6
:100A70008A1183120313E1006608E20001300310BB
:100A8000E20DFF3E031D3F2D0310620DD83E840092
:100A90006108831380000130E7070318E80A00307B
:100AA000E80767080A168A15BF220A128A118312FC
:100AB0000313E1006608E20001300310E20DFF3E7F
:100AC000031D5D2D0310620D013ED83E84006108B8
:100AD000831380000130E7070318E80A0030E807B5
:100AE00067080A168A15BF220A128A118312031395
:100AF000E10007306105E2006608E30063072C3E71
:100B00008400831300086206F83962068000013011
:100B1000E7070318E80A0030E8070130E100610840
:100B2000E607922D53086602031C972D982D332D4E
:100B3000992D2A30E7000030E800E6010630660211
:100B4000031CA32DA42DA62DC62DC62D67080A169D
:100B50008A15BF220A128A1183120313E100660864
:100B6000CA3E84006108831380000130E707031840
:100B7000E80A0030E8070130E1006108E6070630C6
:100B80006602031CC42DC52DA62DC62D3230E700EC
:100B90000030E800E6010D306602031CD02DD12D97
:100BA000D32DF32DF32D67080A168A15BF220A12DA
:100BB0008A1183120313E1006608CE3E84006108A7
:100BC000831780000130E7070318E80A0030E807C0
:100BD0000130E1006108E6070D306602031CF12DCB
:100BE000F22DD32DF32D4230E7000030E8006708E6
:100BF0000A168A15BF220A128A1183120313E10012
:100C00006108D600332FDE0167080A168A15AB2368
:100C10000A128A11013083120313E7070318E80A46
:100C20000030E807DE0167080A168A15AB230A12AE
:100C30008A11013083120313E7070318E80A003012
:100C4000E807B401B501E6017E2EDE0167080A1649
:100C50008A15AB230A128A11013083120313E707A6
:100C60000318E80A0030E807DE0167080A168A154B
:100C7000AB230A128A11013083120313E70703180A
:100C8000E80A0030E8076608E10001300310E10DD2
:100C9000FF3E031D462E0310610DD83E84008313D2
:100CA00080016608E10001300310E10DFF3E031DE5
:100CB000542E0310610D013ED83E84008001DE01F8
:100CC000DE0A67080A168A15AB230A128A11013058
:100CD00083120313E7070318E80A0030E8076608E1
:100CE000E10061072C3E840083130008F8390138C5
:100CF00080000130E1006108E6077E2E530866029D
:100D0000031C832E842E252E852E2A30E7000030EA
:100D1000E800E60106306602031C8F2E902E922E0C
:100D2000B72EB72E7830E1006108DE0067080A169A
:100D30008A15AB230A128A11013083120313E707C5
:100D40000318E80A0030E8077830E1006608CA3E78
:100D500084006108831380000130E1006108E60728
:100D600006306602031CB52EB62E922EB72E3230F8
:100D7000E7000030E800E6010D306602031CC12EDA
:100D8000C22EC42EE32EE32EDE0167080A168A1552
:100D9000AB230A128A11013083120313E7070318E9
:100DA000E80A0030E8076608CE3E84008317800119
:100DB0000130E1006108E6070D306602031CE12EF8
:100DC000E22EC42EE32E4230E7000030E800D601C8
:100DD0005608E1006108DE0067080A168A15AB2391
:100DE0000A128A11013083120313E7070318E80A75
:100DF0000030E8070D30E7000030E800DE01DE0AD1
:100E000067080A168A15AB230A128A110130831269
:100E10000313E7070318E80A0030E8075530E1003C
:100E20006108DE0067080A168A15AB230A128A11C8
:100E3000013083120313E7070318E80A0030E807BC
:100E4000AA30E1006108DE0067080A168A15AB23A4
:100E50000A128A11013083120313E7070318E80A04
:100E60000030E807332F080083120313E101E82F55
:100E700061080A168A1106200A128A1183120313C6
:100E8000DD005D08E0006008A03E84008313000ED2
:100E9000DD00DD0C5D0C0139DE006008A03E840041
:100EA000000EDF005F0C01395E060319582F592F21
:100EB0006E2F6008A03E8400801A5F2F602F652F80
:100EC0006008A03E84000013692F6008A03E8400E3
:100ED00000176108B63E8400F03080056008A03E2F
:100EE0008400801A742F752FB92F6108B63E8400D4
:100EF00000080F39DD0006305D020318802F812FB6
:100F00008E2F6108B63E840000080F39DD00DD0A2F
:100F100000085D06F0395D068000922F6108B63E3C
:100F2000840000126108B63E8400001E982F992F9D
:100F3000A42F6108B63E840000081F3940388000A5
:100F40006108B63E840000126108B63E8400000EBF
:100F5000DD005D0C0739033A031DAF2FB02FE32FDF
:100F60006108B63E840000081F3920388000E32F56
:100F7000E32F6108B63E840000080F39DD0006301B
:100F80005D020318C42FC52FD62F6108B63E84001A
:100F900000080F39DD00DD0A00085D06F0395D0646
:100FA00080006108B63E84000016E32F6108B63E5B
:100FB000840000081F39603880006108B63E840054
:100FC0000012E32FE32F0130DD005D08E107E82F79
:100FD0004D086102031CED2FEE2F382FEF2F080074
:100FE0000A168A157D270A128A110A128A153920D3
:100FF0000A128A110A128A1134270A128A11080069
:101008000D3083120313E3000030E40063080A166E
:101018008A15BF220A128A1583120313E100610898
:10102800E2000130E3070318E40A0030E40762082D
:10103800013A0319202821283828DE0163080A16F6
:101048008A15AB230A128A15013083120313E307AA
:101058000318E40A0030E407DE0163080A168A155B
:10106800AB230A128A153828080083120313E101FA
:10107800C12961080A168A1556220A128A1583128E
:101088000313DD005D08E000AA294A286008A03E95
:1010980084008313000EDD00DD0C5D0C0139DE00D9
:1010A8006008A03E8400000EDF005F0C01395E0678
:1010B80003195F286028BC296008A03E8400801AB4
:1010C800662867286C286008A03E84000013BC29A5
:1010D8006008A03E840000170314610D2C3E8400B4
:1010E8000008E3390C388000BC29BC29BC296008F9
:1010F800A03E8400000EDD00DD0C5D0C0139DE0031
:101108006008A03E8400000EDF005F0C01395E0617
:1011180003198F289028A7286008A03E8400801A09
:10112800962897289C286008A03E84000013A028D1
:101138006008A03E840000176108DD005D072C3EB2
:101148008400873080056008A03E8400801AAD289E
:10115800AE2854296108DD005D072C3E8400000C90
:10116800DE00DE0C5E0C0F39DF0006305F0203186C
:10117800BE28BF28E3286108DD005D072C3E8400F7
:10118800000CDE00DE0C5E0C0F39DE00DE0ADE0D20
:10119800DE0DDE0D00085E0687395E0680006108F8
:1011A800DD005D072C3E8400801FDB28DC28F32847
:1011B8000314610D2C3E84000014F328F328610801
:1011C800DD005D072C3E840080130314610D2C3E66
:1011D800840000100314610D2C3E84008010610807
:1011E800DD005D072C3E8400801FFB28FC280A29AF
:1011F8000314610D2C3E84000008E3390C3880008C
:101208006108DD005D072C3E840080130314610D26
:101218002C3E8400801C112912292A290314610DEF
:101228002C3E84000008E339103880006108DD0096
:101238005D072C3E840080130314610D2C3E84004E
:1012480000100314610D2C3E840080100314610DFE
:101258002C3E8400000CDD005D0C0739053A031DA7
:1012680036293729BC290314610D2C3E8400E3304C
:1012780080050314610D2C3E8400000EDD005D0C1A
:101288000139013ADE000314610D2C3E8400DE0EA4
:10129800DE0D00085E06DF395E068000BC29BC2929
:1012A8006108DD005D072C3E8400000CDE00DE0CCA
:1012B8005E0C0F39DF0006305F02031864296529C8
:1012C8008E296108DD005D072C3E8400000CDE00DD
:1012D800DE0C5E0C0F39DE00DE0ADE0DDE0DDE0DE3
:1012E80000085E0687395E0680006108DD005D073C
:1012F8002C3E840080170314610D2C3E8400001CD2
:1013080086298729BC290314610D2C3E840080148A
:10131800BC29BC290314610D2C3E84000008E33964
:10132800143880006108DD005D072C3E84008013BE
:101338000314610D2C3E840000100314610D2C3E33
:1013480084008010BC29BC29BC29BC296108DD00A7
:101358005D072C3E8400831300080739003A0319FF
:101368004A28013A03197B28033A03194A28BC2959
:101378000130DD005D08E107C1294C086102031C4A
:10138800C629C7293D28C829080083120313E40188
:10139800B22B6408E10001300310E10DFF3E031D8C
:1013A800D0290310610D033ED83E840083138008C2
:1013B8000319DF29E029AD2B6408E100013003108F
:1013C800E10DFF3E031DE3290310610D033ED83EE6
:1013D80084000008E2006408E30001300310E30D14
:1013E800FF3E031DF2290310630D023ED83E840020
:1013F800620880076408E10001300310E10DFF3E38
:10140800031D012A0310610D033ED83E8400000825
:10141800803A7F3E031C112A122A622A6408E100DE
:1014280001300310E10DFF3E031D152A0310610D65
:10143800023ED83E84000008803AE2006408E300D7
:1014480001300310E30DFF3E031D252A0310630D31
:10145800D83E84000008803AE202031C342A352A68
:10146800B12A6408E10001300310E10DFF3E031DBD
:10147800382A0310610DD83E84000008E200640891
:10148800E30001300310E30DFF3E031D462A03105D
:10149800630D023ED83E8400620880006408E100C3
:1014A80001300310E10DFF3E031D552A0310610DA5
:1014B800033ED83E84008001B12AB12A6408E100C5
:1014C80001300310E10DFF3E031D652A0310610D75
:1014D800D83E84000008803AE2006408E300013046
:1014E8000310E30DFF3E031D742A0310630D023E33
:1014F800D83E84000008803AE202031C842A852A28
:10150800B12A6408E10001300310E10DFF3E031D1C
:10151800882A0310610DD83E84000008E2006408A0
:10152800E30001300310E30DFF3E031D962A03106C
:10153800630D023ED83E8400620880006408E10022
:1015480001300310E10DFF3E031DA52A0310610DB4
:10155800033ED83E84008001B12A6408E1000130CE
:101568000310E10DFF3E031DB42A0310610D023E76
:10157800D83E84000008803A1B3E031CC42AC52AB2
:10158800D62A6430E1006408E20001300310E20D5D
:10159800FF3E031DCA2A0310620D023ED83E840096
:1015A800610880006408E10001300310E10DFF3E8E
:1015B800031DD92A0310610D023ED83E8400801F06
:1015C800E62AE72AF62A6408E10001300310E10D53
:1015D800FF3E031DEA2A0310610D023ED83E840037
:1015E8008001F62A4219F92AFA2A9A2B5D2B5D2BDB
:1015F8006408E10001300310E10DFF3E031DFF2ADE
:101608000310610D023ED83E84000008803A6C3E0B
:1016180003180F2B102B242B6B300A168A159A22CD
:101628000A128A15831203136408E1006107C23E97
:1016380084005A0883138000840A5B088000AD2B5D
:101648006A300A168A159A220A128A158312031317
:101658006408E1006107C23E84005A0883138000D1
:10166800840A5B088000AD2BAD2B3A2B6408E1009F
:1016780001300310E10DFF3E031D3D2B0310610DEA
:10168800023ED83E840000086E3E0A168A159A2249
:101698000A128A15831203136408E2006207C23E25
:1016A80084005A0883138000840A5B088000AD2BED
:1016B800AD2B6408E10061072C3E8400000807395F
:1016C800003A03193A2B013A03193A2B033A031942
:1016D800FC2AAD2BAD2B9A2B6A300A168A159A2252
:1016E8000A128A15831203136408E1006107C23ED7
:1016F80084005A0883138000840A5B088000AD2B9D
:10170800852BD2300A168A159A220A128A15831254
:1017180003136408E1006107C23E84005A0883137A
:101728008000840A5B088000AD2BAD2B6408E100C3
:1017380061072C3E840000080739003A0319852BFD
:10174800013A0319852B033A0319702BAD2BAD2BE6
:10175800AD2B0130E1006108E407B22B53086402A5
:10176800031CB72BB82BCD29B92B08008312031300
:10177800DD009F2D5C2C5B08031DC32BC52B3C147F
:10178800B02DFE30DC005C08BC05B02DB02D5B0828
:10179800031DCF2BD12BBC14B02DFD30DC005C0811
:1017A800BC05B02DB02D5B08031DDB2BDD2B3C15D4
:1017B800B02DFB30DC005C08BC05B02DB02D5B08FB
:1017C800031DE72BE92BC016B02DDF30DC005C08C9
:1017D800C005B02DB02D5B08031DF32BF52B40176A
:1017E800B02DBF30DC005C08C005B02DB02D5B0803
:1017F800031DFF2B012C3D15B02DFB30DC005C08D0
:10180800BD05B02DB02D5B08031D0B2C0D2C3D150F
:10181800B02DFB30DC005C08BD05B02DB02D5B0899
:10182800031D172C192C3D15B02DFB30DC005C086E
:10183800BD05B02DB02D5B08031D232C252C3D15AF
:10184800B02DFB30DC005C08BD05B02DB02D5B0869
:10185800031D2F2C312C3D15B02DFB30DC005C080E
:10186800BD05B02DB02D5B08031D3B2C3D2C3D154F
:10187800B02DFB30DC005C08BD05B02DB02D5B0839
:10188800031D472C492C3D15B02DFB30DC005C08AE
:10189800BD05B02DB02D5B08031D532C552C3D15EF
:1018A800B02DFB30DC005C08BD05B02DB02DB02D8F
:1018B8005A08003A0319BF2B013A0319CB2B033AF4
:1018C8000319D72B013A0319E32B073A0319EF2B16
:1018D800013A0319FB2B033A0319072C013A0319A0
:1018E800132C0F3A03191F2C013A03192B2C033A16
:1018F8000319372C013A0319432C073A03194F2CC3
:10190800B02DB02D8F2CFD30DC005C08BF05B02D4C
:10191800BF14B02DB02D5A08003A0319872C013A8C
:1019280003198C2CB02DB02D2A2D5B08031D9D2C7E
:101938009F2CBC15B02DF730DC005C08BC05B02D21
:10194800B02D5B08031DA92CAB2C3C16B02DEF3035
:10195800DC005C08BC05B02DB02D5B08031DB52C60
:10196800B72CBC16B02DDF30DC005C08BC05B02DF0
:10197800B02D5B08031DC12CC32C4014B02DFE30C4
:10198800DC005C08C005B02DB02D5B08031DCD2C14
:10199800CF2CC014B02DFD30DC005C08C005B02D84
:1019A800B02D5B08031DD92CDB2C4015B02DFB3066
:1019B800DC005C08C005B02DB02D5B08031DE52CCC
:1019C800E72C4016B02DEF30DC005C08C005B02DC8
:1019D800B02D5B08031DF12CF32CC017B02D7F3000
:1019E800DC005C08C005B02DB02D5B08031DFD2C84
:1019F800FF2C4116B02DEF30DC005C08C105B02D7E
:101A0800B02D5B08031D092D0B2DC116B02DDF303D
:101A1800DC005C08C105B02DB02D5B08031D152D39
:101A2800172D4117B02DBF30DC005C08C105B02D63
:101A3800B02D5B08031D212D232DBE14B02DFD30C4
:101A4800DC005C08BE05B02DB02DB02D5A08003A58
:101A58000319992C013A0319A52C033A0319B12C3F
:101A6800013A0319BD2C073A0319C92C013A031985
:101A7800D52C033A0319E12C013A0319ED2C0F3A3E
:101A88000319F92C013A0319052D033A0319112DED
:101A9800013A03191D2DB02DB02D832D5B08031DB0
:101AA800562D582D3D16B02DEF30DC005C08BD05D5
:101AB800B02DB02D5B08031D622D642DC117B02D0C
:101AC8007F30DC005C08C105B02DB02D5B08031D1C
:101AD8006E2D702D3E14B02DFE30DC005C08BE0566
:101AE800B02DB02D5B08031D7A2D7C2D3D15B02D32
:101AF800FB30DC005C08BD05B02DB02DB02D5A08B8
:101B0800003A0319522D013A03195E2D033A0319BD
:101B18006A2D013A0319762DB02DB02D5B08031DEF
:101B2800962D982DBF15B02DF730DC005C08BF0549
:101B3800B02DB02DB02D5D08003A03195C2C013A88
:101B480003198F2C033A03192A2D013A0319832DFF
:101B5800073A0319922DB02D3C0885003D088600F0
:101B68003E0887003F08880040088900410883161E
:101B7800031788000800831603173A08031DC52DAC
:101B88009B2F892F892F3C0883120313B4048316D3
:101B980003173E0883120313B504831603173D0881
:101BA80083120313E800831603173B0883120313F9
:101BB800E700E709E8096708B4056808B505EC0116
:101BC800EB01EB0A04306C02031CEB2DEC2DEE2D1F
:101BD800262E262E831603174008831203136B053F
:101BE8000319F72DF82D022E03146C0D2C3E8400DA
:101BF80083130008E33908388000022E8316031780
:101C08003F08831203136B0503190B2E0C2E162E97
:101C180003146C0D2C3E840083130008E339043848
:101C28008000162E0130E7006708EC076B08E70014
:101C38006707E8006808EB0004306C02031C252ED7
:101C4800262EEE2DEC01EB01EB0A06306C02031C8C
:101C58002E2E2F2E312E732E732E6C08E700670759
:101C6800E8006808EA006A08013EE7006708E9003A
:101C7800831603174108831203136B050319452EB6
:101C8800462E4F2E6A08B63E8400831300081F397B
:101C980080388000632E83160317420883120313CB
:101CA8006B050319582E592E632E6908B63E840019
:101CB800831300081F3980388000632E632E01309B
:101CC800E7006708EC076B08E7006707E8006808A3
:101CD800EB0006306C02031C722E732E312E831615
:101CE8000317BA019B2F83120313EC0104306C0213
:101CF800031C7F2E802E822ECF2ECF2E6C08E7005D
:101D080067072C3E8400831300080739E8006C0835
:101D1800013EBA3E84008317000807396806031994
:101D2800962E972EC32E6C08013EBA3E84000730CB
:101D38000005E7006C08E80068072C3E8400831360
:101D480000086706F839670680006C08013EBA3E4D
:101D5800840083170008E7006708DE000330E80006
:101D68006808DA006C080A168A153C220A128A15D5
:101D7800143E0A168A15AB230A128A15C32E01309F
:101D880083120313E7006708EC0704306C02031C96
:101D9800CE2ECF2E822E83160317BA019B2F8312C5
:101DA8000313EC010D306C02031CDB2EDC2EDE2E3F
:101DB800142F142F6C08013EBA3E840083170008C4
:101DC800E7006C08CE3E8400000867060319ED2E74
:101DD800EE2E082F6C08013EBA3E84000008E7008A
:101DE8006C08CE3E8400670880006C08CE3E8400F4
:101DF8000008E7006708DE006C08323E0A168A15FC
:101E0800AB230A128A15082F013083120313E70047
:101E18006708EC070D306C02031C132F142FDE2EFD
:101E280083160317BA019B2F83120313EC010630A4
:101E38006C02031C202F212F232F5C2F5C2F6C0892
:101E4800013EBA3E840083170008E7006C08CA3ECA
:101E580084008313000867060319332F342F502F8B
:101E68006C08013EBA3E840083170008E7006C083E
:101E7800CA3E84006708831380006C08CA3E840049
:101E88000008E7006708DE006C082A3E0A168A1573
:101E9800AB230A128A15502F013083120313E7006F
:101EA8006708EC0706306C02031C5B2F5C2F232F9E
:101EB80083160317BA019B2F831203134218652F49
:101EC800662F792F831603173B0883120313E70045
:101ED8006708C200421C712F722F822F0A168A11BE
:101EE80071200A128A15822F822F831603173B0846
:101EF80083120313E7006708C200822F83160317B3
:101F0800BA019B2FBA019B2F9B2F3A08013A03195C
:101F1800C72D033A0319772E013A0319D32E073A2E
:101F28000319182F013A0319602F862F9B2F83124C
:101F380003133B08013A031DA22FA32FAE2F4F080E
:101F4800031DA72FAB2F59120130CF02AE2F591600
:101F5800AE2FAE2FD908031DB22FB32FC62F1430C2
:101F680049020318B82FB92FC22FF730E7006708C6
:101F7800BF050130E7006708C907FF2FBF15C90172
:101F8800FF2FFF2F591EC92FCA2FE42F14304902E3
:101F98000318CF2FD02FD52FF730E7006708BF05DC
:101FA800D72FBF15D72F0130E7006708C90728309A
:101FB8004902031CE02FE12FFF2FC901FF2FFF2F3C
:101FC8000A3049020318E92FEA2FEF2FF730E7000C
:101FD8006708BF05F12FBF15F12F0130E70067082B
:101FE800C90714304902031CFA2FFB2FFF2FC90120
:081FF800FF2FFF2FFF2F08004F
:102002008312031313080528080083120313DB004D
:10201200DC0148280430DA005A08DC006E2805305A
:10202200DA005A08DC006E280630DA005A08DC00B2
:102032006E280730DA005A08DC006E280830DA0011
:102042005A08DC006E280930DA005A08DC006E28D3
:102052000B30DA005A08DC006E280C30DA005A081D
:10206200DC006E280D30DA005A08DC006E280E30D3
:10207200DA005A08DC006E281030DA005A08DC0058
:102082006E281130DA005A08DC006E286E285B08D0
:10209200003A03190B28013A03191028033A0319CD
:1020A2001528013A03191A28073A03191F28013A79
:1020B20003192428033A03192928013A03192E285F
:1020C2000F3A03193328013A03193828033A03193E
:1020D2003D28013A031942286E285C08702808003E
:1020E200103083120313E5000030E6003408E100EB
:1020F2006108E3006308E1006108DE0065080A1672
:102102008A15AB230A168A11013083120313E507DD
:102112000318E60A0030E6073508E1006108E3002B
:102122006308E1006108DE0065080A168A15AB2320
:102132000A168A11013083120313E5070318E60A0F
:102142000030E607E401EF286408E10001300310E3
:10215200E10DFF3E031DA8280310610DD83E840047
:1021620083130008E2006208DE0065080A168A1579
:10217200AB230A168A11013083120313E5070318F1
:10218200E60A0030E6076408E10001300310E10DC1
:10219200FF3E031DC7280310610D013ED83E840097
:1021A20083130008E2006208DE0065080A168A1539
:1021B200AB230A168A11013083120313E5070318B1
:1021C200E60A0030E6070130E5070318E60A0030A8
:1021D200E6070130E1006108E407EF2853086402D2
:1021E200031CF428F528A528F6284230E500003023
:1021F200E60065080A168A15BF220A168A11013EF0
:1022020083120313E1006108D5005508FF3A031D4C
:102212000B290C290F29D501D50A0F295508E100F0
:102222006108DE0065080A168A15AB230A168A11B0
:1022320008000A168A11CC220A168A110A168A1175
:1022420008250A168A110A168A151A220A168A11EE
:102252000A168A1506270A168A110A128A150420F6
:102262000A168A110A128A11C9240A168A110A1632
:102272008A15C0240A168A118B170B174C29FB30BA
:1022820083120313EE006E0883160313880583126C
:1022920003138C104C29831203138C1851295229D1
:1022A2004029542954290A168A1506270A168A1122
:1022B2000C30831203134502031C6029612989290A
:1022C2000C30C50265304502031C682969296B2957
:1022D200C5016B290130EE006E08C8070A168A157F
:1022E200D0250A168A11831203134708031D7A297F
:1022F20089290130C702C708031D8029812989293C
:102302000A168A1577220A168A11892989298929A2
:102312003C30831203134A02031C90299129A129FC
:102322003C30CA0265304A02031C982999299B292C
:10233200CA019B290A128A15C9210A168A11A129E2
:102342000830831203134802031CA829A92954291F
:10235200C8010130EE006E08C60719304602031CA0
:10236200B329B429B829C601BB01BB0AB8290A128C
:102372008A11F0270A168A110A128A1115200A16E2
:102382008A110A128A15BF250A168A110A168A1597
:1023920025220A168A1183120313BB0154295429D8
:1023A20054290A128A11122883120313C21CDA2931
:1023B200DB29DD29CB2ACB2A05306F020318E2295B
:1023C200E329E8290130E0006008EF07E829E1018C
:1023D200C42A05306F02031CEF29F029BD2A6108C7
:1023E200203E84008313000C0139E0006108203E86
:1023F20084000008013960060319002A012ABD2A57
:102402006118042A052A502A6108203E8400801C93
:102412000B2A0C2A502A6108013E203E8400001C2F
:10242200132A142A342A6108013E203E84008010B7
:102432006108013E203E84008018242A272A610870
:10244200013E203E840083130014292A83130010C6
:1024520083120313EF016108013E0A168A157024E4
:102462000A168A11CB2A831203136108203E8400C4
:1024720083138018402A432A6108203E8400831374
:102482000014452A8313001083120313EF0161081D
:102492000A168A1570240A168A11CB2ACB2A611CC5
:1024A200532A542A9F2A6108203E8400801C5A2AFB
:1024B2005B2A9F2A6108FF3E203E8400001C622A9C
:1024C200632A832A6108FF3E203E8400801061084F
:1024D200FF3E203E84008018732A762A6108FF3E60
:1024E200203E840083130014782A83130010831281
:1024F2000313EF016108FF3E0A168A1570240A16BB
:102502008A11CB2A831203136108203E84008313AD
:1025120080188F2A922A6108203E840083130014B7
:10252200942A8313001083120313EF0161080A1621
:102532008A1570240A168A11CB2ACB2A8312031316
:102542006108203E840083138018AB2AAE2A6108FA
:10255200203E840083130014B02A831300108312D8
:102562000313EF0161080A168A1570240A168A11EC
:10257200CB2ACB2ACB2ABD2A013083120313E000D7
:102582006008E107C42A51086102031CC92ACA2A49
:10259200EA29CB2A080083120313CE01C801C50120
:1025A200C901B401B50183160313D601D701831201
:1025B2000313DB0116305B02031CE02AE12AE32A43
:1025C200FF2AFF2A5B08A03E8400831300105B08E9
:1025D200A03E8400E13080055B08A03E84008012AA
:1025E2005B08A03E840000130130DA005A08DB07C2
:1025F20016305B02031CFE2AFF2AE32ADB010430A9
:102602005B02031C052B062B082B392B392B5B088D
:10261200DA005A072C3E840083130008F839013887
:1026220080005B08DA005A072C3E84008730800560
:102632005B08DA005A072C3E8400801303145B0DFA
:102642002C3E8400001003145B0D2C3E840080108D
:1026520003145B0D2C3E8400E33080050130DA0068
:102662005A08DB0704305B02031C382B392B082B7A
:10267200DB010C305B02031C3F2B402B422B5B2BFC
:102682005B2B5B08B63E8400F030831380055B0849
:10269200B63E840000125B08B63E84001F308005FF
:1026A2000130DA005A08DB070C305B02031C5A2B9C
:1026B2005B2B422BDB010C305B02031C612B622B78
:1026C200642B7C2B7C2B5B08203E8400831300143C
:1026D2005B08203E840080105B08DB3E8400831789
:1026E20080010130DA005A08DB070C305B02031C60
:1026F2007B2B7C2B642BDB0104305B02031C822BC3
:10270200832B852BB92BB92B5B08DA000130031020
:10271200DA0DFF3E031D882B03105A0DD83E8400AC
:10272200831380015B08DA0001300310DA0DFF3EEB
:10273200031D962B03105A0D023ED83E84008001E1
:102742005B08DA0001300310DA0DFF3E031DA42BF3
:1027520003105A0D033ED83E840080010130DA0096
:102762005A08DB0704305B02031CB82BB92B852BFC
:10277200C201BC01BD01BE01BF01C001C1010230E5
:10278200DA005A08D000CB01CB0AD201D20ACC011E
:10279200CC0AD301D30A0230DA005A08CD00023043
:1027A200DA005A08D100D401D40A080083120313B4
:1027B200DA00DB01B52C061CDF2BE02BF92CDB0148
:1027C200DB0AF92CF92C83160317881DE92BEA2B57
:1027D200F92C83120313DB01DB0AF92CF92C831683
:1027E2000317081DF52BF62BF92C83120313DB01BB
:1027F200DB0AF92CF92C83160317881C012C022CF6
:10280200F92C83120313DB01DB0AF92CF92C831652
:102812000317081C0D2C0E2CF92C83120313DB0159
:10282200DB0AF92CF92C83160317891E192C1A2C92
:10283200F92C83120313DB01DB0AF92CF92C831622
:102842000317091E252C262CF92C83120313DB01F6
:10285200DB0AF92CF92C83160317891D312C322C33
:10286200F92C83120313DB01DB0AF92CF92C8316F2
:102872000317091D3D2C3E2CF92C83120313DB0197
:10288200DB0AF92CF92C83160317891C492C4A2CD4
:10289200F92C83120313DB01DB0AF92CF92C8316C2
:1028A2000317091C552C562CF92C83120313DB0138
:1028B200DB0AF92CF92C881F5F2C602CF92CDB0128
:1028C200DB0AF92CF92C081F672C682CF92CDB0188
:1028D200DB0AF92CF92C881E6F2C702CF92CDB01E9
:1028E200DB0AF92CF92C081E772C782CF92CDB0149
:1028F200DB0AF92CF92C871E7F2C802CF92CDB01AA
:10290200DB0AF92CF92C071E872C882CF92CDB0109
:10291200DB0AF92CF92C081C8F2C902CF92CDB01EA
:10292200DB0AF92CF92C871D972C982CF92CDB014A
:10293200DB0AF92CF92C071D9F2CA02CF92CDB01AA
:10294200DB0AF92CF92C861CA72CA82CF92CDB010C
:10295200DB0AF92CF92C861CAF2CB02CF92CDB01EC
:10296200DB0AF92CF92CF92C5A08003A0319DC2B52
:10297200013A0319E42B033A0319F02B013A031924
:10298200FC2B073A0319082C013A0319142C033AB9
:102992000319202C013A03192C2C0F3A0319382C55
:1029A200013A0319442C033A0319502C013A031932
:1029B2005C2C073A0319642C013A03196C2C033A74
:1029C2000319742C013A03197C2C1F3A0319842C25
:1029D200013A03198C2C033A0319942C013A031976
:1029E2009C2C073A0319A42C013A0319AC2CF92C9C
:1029F20083120313DB08031DFF2C002D032DDB01C3
:102A0200DB0A052DDB01052D5B08072D0800831667
:102A120003139101033083120317870083160313F4
:102A22008F010C30831203139D005C309B00303009
:102A3200DA005A089D04F9308316031392008312B8
:102A420003138C10831603138C10043083120313A8
:102A520092008330831603138100823083120313A2
:102A620081000B118B161630831203178900C030B8
:102A720083120313DA005A088316031387042230E1
:102A820093009401831203139401363094008C1145
:102A9200831603138C150614831603178515051563
:102AA200851405148716071687150715871407144A
:102AB2008316031388170817881608168716071631
:102AC20008148715071586148614F730831203132A
:102AD200DA005A08831603138805FE3083120313A3
:102AE200DA005A08831603138505FD308312031397
:102AF200DA005A08831603138505FB308312031389
:102B0200DA005A08831603138505DF308312031394
:102B1200DA005A08831603138905BF3083120313A0
:102B2200DA005A08831603138905FB308312031354
:102B3200DA005A08831603138605FB308312031347
:102B4200DA005A08831603138605FB308312031337
:102B5200DA005A08831603138605FB308312031327
:102B6200DA005A08831603138605FB308312031317
:102B7200DA005A08831603138605FB308312031307
:102B8200DA005A08831603138605FB3083120313F7
:102B9200DA005A08831603138605FB3083120313E7
:102BA200DA005A088316031386050815FD308312CE
:102BB2000313DA005A08831603138805F7308312C9
:102BC2000313DA005A08831603138505EF308312C4
:102BD2000313DA005A08831603138505DF308312C4
:102BE2000313DA005A08831603138505FE30831295
:102BF2000313DA005A08831603138905FD30831282
:102C02000313DA005A08831603138905FB30831273
:102C12000313DA005A08831603138905EF3083126F
:102C22000313DA005A088316031389057F308312CF
:102C32000313DA005A08831603138905EF3083124F
:102C42000313DA005A08831603178505DF3083124F
:102C52000313DA005A08831603178505BF3083125F
:102C62000313DA005A08831603178505FD30831211
:102C72000313DA005A08831603138705EF30831211
:102C82000313DA005A088316031386057F30831272
:102C92000313DA005A08831603178505FE308312E0
:102CA2000313DA005A08831603138705FB308312D5
:102CB2000313DA005A0883160313860583120313DB
:102CC2003D16C1173E143D153C0885003D0886009F
:102CD2003E0887003F0888004008890041088316A3
:102CE2000317880064000800831603131408F10018
:102CF2007108FC003C30F100710883120313CF000D
:102D0200FC1A842E852EB32E7C19882E892EB32E82
:102D12007C1C8C2E8D2EB32EFC1D902E912EB32E4C
:102D220064008312031343161430F1007108B700D4
:102D32000A168A1101200A168A11F10071088312FB
:102D42000317A00083120313B801FD01FD0AD80185
:102D5200D901141FAD2EAE2EFF2FD915D91414137D
:102D6200FF2FFF2FFC1EB62EB72E8A2F7C19BA2EEC
:102D7200BB2E8A2F7C1CBE2EBF2E8A2F7D08143AB2
:102D8200031DC42EC52ECC2E5915D9141330F100B3
:102D92007108FD00CC2E141FCF2ED02ED42ED915A3
:102DA200D9141413D42E0A168A1101200A168A1174
:102DB200F1007D08203E84007108831780007D08A1
:102DC200203E84000008F100710883120313B80743
:102DD2007D08013A031DEE2EEF2E342F0E2F0E2FFB
:102DE2000A30F1007108B700222F0A30F100710891
:102DF200B700222F1230F1007108B700222F0A30DB
:102E0200F1007108B700222F0330F1007108B700FA
:102E1200222F5915D914222F222F7D08203E8400FB
:102E22000008013A0319F12E033A0319F62E013A6A
:102E32000319FB2E073A0319002F013A0319052F34
:102E42000A2F7D08203E84000008F1007108D80096
:102E5200D91315303702031C2F2F302F852F591508
:102E6200D914852F852F7D0837020318392F3A2F61
:102E72003D2F5915D914852F7D083706031D422F82
:102E8200432F852F3808031D472F4A2F5914D91471
:102E9200852F591083160317BA08031D512F522F7D
:102EA2007C2FF201F20AF301722F7308143A031D08
:102EB2005B2F5C2F5F2F0130F3025F2F7208203EE1
:102EC20084000008F1007308BA3E84007108800093
:102ED2000130F1007108F2070130F1007108F307C7
:102EE200722F72087D020318772F782F562F8312C4
:102EF2000313D910852F83120313D914852F852F1D
:102F0200852F852F852F852F0130F1007108FD0750
:102F1200FF2FFC1A8D2F8E2FA62F7C1D912F922F03
:102F2200A62F7C18952F962FA62FFC1D992F9A2F2E
:102F3200A62FB9015808F1007108BA0058080A16FC
:102F42008A1530220A168A11FF2FFC1EA92FAA2FDA
:102F5200EB2F7C1DAD2FAE2FEB2F7C18B12FB22F94
:102F6200EB2FE02FE02F59080A168A1530220A1695
:102F72008A11831203135908F1007108BA0701304C
:102F8200F1007108B907FF2FBA090130F100710889
:102F9200BA073A080A168A1530220A168A1101302F
:102FA200F100710883120313B907FF2FD9175530A7
:102FB2000A168A1530220A168A11FF2FFF2F831252
:102FC20003133908003A0319B42F013A0319C52F24
:102FD200D72FFF2FFC1EEE2FEF2FFF2F7C19F22F82
:102FE200F32FFF2F7C18F62FF72FFF2F43126400C9
:0E2FF200FF2FFF2FFF2FFF2FFF2FFF2F0800B5
:1034240064008001840A0406031900340406132A84
:10343400FD0183120313B901B601BA01B801831661
:103444000317BA0108000A168A1522240A168A15D7
:103454000A168A11D5210A168A150800F00083126B
:103464000313941370089300941B392A3A2A312ABF
:103474001416080083120313DD00DC015D1C432ACB
:10348400442A492A5A08DB005B08DC07492A03104E
:10349400DA0D0310DD0CDD08031D512A522A402ADF
:1034A400532A5C08552A080083120313DB00DC014D
:1034B400692ADC01DC0A742A0A30DA005A08DC00C2
:1034C400742A0F30DA005A08DC00742A742A5B0864
:1034D400003A03195B2A013A03195E2A033A0319D5
:1034E400632A742A5C08762A080083120313DF0116
:1034F4008D2A5F08DE005E08DA00DB0102300A1262
:103504008A15BA230A168A15013083120313DE00C2
:103514005E08DF078D2A51085F02031C922A932A52
:103524007B2A942A9B01CF30DE005E089D050800AB
:1035340083120313DE005E08DC00DD010130FF00AE
:103544000310DC0DDD0DFF0BA22A5C08143EDF0026
:103554005D080318013E003EE000FE30DF05013047
:10356400E0050030DF040630E0046008DB01DB071F
:103574005F08DA01DA07BE2A080083120313DB00AE
:103584006400831603178C18C82AC92AC22ACA2AB7
:10359400831203135B08831203178D003F308312D9
:1035A4000313DA005A08831603178C050C1403104E
:1035B4000C180314003003180130831203170C088D
:1035C400E32A080083120313DE01DF01E92A5A1CEF
:1035D400EC2AED2AF32A5C08DE070318DF0A5D08EB
:1035E400DF0701300310DC0DDD0DFF3E031DF42A5F
:1035F40001300310DB0CDA0CFF3E031DFB2A5B08D1
:103604005A04031D062B072BE92A082B5F08DB014C
:10361400DB075E08DA01DA070F2B080083120313B5
:10362400DB00DC012C2BDC013D2B0230DA005A08D4
:10363400DC003D2B0330DA005A08DC003D2B12304D
:10364400DA005A08DC003D2B1330DA005A08DC009B
:103654003D2B3D2B5B08003A0319152B013A031946
:10366400172B033A03191C2B013A0319212B073A90
:103674000319262B3D2B5C083F2B0800FC01FD01A0
:103684008313203084005A300A168A1512220A162F
:103694008A158317A0308400E7300A168A1512228F
:1036A4000A168A158313A0308400E8300A168A1596
:1036B40012220A168A1583172030840034300A1621
:1036C4008A1512220A168A150A128A1103200A166A
:1036D4008A15EF0083010A168A111A29831203132B
:1036E400DD005D08840083130008803A1B3E031C40
:1036F4007C2B7D2B832B6430DB005D0884005B080E
:1037040080005D088400801F882B892B8C2B5D082A
:10371400840080015D08023E84000008DB005D082F
:10372400840000085B060319982B992BAA2B5D08CB
:1037340084000008DB005D08023E84000003FF3AB9
:103744005B07DC005D08033E84005C088000AA2B54
:10375400080083120313E000AF2B831603178C18A1
:10376400B42BB52BAF2BB62B831203136008831233
:1037740003178D00831203135E08831203178C0052
:103784003F3083120313DF005F08831603178C0591
:103794008312031303108B1FD02BD12BD22B0314B2
:1037A4008B13831603170C1555308D00AA308D002A
:1037B4008C140C1183120313031CE12BE22BE52B55
:1037C4008B17E52BE52B08000B1DE92BEA2B032CAB
:1037D4008B1EED2BEE2B032CCE01CE0A0130F7000D
:1037E4007708C5070130F7007708CA070A168A1553
:1037F40014250A168A1582308312031381020B11D1
:10380400032C8C1D062C072C152C8C1183160313EA
:103814008C1D0D2C0E2C152C0A168A1175260A16D1
:103824008A15152C152C7B0883120313FF007A08C4
:103834008A0079088400780E8300FE0E7E0E09004B
:1038440083120313E301682C630ADE000130DF00F6
:103854000030E000302C0310DF0DE00DDE0B2D2CCA
:103864005F08E1006008E20061083405DE006208D8
:103874003505DF005F085E04031D412C422C522CE9
:103884004219452C462C522C6308DE005E08DA00EF
:10389400DB0100300A128A15BA230A168A15612C34
:1038A400831203136308DE005E08DA00DB01DB0A1F
:1038B40000300A128A15BA230A168A15612C0130BF
:1038C40083120313DE005E08E307682C52086302C8
:1038D400031C6D2C6E2C262C6F2C080083120313F2
:1038E400DF005F08203E8400831300187A2C7B2CB1
:1038F4009C2CDA01DB0101300A128A15BA230A165C
:103904008A155C30831203139B003030DE005E089E
:103914009D041430DE005E08C7005F08DE005E0808
:10392400DA00DB01DB0A02300A128A15BA230A160E
:103934008A15BF2C83120313DA01DA0ADB01013082
:103944000A128A15BA230A168A15831203139B01D5
:10395400CF30DE005E089D051430DE005E08C7002F
:103964005F08DE005E08DA00DB01DB0A02300A12BF
:103974008A15BA230A168A15BF2C0800831203136A
:10398400E20104306202031CC82CC92CF62C132D4E
:10399400132DF62C6B300A168A159A220A168A15EC
:1039A400831203136208E1006107C23E84005A08CF
:1039B40083138000840A5B088000082DE12C6E309C
:1039C4000A168A159A220A168A15831203136208A4
:1039D400E1006107C23E84005A0883138000840A10
:1039E4005B088000082D082D6208E10061072C3E69
:1039F4008400831300080739003A0319E12C013AC3
:103A04000319E12C033A0319CC2C082D0130E100F1
:103A14006108E20704306202031C112D122DF62CFA
:103A2400132D08008312031353085702031C1B2D84
:103A34001C2D1E2DD7011E2D5708F3007307C23EFF
:103A4400840083130008840A000403192A2D2B2DF3
:103A54006B2D5708F3007307C23E84000008F4007E
:103A6400840A0008F500741C382D392D422DF0010C
:103A7400F00A57080A168A1530260A168A154C2D9C
:103A8400F0018312031357080A168A1530260A1602
:103A94008A154C2D831203135708F3007307C23E93
:103AA400840083130008F400840A0008F500013040
:103AB4000310F50CF40CFF3E031D5A2D5708F600B5
:103AC4007607C23E840074088000840A750880006A
:103AD400702D0130F3007308D707702D080083128E
:103AE4000313DD00DC0154085D0203187A2D7B2DDD
:103AF400822D06305D02031C802D812DC22D822D66
:103B04000130CF2DCF2DC22D5D08CA3E8400831312
:103B14008008031D8E2D8F2D962D7830DB005D08D7
:103B2400CA3E84005B0880005D08CA3E8400000829
:103B3400DB005D08D03E84005B088000CD2D5D086D
:103B4400D03E840083138001CD2D5D08D03E8400D7
:103B5400831380080319AF2DB02DBD2D3B08013A06
:103B6400031DB52DB62DCD2D5D08D03E840001304A
:103B74008002CD2DCD2DDC01DC0ACD2DCD2DCD2D1A
:103B84005A08003A0319862D013A0319A12D033A64
:103B94000319A72DCD2D5C08CF2D08008312031324
:103BA400DE01282E5E080A168A11D7230A168A1502
:103BB40083120313DC005C08DD005E08A03E840071
:103BC4008313000801395D060319E92DEA2DF72D49
:103BD4005E08A03E84005D080010031D00145E080A
:103BE400A03E8400E1308005212E5E08A03E8400C2
:103BF400000C0F39DC0004305C020318022E032E83
:103C0400112E5E08A03E8400000C0F39DC00DC0A93
:103C1400DC0D00085C06E1395C068000212E5E089C
:103C2400A03E840000181A2E1D2E5E08A03E8400BB
:103C3400831380161F2E83138012212E212E013010
:103C440083120313DC005C08DE07282E50085E0292
:103C5400031C2D2E2E2ED42D2F2E0800F200732E91
:103C64007008031D362E3A2E831203133D16812E3F
:103C7400EF30F100710883120313BD05812E812EEC
:103C84007008031D462E4A2E83120313C117812E7A
:103C94007F30F100710883120313C105812E812E38
:103CA4007008031D562E5A2E831203133E14812EC0
:103CB400FE30F100710883120313BE05812E812E9C
:103CC4007008031D662E6A2E831203133D15812E80
:103CD400FB30F100710883120313BD05812E812E80
:103CE400812E7208003A0319322E013A0319422E2A
:103CF400033A0319522E013A0319622E812E8312BC
:103D040003133C0885003D0886003E0887003F08F1
:103D140088004008890041088316031788000800BA
:103D240083120313E500E4015208650203189B2E75
:103D34009C2EA32E0D306502031CA12EA22EA62EAE
:103D4400A32E6408052F052FE008031DAA2EAB2E11
:103D5400B72E6508E1006107A03E84000030831798
:103D64008000840A00308000032F6508E1006107A9
:103D7400A03E840083170008840A00040319C32E9C
:103D8400C42EE12E6508E1006107A03E84000130E5
:103D94008002840F0030031C8003800284036508C2
:103DA400E1006107A03E84000008840A0004031DAA
:103DB400DC2EDD2E032FE401E40A032F032F650814
:103DC400CE3E84000008E100E2016108DA006208E6
:103DD400DB003C30DC000030DD000A168A15E422EA
:103DE4000A168A15831203136508E3006307A03ECD
:103DF40084005A0883178000840A5B088000032F1C
:103E0400032F6408052F0800143083120313DA000B
:103E14005A08D0000530DA005A08CB000530DA0021
:103E24005A08D2000330DA005A08CC000330DA0012
:103E34005A08D3000C30DA005A08CD000C30DA00EE
:103E44005A08D1005108DA0003105A0CDB005B0851
:103E5400D40017305002031C302F312F352F163069
:103E6400DA005A08D0000E304B02031C3A2F3B2FC5
:103E74003F2F0D30DA005A08CB000E305202031CDB
:103E8400442F452F492F0D30DA005A08D20005304F
:103E94004C02031C4E2F4F2F532F0430DA005A08C4
:103EA400CC0005305302031C582F592F5D2F0430CA
:103EB400DA005A08D3000D304D02031C622F632F21
:103EC400672F0C30DA005A08CD000D305102031C64
:103ED4006C2F6D2F712F0C30DA005A08D100073087
:103EE4005402031C762F772F7C2F0630DA005A08F1
:103EF400D4007C2F080083120313E201F82F620A16
:103F0400DD000130DE000030DF008B2F0310DE0DFA
:103F1400DF0DDD0B882F5E08E0005F08E10062081A
:103F24000A168A1510230A168A1583120313DD0054
:103F34005D08E3006308A03E84008313000EDD00E7
:103F4400DD0C5D0C0139DE006308A03E8400000E28
:103F5400DF005F0C01395E060319B12FB22FDF2F8A
:103F64006308A03E8400801AB82FB92FCE2F6308AF
:103F7400A03E840000136108DE006008DD00DD0956
:103F8400DE095D0883160313D605831203135E0846
:103F940083160313D705F12F83126308A03E840010
:103FA4000017600883160313D604831203136108F1
:103FB40083160313D704F12FF12F83126108DE0057
:103FC4006008DD00DD09DE095D0883160313D605EC
:103FD400831203135E0883160313D705F12F0130F0
:103FE40083120313DD005D08E207F82F4B08620219
:0C3FF400031CFD2FFE2F812FFF2F080063
:02400E00F2FFBF
:00000001FF
