:060000000A128A110E280D
:10000800FE00030EF9000408FA000A08FB000A16AD
:100018008A1144290A128A111128FC01FD0183134F
:100028002030840050300A168A15A7270A128A1130
:100038008317A0308400E9300A168A15A7270A1208
:100048008A118313A0308400EF300A168A15A72777
:100058000A128A1183172030840045300A168A153F
:10006800A7270A128A110A128A11FF270A128A116F
:10007800EB0083010A168A110F2D83160317ED0171
:10008800A528E901E90AEA016D0A4D280310E90DDE
:10009800EA0DFF3E031D4A286908831203132A0547
:1000A800E900831603176A08831203132B05EA0075
:1000B8006A0869040319612862286E2883160317E1
:1000C800690883120313AC06831603176A088312A0
:1000D8000313AD063103031D72287328A2282D08C7
:1000E800E2002C08E1008316031769088312031342
:1000F800E105831603176A0883120313E2058316C2
:1001080003176D080A168A11AB260A128A11013ADA
:10011800031D8F289028A228831603176A088312C4
:100128000313EA0083160317690883120313E9000F
:10013800E909EA096908AC056A08AD0583160317D9
:10014800ED0A831203134608831603176D02031C76
:10015800AE28AF284528ED016A2A03106D0DEC0082
:100168006C08013EEB00DF28CA28831603176C08C9
:10017800BD3E840000081F39203880006B08BD3E52
:10018800840000081F39203880009429831603173B
:100198006B08BD3E8400000E83120313E900690C4E
:1001A8000739023A0319B928013A0319B928073A55
:1001B8000319B92894296C08BD3E84008313000EE6
:1001C80083120313E900690C0739023A0319B828A6
:1001D800013A0319CA28073A0319CA289429831629
:1001E80003176C08C93E84008018FB28FC281F29C7
:1001F8006B08C93E8400801C0229032907296B0863
:10020800C93E8400801083120313D4018316031798
:100218006D080A168A114E240A128A1183160317CA
:100228006C08C93E8400831380146C08BD3E8400AA
:100238001F3080054E2A83120313D401D40A831673
:1002480003176D080A168A114E240A128A1183169A
:1002580003176C08C93E8400831380106C08BD3EE8
:1002680084001F3080054E2AD401D40A8316031750
:100278006D080A168A114E240A128A11831603176A
:100288006C08C93E8400831380146B08C93E84003F
:1002980080104E2AD401D40A831603176D080A1653
:1002A8008A114E240A128A112B29831603176B0808
:1002B800C93E8400801C6129622966296B08C93EF1
:1002C8008400801083120313D401831603176D086A
:1002D8000A168A114E240A128A1112298316031744
:1002E8006C08C93E8400801C7A297B294E2A02307A
:1002F80083120313D400831603176D080A168A1194
:100308004E240A128A11013A031D8B298C29AC2923
:10031800831603176C08C93E8400831380104E2A85
:10032800831603176C08BD3E8400000E8312031366
:10033800E900690C0739013A03194E29033A0319F0
:10034800F328013A03193829073A03195929722958
:100358004E2A831603176B08C93E84008018B529F6
:10036800B629D9296C08C93E8400801CBC29BD293E
:10037800C1296C08C93E8400801083120313D4017C
:10038800831603176D080A168A114E240A128A1159
:10039800831603176B08C93E8400831380146B0807
:1003A800BD3E84001F308005672A83120313D401E1
:1003B800D40A831603176D080A168A114E240A12E6
:1003C8008A11831603176B08C93E840083138010B3
:1003D8006B08BD3E84001F308005672AD401D40A0B
:1003E800831603176D080A168A114E240A128A11F9
:1003F800831603176B08C93E8400831380146C08A6
:10040800C93E84008010672AD401D40A83160317D2
:100418006D080A168A114E240A128A11E5298316D4
:1004280003176C08C93E8400801C1B2A1C2A202A3A
:100438006C08C93E8400801083120313D40183160C
:1004480003176D080A168A114E240A128A11CC293C
:10045800831603176B08C93E8400801C342A352A8A
:10046800672A023083120313D400831603176D081A
:100478000A168A114E240A128A11013A031D452AC6
:10048800462A672A831603176B08C93E840083131C
:100498008010672A831603176B08BD3E84008313F8
:1004A800000E83120313E900690C0739013A031996
:1004B800082A033A0319AD29013A0319F229073A20
:1004C8000319132A2C2A83160317ED0A8312031320
:1004D8004808831603176D02031C732A742AB1286F
:1004E800ED01A32D831603176D086D076D07D53E23
:1004F800840080016D0883120313E90001300310A2
:10050800E90DFF3E031D832A0310690DA33E8400F5
:100518000010831603176D0883120313E9000130D6
:100528000310E90DFF3E031D942A0310690DA23E36
:1005380084001F3080057C2C831603176D088312F6
:100548000313E90001300310E90DFF3E031DA72A3C
:100558000310690DA23E840000080739023A031906
:10056800B62AB72ACE2A831603176D0883120313F7
:10057800E90001300310E90DFF3E031DBE2A0310F8
:10058800690DA23E8400000807390038031DCD2AF2
:10059800CE2AD72A831603176D086D076D07D63E36
:1005A800840064308000831603176D086D076D079B
:1005B800D63E84000008803A7F3E0318E42AE52AE4
:1005C800EC2A6D086D076D07D63E84006430800004
:1005D8006D086D076D07D63E84000008831203136B
:1005E800E900831603176D086D076D07D53E840073
:1005F8008312031369088000831603176D0883129A
:100608000313E90001300310E90DFF3E031D072B1A
:100618000310690DA33E84000010831603176D08AC
:1006280083120313E90001300310E90DFF3E031D97
:10063800182B0310690DA23E84001F3080057C2C06
:10064800831603176D0883120313E90001300310A2
:10065800E90DFF3E031D2B2B0310690DA23E8400FC
:1006680000080739023A03193A2B3B2B522B831601
:1006780003176D0883120313E90001300310E90D15
:10068800FF3E031D422B0310690DA23E84000008A3
:1006980007390038031D512B522B5B2B8316031788
:1006A8006D086D076D07D63E8400643080008316A0
:1006B80003176D086D076D07D53E84000008803A62
:1006C8007F3E031C682B692B7F2B6D086D076D0718
:1006D800D53E840080016D0883120313E9000130C0
:1006E8000310E90DFF3E031D742B0310690DA33E93
:1006F80084000010B72B6D086D076D07D63E840087
:100708000008803A7F3E03188A2B8B2B922B6D08AA
:100718006D076D07D63E8400643080006D086D0754
:100728006D07D63E8400000883120313E900831680
:1007380003176D086D076D07D53E840083120313F8
:1007480069088000831603176D0883120313E900F4
:1007580001300310E90DFF3E031DAD2B0310690D99
:10076800A33E84000010831603176D088312031339
:10077800E90001300310E90DFF3E031DBE2B0310F5
:10078800690DA23E84001F3080057C2C8316031758
:100798006D086D076D07D53E8400643080006D08D4
:1007A80083120313E90001300310E90DFF3E031D16
:1007B800D82B0310690DA33E840000148316031779
:1007C8006D0883120313E90001300310E90DFF3EA1
:1007D800031DE92B0310690DA23E84001F3080051C
:1007E8007C2C831603176D0883120313E90001306C
:1007F8000310E90DFF3E031DFC2B0310690DA33EFA
:1008080084000018082C092C262C831603176D0861
:100818006D076D07D53E84000008803A1D3E031819
:10082800162C172C1E2C6D086D076D07D53E8400FD
:10083800800A412C6D086D076D07D53E8400643031
:100848008000412C831603176D086D076D07D53E90
:1008580084000008803A7E3E031C332C342C3B2C49
:100868006D086D076D07D53E84008003412C6D0827
:100878006D076D07D53E840080016D086D076D0713
:10088800D53E8400000883120313E900831603177A
:100898006D086D076D07D63E84008312031369083F
:1008A80080007C2C6D0883120313E90001300310CB
:1008B800E90DFF3E031D5B2C0310690DA23E840069
:1008C8008313000EEA006A0C0739003A03197C2CDE
:1008D800013A0319762A033A0319A02A013A03199F
:1008E800242B073A0319CA2B013A0319F52B7C2C40
:1008F800831603176D086D076D07D53E8400801FAA
:10090800862C872C8D2C6D086D076D07D53E8400CD
:1009180080016D086D076D07D53E84000008803A98
:100928001B3E031C982C992CA02C6D086D076D0795
:10093800D53E840064308000831203133A19A52C35
:10094800A62C482D831603176D086D076D07D73E33
:100958008400000883120313E900831603176D0847
:100968006D076D07D53E84000008831203136906DE
:100978000319BF2CC02CA02D831603176D086D0713
:100988006D07D53E8400000883120313E90083161F
:1009980003176D086D076D07D73E84008312031394
:1009A800690880002C2D831603176D086D076D07E5
:1009B800D53E84000008803A6C3E0318E42CE52CF0
:1009C800FA2C6B300A168A1105200A128A1183162E
:1009D800031703106D0DE13E8400831203135408BE
:1009E80083138000840A55088000A02D6A300A16F7
:1009F8008A1105200A128A118316031703106D0D38
:100A0800E13E840083120313540883138000840A90
:100A180055088000A02D831603176D086D076D0714
:100A2800D53E840000086E3E0A168A1105200A1277
:100A38008A118316031703106D0DE13E840083129B
:100A48000313540883138000840A55088000A02DDE
:100A5800831603176D0883120313E900013003108E
:100A6800E90DFF3E031D332D0310690DA23E8400DE
:100A780000080739003A03190F2D013A03190F2D01
:100A8800033A0319D72CA02D831603176D086D0799
:100A98006D07D73E8400000A0319532D542DA02D4D
:100AA8006D086D076D07D73E840080018003862D91
:100AB8006A300A168A1105200A128A11831603174A
:100AC80003106D0DE13E8400831203135408831351
:100AD8008000840A55088000A02DD2300A168A1199
:100AE80005200A128A118316031703106D0DE13EC3
:100AF800840083120313540883138000840A550862
:100B08008000A02D6D0883120313E9000130031043
:100B1800E90DFF3E031D8B2D0310690DA23E8400D5
:100B280000080739003A0319712D013A0319712D8C
:100B3800033A03195C2DA02D83160317ED0A8312BF
:100B480003134708831603176D02031CAC2DAD2D44
:100B5800562C0800DA01EE2F5A080A168A15E727DC
:100B68000A128A11D900D22F5908D33E840083175C
:100B7800000ED600D60C560C0139D7005908D33EC2
:100B88008400000ED800580C013957060319CD2DE2
:100B9800CE2DEB2F5908D33E8400801AD42DD52DA5
:100BA800DA2D5908D33E84000013EB2F5908D33EA1
:100BB800840000175A08D60001300310D60DFF3EF6
:100BC800031DE12D0310560DA23E84008313000877
:100BD8001F3960388000EB2F5908D33E84008317F3
:100BE800000ED600D60C560C0139D7005908D33E52
:100BF8008400000ED800580C013957060319052E39
:100C0800062E242E5908D33E8400801A0C2E0D2E51
:100C1800122E5908D33E84000013162E5908D33ECD
:100C2800840000175A08D60001300310D60DFF3E85
:100C3800031D192E0310560DA03E84008313800156
:100C48005908D33E84008317801A2B2E2C2E4D2F43
:100C58005A08D60001300310D60DFF3E031D2F2E73
:100C68000310560DA13E84000D30831300020318B3
:100C78003E2E3F2E6D2E5A08D60001300310D60D99
:100C8800FF3E031D422E0310560DA23E840080191C
:100C98004E2E4F2E5F2E5A08D60001300310D60D67
:100CA800FF3E031D522E0310560DA23E8400001E67
:100CB8005E2E5F2E6D2E5A08D60001300310D60D19
:100CC800FF3E031D622E0310560DA13E8400800ACC
:100CD800872E5A08D60001300310D60DFF3E031D9B
:100CE800702E0310560DA23E840000125A08D6003A
:100CF80001300310D60DFF3E031D7D2E0310560D47
:100D0800A13E840080015A08D60001300310D60D98
:100D1800FF3E031D8A2E0310560DA23E8400801D3F
:100D2800962E972E092F5A08D60001300310D60D9B
:100D3800FF3E031D9A2E0310560DA23E840080111B
:100D48005A08D60001300310D60DFF3E031DA72E0A
:100D58000310560DA23E8400001EB32EB42EEC2EB6
:100D68005A08D60001300310D60DFF3E031DB72EDA
:100D78000310560DA23E840000081F3980388000F9
:100D88005A08D60001300310D60DFF3E031DC72EAA
:100D98000310560DA13E840080015A08D600013088
:100DA8000310D60DFF3E031DD42E0310560DA23E90
:100DB800840000125A08D60001300310D60DFF3EF9
:100DC800031DE12E0310560DA13E84008001092F5A
:100DD8005A08D60001300310D60DFF3E031DEF2E32
:100DE8000310560DA23E840000081F3960388000A9
:100DF8005A08D60001300310D60DFF3E031DFF2E02
:100E08000310560DA23E840000165A08D600013081
:100E18000310D60DFF3E031D0C2F0310560DA23EE6
:100E28008400000ED700570C0739053A031D1D2F03
:100E38001E2FEB2F5A08D60001300310D60DFF3EA7
:100E4800031D212F0310560DA23E84001F3080057C
:100E58005A08D60001300310D60DFF3E031D2F2F70
:100E68000310560DA33E8400001C472F4A2F5A0832
:100E7800D70001300310D70DFF3E031D3E2F03108E
:100E8800570DA33E8400831300144C2F83130010C6
:100E9800EB2F5A08D60001300310D60DFF3E031D74
:100EA800502F0310560DA23E8400831380155A0854
:100EB800D60001300310D60DFF3E031D5E2F031030
:100EC800560DA13E84000D30000203186C2F6D2FC3
:100ED8007A2F5A08D60001300310D60DFF3E031DA5
:100EE800702F0310560DA13E8400800A5A08D600C0
:100EF80001300310D60DFF3E031D7D2F0310560D44
:100F0800A03E84000F30000203188B2F8C2F9A2FDD
:100F18005A08D60001300310D60DFF3E031D8F2F4F
:100F28000310560DA03E8400800AEB2F5A08D60005
:100F380001300310D60DFF3E031D9D2F0310560DE3
:100F4800A23E840000081F39A03880005A08D60045
:100F580001300310D60DFF3E031DAD2F0310560DB3
:100F6800A23E840080115A08D60001300310D60D25
:100F7800FF3E031DBA2F0310560DA23E8400001237
:100F88005A08D60001300310D60DFF3E031DC72FA7
:100F98000310560DA13E84008001EB2F5A08D6009D
:100FA80001300310D60DFF3E031DD52F0310560D3B
:100FB800A23E8400831300080739003A0319B82DAC
:100FC800013A0319F02D033A0319B82DEB2F8312B8
:100FD8000313DA0A41085A02031CF32FF42FB02D29
:100FE8000800F000941370089300941BFC2FFD2F49
:100FF800F62F141608000534D7005708C93E840098
:101008000018072808282328D401D50101300A121E
:101018008A15EF210A128A155C30831203139B008C
:1010280030309D041430BD005708D400D501D50ACE
:1010380002300A128A15EF210A128A153D28D401B6
:10104800D40AD50101300A128A15EF210A128A152D
:10105800831203139B01CF309D051430BD00570840
:10106800D400D501D50A02300A128A15EF210A12D6
:101078008A15080005306B020318432844284528C0
:10108800EB0AD9010E2905306B02031C4C284D28A8
:101098000D29BA1C5028512856285908C93E8400E1
:1010A800831380105908C93E84008313000C01394A
:1010B800D8005908C93E84000008013958060319A8
:1010C800662867280D2959186A286B28AE285908F8
:1010D800C93E8400801C71287228AE285908CA3E6F
:1010E8008400001C7828792896285908CA3E84006C
:1010F80080105908CA3E8400801886288928590813
:10110800CA3E8400831300148B28831300108312B3
:101118000313EB015908013E0A128A1500200A122E
:101128008A1514295908C93E840080189F28A228C6
:101138005908C93E840083130014A428831300109F
:1011480083120313EB0159080A128A1500200A12A8
:101158008A151429591CB128B228F5285908C93EFE
:101168008400801CB828B928F5285908C83E84008E
:10117800001CBF28C028DD285908C83E84008010FC
:101188005908C83E84008018CD28D0285908C83E80
:10119800840083130014D2288313001083120313CE
:1011A800EB015908FF3E0A128A1500200A128A1517
:1011B80014295908C93E84008018E628E9285908E6
:1011C800C93E840083130014EB2883130010831294
:1011D8000313EB0159080A128A1500200A128A150E
:1011E80014295908C93E84008018FE280129590885
:1011F800C93E84008313001403298313001083124B
:101208000313EB0159080A128A1500200A128A15DD
:101218001429D90A45085902031C132914294728F7
:101228000800D400D5019E29061C1B291C29E22987
:1012380083120313D501D50AE22983160317881DE3
:1012480026292729E2291C2983160317081D2D2979
:101258002E29E2291C2983160317881C34293529CD
:10126800E2291C2983160317081C3B293C29E2297B
:101278001C2983160317891E42294329E2291C29A0
:1012880083160317091E49294A29E2291C298316AE
:101298000317891D50295129E2291C298316031790
:1012A800091D57295829E2291C2983160317891C67
:1012B8005E295F29E2291C2983160317091C652961
:1012C8006629E2291C29881F6A296B29E2291C2919
:1012D800081F6F297029E2291C29881E742975297D
:1012E800E2291C29081E79297A29E2291C29871E46
:1012F8007E297F29E2291C29071E83298429E229BE
:101308001C29081C88298929E2291C29871D8D295F
:101318008E29E2291C29071D92299329E2291C29D3
:10132800861C97299829E2291C29861C9C299D2915
:10133800E2291C295408003A03191829013A03190B
:101348002129033A03192829013A03192F29073AB1
:1013580003193629013A03193D29033A0319442987
:10136800013A03194B290F3A03195229013A031973
:101378005929033A03196029013A03196729073AD9
:1013880003196C29013A03197129033A03197629BB
:10139800013A03197B291F3A03198029013A0319D5
:1013A8008529033A03198A29013A03198F29073A2B
:1013B80003199429013A03199929E229831203137D
:1013C800D508031DE829E929EC29D501D50AED2915
:1013D800D50155080800D600322B5508031DF529FC
:1013E800F7293414432B3410432B5508031DFD29CA
:1013F800FF29B414432BB410432B5508031D052AA9
:10140800072A3415432B3411432B5508031D0D2A85
:101418000F2AB816432BB812432B5508031D152A5B
:10142800172A3817432B3813432B5508031D1D2A39
:101438001F2A3515432B3511432B5508031D252A23
:101448001F2A1D2A5508031D2A2A1F2A1D2A550846
:10145800031D2F2A1F2A1D2A5508031D342A1F2A57
:101468001D2A5508031D392A1F2A1D2A5508031D40
:101478003E2A1F2A1D2A5508031D432A1F2A1D2AF2
:101488005408003A0319F129013A0319F929033AD2
:101498000319012A013A0319092A073A0319112ADB
:1014A800013A0319192A033A0319212A013A03199F
:1014B800262A0F3A03192B2A013A0319302A033A2C
:1014C8000319352A013A03193A2A073A03193F2A18
:1014D800432BB710432BB714432B5408003A031976
:1014E8006D2A013A03196F2A432B5508031D7D2ADB
:1014F8007F2AB415432BB411432B5508031D852AA5
:10150800872A3416432B3412432B5508031D8D2A82
:101518008F2AB416432BB412432B5508031D952A62
:10152800972A3814432B3810432B5508031D9D2A3E
:101538009F2AB814432BB810432B5508031DA52A1E
:10154800A72A3815432B3811432B5508031DAD2AFC
:10155800AF2A3816432B3812432B5508031DB52ADA
:10156800B72AB817432BB813432B5508031DBD2AB8
:10157800BF2A3916432B3912432B5508031DC52A98
:10158800C72AB916432BB912432B5508031DCD2A78
:10159800CF2A3917432B3913432B5508031DD52A56
:1015A800D72AB614432BB610432B5408003A031914
:1015B800792A013A0319812A033A0319892A013A37
:1015C8000319912A073A0319992A013A0319A12AFA
:1015D800033A0319A92A013A0319B12A0F3A031940
:1015E800B92A013A0319C12A033A0319C92A013A47
:1015F8000319D12A432B5508031D032B052B351638
:10160800432B3512432B5508031D0B2B0D2BB917F4
:10161800432BB913432B5508031D132B152B3614D5
:10162800432B3610432B5508031D1B2B1F2A1D2A3D
:101638005408003A0319FF2A013A0319072B033A01
:1016480003190F2B013A0319172B432B5508031DB8
:101658002E2B302BB715432BB711432B5608003AC6
:101668000319442A013A0319712A033A0319D92A9A
:10167800013A03191C2B073A03192A2B432B340868
:10168800850035088600360887003708880038083E
:101698008900390883160317880008001408FC001D
:1016A8003C308312C300FC1A5A2B5B2B802B7C190D
:1016B8005E2B5F2B802B7C1C622B632B802BFC1DED
:1016C800662B672B802B6400193083120313AF003D
:1016D8000A168A1103200A128A150317AC00FD01A5
:1016E800FD0A0313CC01CD01141F7B2B7C2BBA2CD4
:1016F800CD15CD141413BA2CFC1E832B842B412C2E
:101708007C19872B882B412C7C1C8B2B8C2B412CF8
:101718007D08193A031D912B922B962B4D15CD144C
:101728001830FD00141F992B9A2B9D2BCD15CD1425
:1017380014137D082C3E84000A168A1103200A120D
:101748008A15831780007D03031DAB2BAC2BDC2B84
:10175800B92B0B30AF00CD2B1330AF00CD2B04309D
:10176800AF00CD2B4D15CD14CD2B7D082C3E84001C
:101778000008013A0319AD2B033A0319AD2B013ABE
:101788000319B02B073A0319AD2B013A0319B32BF0
:10179800B62B7D082C3E84000008CC00CD131A30EF
:1017A8002F02031CD82BD92B3F2C4D15CD143F2CC1
:1017B8007D082F020318E12BE22BE32BD92B7D08A0
:1017C8002F06031DE82BE92B3F2C2D30F3000130A9
:1017D800F4007D08FE3EF5000A168A11E6200A127A
:1017E8008A157408A9007308A8007D082B3E840098
:1017F80083170008F8007D082C3E84000008D100FB
:101808007808D00051082906031D0C2C500828061A
:1018180003190F2C102C172CA801A9014D148312A1
:101828000313CD143F2C4D1083160317BA08031D5C
:101838001E2C1F2C132C83120313D201D20AD3019E
:10184800382C5308193A031D2A2C2B2C2C2CD30383
:1018580052082C3E84000008F8005308BA3E840061
:1018680078088000D20AD30A52087D0203183D2C5A
:101878003E2C252CCD10FD0ABA2CFC1A442C452CE4
:10188800592C7C1D482C492C592C7C184C2C4D2C3F
:10189800592CFC1D502C512C592CB0014C080A1203
:1018A8008A11F5270A128A15BA2CFC1E5C2C5D2CAD
:1018B800AC2C7C1D602C612CAC2C7C18642C652C09
:1018C800AC2C9E2C2808CD004D080A128A11F52749
:1018D8000A128A15B00ABA2C2908CE004E080A1234
:1018E8008A11F5270A128A156E2C4C30F300003045
:1018F800F4000330F5000A168A11E6200A128A1548
:101908007408A9007308A80028080A128A11F52784
:101918000A128A156E2C29080A128A11F5270A124A
:101928008A156E2CCD1755300A128A11F5270A121E
:101938008A15BA2C3008003A0319662C013A0319A3
:10194800702C033A0319792C013A03198F2C962C21
:10195800FC1EAF2CB02CBA2C7C19B32CB42CBA2C8E
:101968007C18B72CB82CBA2C6400BA2C08003A089A
:10197800031DBF2C402E2F2E3C0883120313AC04EA
:10198800831603173E0883120313AD048316031747
:101998003D0883120313DB00831603173B088312E9
:1019A8000313DA00DA09DB095A08AC055B08AD0550
:1019B800DF01DE01DE0A83160317400883120313D2
:1019C8005E050319E82CE92CFA2C5F08DA000130CF
:1019D8000310DA0DFF3E031DEC2C03105A0DA23E36
:1019E8008400831300081F394038800083160317CA
:1019F8003F08831203135E050319032D042D152DCB
:101A08005F08DA0001300310DA0DFF3E031D072DD1
:101A180003105A0DA23E8400831300081F39203892
:101A28008000DF0A0310DE0D04305F02031C1D2D49
:101A38001E2DDF2CDF01DE01DE0A03105F0DDD0045
:101A48005D08013EDC008316031741088312031367
:101A58005E050319302D312D3A2D5D08BD3E8400F9
:101A6800831300081F39803880004C2D8316031714
:101A78004208831203135E050319432D442D4C2D90
:101A88005C08BD3E8400831300081F39803880003D
:101A9800DF0A0310DE0D06305F02031C542D552D9E
:101AA800212D83160317BA01402E83120313DF0179
:101AB8005F08DA0001300310DA0DFF3E031D5F2DC9
:101AC80003105A0DA23E8400831300080739DB0077
:101AD8005F08BB3E84008317000807395B060319BB
:101AE800762D772D9E2D5F08BB3E840007300005BC
:101AF800DA005F08DB0001300310DB0DFF3E031D39
:101B0800802D03105B0DA23E8400831300085A0643
:101B1800F8395A0680005F08BB3E84008317000826
:101B2800D4005F085F075F07143E0A168A119820E1
:101B38000A128A1583120313DF0A04305F02031C9A
:101B4800A62DA72D5C2D552D83120313DF015F08E9
:101B5800BB3E840083170008DA005F08B03E8400AB
:101B6800831300085A060319BA2DBB2DD32D5F081D
:101B7800BB3E840083170008DA005F08B03E84008B
:101B88005A08831380005F08B03E84000008D40020
:101B98005F08323E0A168A1198200A128A158312A3
:101BA8000313DF0A0D305F02031CDB2DDC2DAB2D88
:101BB800552D83120313DF015F08BB3E8400831792
:101BC8000008DA005F08203E8400831300085A06E4
:101BD8000319EF2DF02D082E5F08BB3E84008317F4
:101BE8000008DA005F08203E84005A08831380004A
:101BF8005F08203E84000008D4005F082A3E0A16C9
:101C08008A1198200A128A1583120313DF0A0630F4
:101C18005F02031C102E112EE02D552D8312031385
:101C28003A18172E182E282E831603173B088312EE
:101C38000313BA003A1C212E222E552D0A168A119A
:101C4800A2240A128A15552D831603173B088312FE
:101C58000313BA00552D3A08013A0319C02C033A68
:101C68000319592D013A0319A82D073A0319DD2D37
:101C7800013A0319122E552D831203133103031D44
:101C8800462E472E4F2E4308031D4B2E4E2E4D1227
:101C9800C3034F2E4D1608000E3083120313DB00CA
:101CA800DC010E300A168A113B200A128A1503132A
:101CB800D800D901DB0A0319DC0A5B080A168A1165
:101CC8003B200A128A150313D600D7015608D700FD
:101CD800D6015608D8045708D904DB0A0319DC0AC8
:101CE8005908AA3A553003195806031D7C2E7D2E33
:101CF800222F5B080A168A113B200A128A15031341
:101D0800AC00AD01DB0A0319DC0A5B080A168A116C
:101D18003B200A128A150313D600D7015608D700AC
:101D2800D6015608AC045708AD04DB0A0319DC0ACF
:101D3800DA01DF2E5A085A075A07D53E84005B0895
:101D48000A168A113B200A128A158313800003138E
:101D5800DB0A0319DC0A5A085A075A07D63E8400D8
:101D68005B080A168A113B200A128A158313800021
:101D78000313DB0A0319DC0A5B080A168A113B20E5
:101D88000A128A1507390313D6005A08D7000130FA
:101D98000310D70DFF3E031DCC2E0310570DA23E96
:101DA8008400831300085606F83956068000DB0ABB
:101DB8000319DC0ADA0A47085A02031CE42EE52E46
:101DC8009E2E2A30DB00DC01DA015A08203E84000E
:101DD8005B080A168A113B200A128A1583138000B1
:101DE8000313DB0A0319DC0ADA0A06305A02031C59
:101DF800FE2EFF2EE92E3230DB00DC01DA015A0814
:101E0800B03E84005B080A168A113B200A128A1524
:101E1800831380000313DB0A0319DC0ADA0A0D3086
:101E28005A02031C182F192F032F42300A168A1141
:101E38003B200A128A150313CA00FF2FD4015B083E
:101E48000A168A1198200A128A1583120313DB0ACC
:101E58000319DC0AD4015B080A168A1198200A12B1
:101E68008A1583120313DB0A0319DC0AAC01AD01DE
:101E7800DA01822FD4015B080A168A1198200A1207
:101E88008A1583120313DB0A0319DC0AD4015B08E1
:101E98000A168A1198200A128A1583120313DB0A7C
:101EA8000319DC0A5A085A075A07D53E84008313D7
:101EB80080015A085A075A07D63E84008001D40187
:101EC800D40A5B080A168A1198200A128A15831206
:101ED8000313DB0A0319DC0A5A08D6000130031081
:101EE800D60DFF3E031D732F0310560DA23E84002E
:101EF80083130008F83901388000DA0A47085A02C3
:101F0800031C872F882F3E2F2A30DB00DC01DA01E3
:101F18005A08203E84007830831380005A08203EF7
:101F280084000008D4005B080A168A1198200A1257
:101F38008A1583120313DB0A0319DC0ADA0A06304E
:101F48005A02031CA82FA92F8C2F3230DB00DC018A
:101F5800DA01D4015B080A168A1198200A128A1538
:101F680083120313DB0A0319DC0A5A08B03E840003
:101F780083138001DA0A0D305A02031CC42FC52FBF
:101F8800AD2F4230DB00DC01CA01D40142300A1611
:101F98008A1198200A128A1583120313DB0A03197F
:101FA800DC0A0D30DB00DC01D401D40A0D300A163E
:101FB8008A1198200A128A1583120313DB0A03195F
:101FC800DC0A5530D4005B080A168A1198200A12D8
:101FD8008A1583120313DB0A0319DC0AAA30D4001A
:101FE8005B080A168A1198200A128A1583120313AD
:081FF800DB0A0319DC0A0800F2
:102006001308080083120313D7005708D800D90114
:102016000310D80DD90D1430D8070318D90AFE308D
:10202600D8050130D9050030D8040630D90459083E
:10203600D5005808D40008007208F006B30108302D
:102046003302031C2728282829283A28701C2C2804
:102056002D2835280310F10CF00C0130F006A030C5
:10206600F10638280310F10CF00CB30A22280800F8
:10207600D4006400831603178C184228452883125F
:1020860003133C2883120313540803178D003F30B3
:1020960083168C050C1403100C1803140030031857
:1020A600013083120C080800D801D901541C5C28A1
:1020B6005D2863285608D8070318D90A5708D90790
:1020C6000310D60DD70D0310D50CD40C55085404A7
:1020D600031D6E286F2859285908D5005808D400C2
:1020E6000800D400D5018528D50196280230D500F0
:1020F60096280330D50096281230D500962813303E
:10210600D50096285408003A03197728013A03198E
:102116007928033A03197C28013A03197F28073ADC
:1021260003198228962855080800D5008316031738
:102136008C189E289F289928831203135508031785
:102146008D000313540803178C003F3083168C054B
:1021560003108B1FAF28B028B12803148B130C155E
:1021660055308D00AA308D008C140C11031CBC2830
:10217600BD28BE288B1708000D30D700D8010D30BA
:102186000A168A113B200A168A110313D600D70AAB
:102196000319D80A56030319D128D228E528D401F1
:1021A60057080A168A1198200A168A1183120313F1
:1021B600D70A0319D80AD40157080A168A11982093
:1021C6000A168A110800FF308312A600FF30A70006
:1021D600B20109292708F1002608F0003208730722
:1021E600F60074080318013EF7007608840083178A
:1021F600771C83130008F2000A168A111F200A169C
:102206008A117108A7007008A600B20A7508320282
:10221600031C0E290F29ED282708F4002608F300D1
:10222600080003303F02031819291A292729D40167
:10223600D501D50A04300A128A15EF210A168A1129
:1022460083120313BF0A432919303F0203182C29AE
:102256002D293629D401D50104300A128A15EF2119
:102266000A168A112329D401D501D50A04300A1287
:102276008A15EF210A168A1183120313BF01BF0ABA
:1022860008000B1D472948295F298B1E4B294C291D
:102296005F2983120313BB0A32302E020318542916
:1022A60055295729AE0A5C290A168A112D220A16C3
:1022B6008A11823081020B11831203138C1D64294B
:1022C600652970298C1183168C1D6A296B29702942
:1022D6000A128A1552230A168A117B088A007A087E
:1022E6008400790E8300FE0E7E0E0900DC01DD01FE
:1022F600DE01DF01541C8029812998295808DC0752
:10230600590803110318013E03198A29DD075A08E3
:1023160003110318013E03199129DE075B08031117
:102326000318013E03199829DF070310D80DD90DAC
:10233600DA0DDB0D0310D70CD60CD50CD40C5708D0
:10234600560455045404031DA929AA297D295F08AA
:10235600D7005E08D6005D08D5005C08D4000800EA
:10236600DB01E729D901D90ADA015B0ABD29031085
:10237600D90DDA0DFF3E031DBA2959082C05D700E1
:102386005A082D05D80058085704031DCB29CC2917
:10239600DA293A19CF29D029DA295B08D400D501E0
:1023A60000300A128A15EF210A168A11E4295B0801
:1023B600D400D501D50A00300A128A15EF210A1673
:1023C6008A1183120313DB0A46085B02031CEC29FD
:1023D600ED29B5290800F100102A7008031DF4291B
:1023E600F62935161E2A35121E2A7008031DFC29E9
:1023F600FE29B9171E2AB9131E2A7008031D042ABE
:10240600062A36141E2A36101E2A7008031D0C2AA8
:102416000E2A35151E2A35111E2A7108003A03198F
:10242600F029013A0319F829033A0319002A013A57
:102436000319082A1E2A340885003508860036083E
:10244600870037088800380889003908831603177B
:102456008800080047084B02031C322A332A342A14
:10246600CB0103104B0DE13E840083130008840A60
:10247600000403193F2A402A702A03104B0DE13E3F
:102486008400001C472A482A512AF001F00A4B080A
:102496000A168A11EE210A168A11582AF0014B08EB
:1024A6000A168A11EE210A168A11831203130310E3
:1024B6004B0DE13E84000008F200840A0008F30098
:1024C6000310F30CF20C03104B0DE13E840072086E
:1024D6008000840A73088000712ACB0A0800DB0199
:1024E600962A6B300A168A1105200A168A110310DD
:1024F6005B0DE13E8400540883138000840A55086E
:102506008000AF2A6E300A168A1105200A168A1133
:1025160003105B0DE13E8400540883138000840A97
:1025260055088000AF2A5B08DA0001300310DA0D87
:10253600FF3E031D992A03105A0DA23E8400831301
:1025460000080739003A0319852A013A0319852A32
:10255600033A0319742AAF2ADB0A04305B02031C10
:10256600B52AB62A962A0800D400D501DE2A0430F8
:10257600D500042B0530D500042B0630D500042BDE
:102586000730D500042B0830D500042B0930D500C0
:10259600042B0B30D500042B0C30D500042B0D304A
:1025A600D500042B0E30D500042B1030D500042B9B
:1025B6001130D500042B5408003A0319BA2A013AFF
:1025C6000319BD2A033A0319C02A013A0319C32A7B
:1025D600073A0319C62A013A0319C92A033A031905
:1025E600CC2A013A0319CF2A0F3A0319D22A013A03
:1025F6000319D52A033A0319D82A013A0319DB2A03
:10260600042B55080800DB014F2BD901D90ADA0142
:102616005B0A102B0310D90DDA0DFF3E031D0D2B9F
:102626005B080A168A1174200A168A11DC005C08F7
:10263600D33E84008317000ED600D60C560C013903
:10264600D7005C08D33E8400000ED800580C013930
:10265600570603192F2B302B3B2B5C08D33E8400E7
:10266600801A362B372B462B5C08D33E840000138A
:102676005A08D7005908D600D609D7095608AA0518
:102686005708AB054E2B5C08D33E8400001759084B
:10269600AA045A08AB04DB0A40085B02031C542B4D
:1026A600552B082B0800DC01DD01DE01DF01570890
:1026B6005604550454040319612B622B9E2BE0012A
:1026C600E00A6B2B0310D40DD50DD60DD70DE00AFD
:1026D600D71F6E2B6F2B652B0310DC0DDD0DDE0D6A
:1026E600DF0D57085B02031D822B56085A02031D95
:1026F600822B55085902031D822B54085802031CCD
:10270600852B862B952B5408D8025508031C550F8C
:10271600D9025608031C560FDA025708031C570F36
:10272600DB025C140310D70CD60CD50CD40CE00BD2
:102736009D2B9E2B6F2B5F08D7005E08D6005D0889
:10274600D5005C08D4000800D801F32B58080A12FB
:102756008A1515210A168A11D7005808D33E840017
:1027660083170008013957060319BA2BBB2BC82B50
:102776005808D33E840057080010031D001458085B
:10278600D33E8400E1308005F02B5808D33E840008
:10279600000C0F39D600043056020318D32BD42B65
:1027A600E22B5808D33E8400000C0F39D600D60A17
:1027B600D60D00085606E13956068000F02B58085B
:1027C600D33E84000018EB2BEE2B5808D33E840032
:1027D60083178016F02B8317801283120313D80AEF
:1027E60044085802031CF82BF92BA92B08001430B7
:1027F60083120313C4000530C0000530C600033041
:10280600C1000330C7000C30C2000C30C5000310F5
:10281600450CC80017304402031C122C132C152C2F
:102826001630C4000E304002031C1A2C1B2C1D2C23
:102836000D30C0000E304602031C222C232C252C02
:102846000D30C60005304102031C2A2C2B2C2D2CE2
:102856000430C10005304702031C322C332C352CC2
:102866000430C7000D304202031C3A2C3B2C3D2C91
:102876000C30C2000D304502031C422C432C452C63
:102886000C30C50007304802031C4A2C4B2C4D2C3B
:102896000630C800080083120313D700D601480883
:1028A60057020318572C582C5E2C06305702031C6F
:1028B6005D2C5E2C952C0130A12C5708203E8400FF
:1028C60083138008031D682C692C6E2C5708203E44
:1028D6008400783080005708203E84000008D50028
:1028E6005708E93E840055088000A02C5708E93EA9
:1028F600840083138001A02C5708E93E84008313CB
:1029060080080319872C882C922C3103031D8C2CEC
:102916008D2CA02C5708E93E84008003A02CD601FC
:10292600D60AA02C5408003A0319602C013A031960
:10293600792C033A03197F2CA02C56080800103076
:10294600D800D9012C08D6005608D40010300A1633
:102956008A1198200A168A1183120313D80A0319BA
:10296600D90A2D08D6005608D40058080A168A1126
:1029760098200A168A1183120313D80A0319D90A52
:10298600D701EF2C570857075707D53E8400831306
:102996000008D40058080A168A1198200A168A11C7
:1029A60083120313D80A0319D90A5708570757077A
:1029B600D63E840083130008D40058080A168A11EC
:1029C60098200A168A1183120313D80A0319D90A02
:1029D600D80A0319D90AD70A47085702031CF42C48
:1029E600F52CC52C42300A168A113B200A168A118C
:1029F600013E0313C9004908FF3A031D032D042DA8
:102A0600062DC901C90A4908D40042300A168A119E
:102A160098200A168A1108000A168A1150270A16E3
:102A26008A110A168A1192250A168A110A168A1519
:102A36009F270A168A110A168A11FA230A168A117C
:102A46000A168A11BF200A168A110A128A155026FA
:102A56000A168A110A168A1172220A168A118B1709
:102A66000B17392D8316081183128C108C183C2DE8
:102A76003D2D352D0A168A11FA230A168A110C30B5
:102A86003B02031C472D482D662D0C30BB026530DA
:102A96003B02031C4F2D502D512DBB01BE0A0A16B9
:102AA6008A11A7230A168A113D08031D5B2D662D80
:102AB600BD03BD08031D602D612D662D0A168A15FE
:102AC600CF270A168A1108303E02031C6B2D6C2D87
:102AD6003D2DBE01BC0A19303C02031C732D742D1A
:102AE600772DBC01B101B10A0A168A15AF270A165D
:102AF6008A110A128A1141200A168A110A128A15A7
:102B0600BB240A168A110A168A15BF270A168A11C5
:102B160083120313B1013D2D0A128A110E28831662
:102B260091010330831203178700831603138F0165
:102B36000C3083129D005C309B0030309D04F930D0
:102B46008316920083128C1083168C100430831225
:102B560092008330831681008230831281000B112C
:102B66008B16163003178900C030831603138704AB
:102B760022309300940183129401363094008C1114
:102B860083168C150614031785150515851405146B
:102B96008716071687150715871407140313881752
:102BA60008178816081687160716081487150715B6
:102BB60086148614881105108510051189120913CB
:102BC6000611061106110611061106110611061147
:102BD600081588108511051285120910891009112A
:102BE600091289130317051285120513031387109B
:102BF60006120317851303130710061183123516E1
:102C0600B917361435153408850035088600360898
:102C160087003708880038088900390883160317A3
:102C2600880064000800DA01A42E5A080A168A11E0
:102C3600B7220A168A11D9005908D33E8400831791
:102C4600000ED600D60C560C0139D7005908D33ED3
:102C56008400000ED800580C013957060319342E8B
:102C6600352E4B2E5908D33E8400801A3B2E3C2E1F
:102C7600412E5908D33E84000013452E5908D33EF1
:102C8600840000175A08BD3E8400F0308313800587
:102C96005908D33E84008317801A522E532E7A2E5B
:102CA6005A08BD3E84008313001E5A2E5B2E662EE4
:102CB6005A08BD3E840000081F39403880005A0873
:102CC600BD3E840000125A08BD3E8400000ED600A8
:102CD600560C0739033A031D712E722EA32E5A087D
:102CE600BD3E840000081F3920388000A32E5A08F4
:102CF600BD3E8400831300080F39D6000630560205
:102D06000318862E872E982E5A08BD3E840000088A
:102D16000F39D600D60A00085606F0395606800046
:102D26005A08BD3E84000016A32E5A08BD3E8400F4
:102D360000081F39603880005A08BD3E8400001222
:102D4600DA0A42085A02031CA92EAA2E182E0800D7
:102D560083120313E800E301460868020318B42E41
:102D6600B52EBB2E0D306802031CBA2EBB2EBD2E0F
:102D760000304F2F62086104031DC22EC32ECC2ED5
:102D86000310680DA03E840083178001840A800129
:102D96004E2F0310680DA03E840083170008840A96
:102DA60000040319D72ED82EF22E0310680DA03E6C
:102DB600840001308002840F0030031C80038002EF
:102DC60084030310680DA03E84000008840A0004F2
:102DD600031DEE2EEF2E4E2FE301E30A4E2F680859
:102DE600B03E840083130008D400D5013C30D600E1
:102DF600D7010A168A1157200A168A115408E400C8
:102E06005508E5000030E51BFF30E600E70000301E
:102E1600D7000030D6000330D500E230D400670872
:102E2600DB006608DA006508D9006408D8000A16CF
:102E36008A1179210A168A115708E7005608E60012
:102E46005508E5005408E4000030D7000030D600ED
:102E56000330D500E830D4006708DB006608DA00E6
:102E66006508D9006408D8000A168A1156230A167E
:102E76008A115708E7005608E6005508E500540889
:102E8600E4000310680DA03E8400640883178000E8
:102E9600840A6508800063080800D5015508D40037
:102EA60001300310D40DFF3E031D542F0310540DA3
:102EB600A23E84000008F839013880005508D40085
:102EC60001300310D40DFF3E031D642F0310540D73
:102ED600A03E840080015508D40001300310D40DB3
:102EE600FF3E031D712F0310540DA13E8400800187
:102EF6005508D40001300310D40DFF3E031D7E2F6C
:102F06000310540DA23E840080115508D4000130F0
:102F16000310D40DFF3E031D8B2F0310540DA23E4C
:102F2600840000125508D40001300310D40DFF3E72
:102F3600031D982F0310540DA23E84001F308005F8
:102F46005508D40001300310D40DFF3E031DA62FF3
:102F56000310540DA33E84000010D50A0430550218
:102F6600031CB62FB72F512FD5015508BD3E84003F
:102F7600F03080055508BD3E840000125508BD3E60
:102F860084001F308005D50A0C305502031CCC2F57
:102F9600CD2FB82FD5015508C93E840083130014E0
:102FA6005508C93E840080105508203E84008317CA
:102FB6008001D50A0C305502031CE22FE32FCE2FD9
:102FC600D501550855075507D53E84008313800162
:102FD600550855075507D73E84008001D50A0430A9
:102FE6005502031CF72FF82FE42FBA01B401B501DF
:0A2FF600B601B701B801B9010800E7
:103F3E00FD0183120313B00183160317BA010800A3
:103F4E0064008001840A0406031900340406A82FB5
:103F5E000A168A1106230A168A150A128A11AE2526
:103F6E000A168A150A168A1116260A168A150800C6
:103F7E000A168A1114210A168A150A168A11B321F5
:103F8E000A168A150A128A153E200A168A15080084
:103F9E00D701DD2F5708D400D50102300A128A1539
:103FAE00EF210A168A1583120313D70A4508570202
:103FBE00031CE22FE32FD12F9B01CF309D0508006C
:103FCE00D400D501F32FD501D50AFE2F0A30D50026
:103FDE00FE2F0F30D500FE2F5408003A0319EA2F9A
:103FEE00013A0319ED2F033A0319F02FFE2F55084E
:023FFE000800B9
:02400E00F2FFBF
:00000001FF
